:020000040800F2
:100000000000022021410008554E0008574E00080C
:10001000594E00085B4E00085D4E000800000000CD
:100020000000000000000000000000005F4E00081B
:10003000614E000800000000634E0008654E000895
:1000400071410008714100087141000871410008C8
:1000500071410008714100087141000871410008B8
:1000600071410008714100087141000871410008A8
:100070007141000871410008714100087141000898
:100080007141000871410008714100087141000888
:10009000754E0008714100088D4E0008714100083E
:1000A0007141000871410008714100087141000868
:1000B0007141000871410008714100087141000858
:1000C0007141000871410008714100087141000848
:1000D0007141000871410008714100087141000838
:1000E0007141000871410008714100087141000828
:1000F0007141000871410008714100087141000818
:100100007141000871410008714100087141000807
:1001100071410008714100087141000871410008F7
:1001200071410008954E00087141000871410008B6
:1001300071410008714100087141000871410008D7
:10014000814E000871410008914E0008714100087D
:10015000714100087141000871410008A14E00087A
:1001600071410008714100087141000871410008A7
:100170007141000871410008714100080000000051
:08018000714100087141000803
:1001900010B5054C237833B9044B13B10448AFF3C1
:1001A00000800123237010BD8000002000000000AB
:1001B00008DD000808B5034B1BB103490348AFF342
:1001C000008008BD000000008400002008DD000859
:1001D00088B110B5B822044600210CF04EFD20462F
:1001E00000F032FA0023044A84F8903084F8A030FA
:1001F000C4F8AC2010BD70470000A0402DE9F04FBE
:1002000089B0002838D00F46B1B31E46A3B300F121
:10021000900300F1700A0093914603AB52460446E6
:1002200000F056FC804668BB0DF10C0B0546BBEC9C
:10023000010A1299E8B2B04758B30135052DF6D13D
:1002400003AD0FCD20672868CAF80410CAF808204B
:10025000CAF80C30CAF8100097E8070004F18406C9
:1002600086E807004FF0020C4046C4F8B49084F8CA
:10027000A0C009B0BDE8F08F4FF00108404609B0BA
:10028000BDE8F08F0723404684F8A03009B0BDE8F0
:10029000F08F072384F8A0304FF00308EEE700BF8B
:1002A000002847D030B52DED028B044683B0002BDB
:1002B00038D0DFED217A0192B0EEC07AB4EE677AE1
:1002C000F1EE10FAB0EE408A2CD8FFEE087AB4EEC8
:1002D000E70AF1EE10FA25D4F7EE087AB4EEE70A51
:1002E000F1EE10FA1EDC0D46013989B244F61F60AA
:1002F000814217D808990520984798B1B5EEC08A71
:100300000023F1EE10FAC4F8B030019A84ED298A86
:10031000ACBF04230323A4F8A850C4F8B42084F885
:10032000A03003E0072384F8A030002003B0BDEC28
:10033000028B30BD00207047FFFF7F7F40B139B195
:1003400032B110B590F8A020042A044601D010BDA7
:100350007047D1ED007AD1ED016A91ED027A66EE37
:10036000A66A67EEA77A27EE077A77EEA67ADFED20
:10037000106A77EE877AB1EEE77AF0EEC77AF4EE9C
:10038000667AF1EE10FAE2D8D0ED2B7A80ED2C7A75
:10039000F4EEC77AF1EE10FAD9D8002BD7D0029933
:1003A000052098470028D2D0052384F8A03010BD3E
:1003B000FFFF7F7F78B1F8B50D46074639B1164685
:1003C0000024E0B231460134A847062CF9D10623B7
:1003D00087F8A030F8BD704770B52DED0C8B9FED00
:1003E000549AD0ED008A82ED009A82ED019A82ED56
:1003F000029AD1ED019A79EE899A1446B0EE690A13
:100400000D4606460BF0AEF928EE808AB0EE690A7A
:1004100038EE098A84ED008A0BF0DCF968EE808AF8
:1004200096ED01DA78EE89BA79EE688AC4ED01BA00
:10043000D5ED027A79EEA79AB0EE690A0BF092F93F
:100440002DEE00BAB0EE690A38EE0B8A3BEE09BA1F
:1004500084ED008A0BF0BEF92DEE00DA96ED02AACB
:100460007BEE8DBA78EECD8AC4ED01BAD5ED037A74
:1004700079EEA79AB0EE690A0BF074F92AEE00CA79
:10048000B0EE690A38EE0C8A3CEE0BBA84ED008AB5
:100490000BF0A0F92AEE00AAD6ED03AA7BEE8ABAE9
:1004A00078EECA8AC4ED01BAD5ED047A79EEA79A3E
:1004B0003CEE09CAB0EE690A0BF054F96AEE80CA44
:1004C000B0EE690A3CEE888A3CEE8BBA84ED008A75
:1004D0000BF080F939EE4D7A6AEE807A37EE4A7A7F
:1004E00039EE4AAA77EEABBA78EEE78A3AEE67AA17
:1004F0003CEE8CCA37EE677A7CEE89CA79EE677A71
:10050000C4ED01BAC4ED029AC4ED038A84ED078AF2
:1005100084ED047A84ED08BA84ED05AA84ED09CA55
:10052000C4ED067AC4ED0ACABDEC0C8B70BD00BFE9
:1005300000000000F0B52DED048B04468DB015468B
:1005400001AAF0EE408AB0EE609A1E46169FFFF7B1
:1005500043FF9DED017ADDED027A94F85C3078EE90
:10056000C78A39EE679AB3B194ED188A9DED037A84
:10057000DFED307A38EE478AB4EEE78AF1EE10FA12
:1005800047DD9FED2D7A38EE478AB4EEE78AF1EE2B
:1005900010FAF8DC01E09FED298AF0EE490AB0EE8E
:1005A000680A0BF0B7F886ED000AD4ED197A68EE08
:1005B000A88A68EE277A29EE099A67EEA77A78EE7C
:1005C000898A78EEA78AF1EEE87AC5ED007A1FB144
:1005D00087ED008AD5ED007A9FED197AF0EEE77A83
:1005E000F4EE477AF1EE10FA0ED8D6ED007AF0EE7E
:1005F000E77AF4EE477AF1EE10FA94BF012000207A
:100600000DB0BDEC048BF0BD00200DB0BDEC048B33
:10061000F0BDDFED0C7AB4EEE78AF1EE10FABCD54E
:100620009FED057A38EE078AB4EEE78AF1EE10FA0C
:10063000F8D4B2E7DB0F4940DB0FC94000000000EF
:10064000FFFF7F7FDB0F49C0002834D010B5702238
:10065000044600210CF011FB1748184A2060184886
:10066000E262606022631748174AA060626217481E
:10067000174AE060A2621748174A1849206162636E
:100680001748A1614FF07E52E1616061154916483B
:10069000A2652822154BDFF85CC021626065144911
:1006A00084F86C200120C4F84CC0236584F85C00F9
:1006B0006166A36610BD704733F3D143368D274082
:1006C00066E6F5420000F8424EE43D40B81E504355
:1006D000DB0FC93F4EE43DC0DB0F4940368D27C0DC
:1006E000DB0FC9BFDB0F49C0CDCC4C3E0AD7233C42
:1006F0000000C8420000A040002800F0E28190ED18
:10070000137ADFEDD37AF0EEC76AF4EE676AF1EEA2
:1007100010FA00F2D481D0ED146AB0EEE66AB4EEBD
:10072000676AF1EE10FA00F2CA8190ED156AF0EEF8
:10073000C65AF4EE675AF1EE10FA00F2C08190ED5D
:10074000165AF0EEC55AF4EE675AF1EE10FA00F2BE
:10075000B681D0ED185AF0EEE55AF4EE675AF1EE94
:1007600010FA00F2AC81D0ED195AF0EEE54AF4EE41
:10077000674AF1EE10FA00F2A281D0ED1A4AB0EE0B
:10078000E44AB4EE674AF1EE10FA00F29881B5EE51
:10079000C07AF1EE10FA00F19281F5EEC06AF1EE46
:1007A00010FA00F18C81B5EEC06AF1EE10FA40F259
:1007B0008681B5EEC05AF1EE10FA40F28081F5EE76
:1007C000C05AF1EE10FA00F17A81F5EEC04AF1EE6E
:1007D00010FA40F2748130B52DED048B90F85C3046
:1007E0008DB00C4615462BB1F5EEC05AF1EE10FA5D
:1007F00040F2688190F86C30013B632B00F262811B
:1008000090ED007ADFED927AF0EEC76AF4EE676A57
:10081000F1EE10FA00F25681B5EEC07AF1EE10FA60
:1008200040F2508190ED017AF0EEC76AF4EE676A0B
:10083000F1EE10FA00F24681B5EEC07AF1EE10FA50
:1008400040F2408190ED027AF0EEC76AF4EE676AFA
:10085000F1EE10FA00F23681B5EEC07AF1EE10FA40
:1008600040F2308190ED037AF0EEC76AF4EE676AE9
:10087000F1EE10FA00F22681B5EEC07AF1EE10FA30
:1008800040F2208190ED046AB0EEC67AB4EE677A49
:10089000F1EE10FA00F21681D0ED096AB0EEE67AB8
:1008A000B4EE677AF1EE10FA00F20C8190ED0E7A58
:1008B000B0EEC77AB4EE677AF1EE10FA00F2028178
:1008C000B4EEE66AF1EE10FA00F3FC8090ED056AF2
:1008D000B0EEC67AB4EE677AF1EE10FA00F2F2806A
:1008E000D0ED0A6AB0EEE67AB4EE677AF1EE10FA6D
:1008F00000F2E88090ED0F7AB0EEC77AB4EE677A36
:10090000F1EE10FA00F2DE80B4EEE66AF1EE10FAD3
:1009100000F3D88090ED066AB0EEC67AB4EE677A3E
:10092000F1EE10FA00F2CE80D0ED0B6AB0EEE67A6E
:10093000B4EE677AF1EE10FA00F2C48090ED107A0E
:10094000B0EEC77AB4EE677AF1EE10FA00F2BA8030
:10095000B4EEE66AF1EE10FA00F3B48090ED076AA7
:10096000B0EEC67AB4EE677AF1EE10FA00F2AA8021
:10097000D0ED0C6AB0EEE67AB4EE677AF1EE10FADA
:1009800000F2A08090ED117AB0EEC77AB4EE677AEB
:10099000F1EE10FA00F29680B4EEE66AF1EE10FA8B
:1009A00000F3908090ED086AB0EEC67AB4EE677AF4
:1009B000F1EE10FA00F28680D0ED0D6AB0EEE67A24
:1009C000B4EE677AF1EE10FA7CD890ED127AB0EEC0
:1009D000C77AB4EE677AF1EE10FA73D8B4EEE66A2D
:1009E000F1EE10FA6EDC002C6CD0002D6AD0D4ED44
:1009F000008AB0EE678AF0EEE87AF4EE487AF1EE1B
:100A000010FA5FD8D4ED017AF0EEE77AF4EE487A86
:100A1000F1EE10FA56D8D4ED027AF0EEE77AF4EE61
:100A2000487AF1EE10FA4DD8D4ED037AF0EEE77A79
:100A3000F4EE487AF1EE10FA44D8D4ED047AF0EEF0
:100A4000E77AF4EE487AF1EE10FA3BD802E000BF04
:100A5000FFFF7F7F01AA2146FFF7BEFCB0EE680AC8
:100A60000AF080FE9DED019A69EE008AC5ED008ACC
:100A700094ED000A0AF0AEFEF0EEE88ADDED027AAF
:100A800029EE009AF4EE488AF1EE10FA85ED019A0B
:100A9000C5ED027A16D8B0EEC99AB4EE489AF1EED6
:100AA00010FA0FD8F0EEE77AF4EE487AF1EE10FA89
:100AB00094BF012000200DB0BDEC048B30BD0020A0
:100AC0007047704700200DB0BDEC048B30BD00BFF7
:100AD0002DE9F04F2DED108BAFB00446489D0E462A
:100AE0009A463DB14FF0FF436B60AB6001232B7022
:100AF00000232B73002C00F0E88594ED137ADFEDD2
:100B0000DF7AF0EEC76AF4EE676AF1EE10FA00F2EF
:100B1000DC85D4ED146AB0EEE66AB4EE676AF1EEF5
:100B200010FA00F2D28594ED156AF0EEC65AF4EE92
:100B3000675AF1EE10FA00F2C88594ED165AF0EEFD
:100B4000C55AF4EE675AF1EE10FA00F2BE85D4ED04
:100B5000185AF0EEE55AF4EE675AF1EE10FA00F288
:100B6000B485D4ED195AF0EEE54AF4EE674AF1EE99
:100B700010FA00F2AA85D4ED1A4AB0EEE44AB4EEB7
:100B8000674AF1EE10FA00F2A085B5EEC07AF1EEF8
:100B900010FA00F19A85F5EEC06AF1EE10FA00F154
:100BA0009485B5EEC06AF1EE10FA40F28E85B5EE8E
:100BB000C05AF1EE10FA40F28885F5EEC05AF1EE17
:100BC00010FA00F18285F5EEC04AF1EE10FA40F21B
:100BD0007C8594F85C3007932BB1F5EEC05AF1EEAA
:100BE00010FA40F2728594F86C301793013B632B36
:100BF00000F26B8594ED007ADFEDA07AF0EEC76A23
:100C0000F4EE676AF1EE10FA00F25F85B5EEC07A95
:100C1000F1EE10FA40F2598594ED017AF0EEC76AD0
:100C2000F4EE676AF1EE10FA00F24F85B5EEC07A85
:100C3000F1EE10FA40F2498594ED027AF0EEC76ABF
:100C4000F4EE676AF1EE10FA00F23F85B5EEC07A75
:100C5000F1EE10FA40F2398594ED037AF0EEC76AAE
:100C6000F4EE676AF1EE10FA00F22F85B5EEC07A65
:100C7000F1EE10FA40F2298594ED047AF0EEC76A9D
:100C8000F4EE676AF1EE10FA00F21F8594ED096A3E
:100C9000F0EEC66AF4EE676AF1EE10FA00F215851E
:100CA000D4ED0E6AF0EEE65AF4EE675AF1EE10FA61
:100CB00000F20B85B4EEC76AF1EE10FA00F105857B
:100CC00094ED056AB0EEC67AB4EE677AF1EE10FAEA
:100CD00000F2FB84D4ED0A5AB0EEE57AB4EE677AFE
:100CE000F1EE10FA00F2F18494ED0F7AB0EEC77ACB
:100CF000B4EE677AF1EE10FA00F2E784F4EEC65A29
:100D0000F1EE10FA00F1E18494ED066AB0EEC67AD5
:100D1000B4EE677AF1EE10FA00F2D784D4ED0B5AF4
:100D2000B0EEE57AB4EE677AF1EE10FA00F2CD8417
:100D300094ED107AB0EEC77AB4EE677AF1EE10FA5D
:100D400000F2C384F4EEC65AF1EE10FA00F1BD844D
:100D500094ED076AB0EEC67AB4EE677AF1EE10FA57
:100D600000F2B384D4ED0C5AB0EEE57AB4EE677AB3
:100D7000F1EE10FA00F2A98494ED117AB0EEC77A80
:100D8000B4EE677AF1EE10FA00F29F84F4EEC65AE0
:100D9000F1EE10FA00F19984D4ED085AB0EEE57A3C
:100DA000B4EE677AF1EE10FA00F28F8494ED0D6ADA
:100DB000B0EEC67AB4EE677AF1EE10FA00F28584EE
:100DC00094ED127AB0EEC77AB4EE677AF1EE10FACB
:100DD00000F27B84F4EEC65AF1EE10FA00F375844B
:100DE000002E00F07284BAF1000F00F06E8496EDD0
:100DF000007AB0EEC77AB4EE677AF1EE10FA00F23C
:100E0000648496ED017AB0EEC77AB4EE677AF1EEBB
:100E100010FA00F25A8496ED027AB0EEC77AB4EE78
:100E2000677AF1EE10FA00F25084002A00F05F8435
:100E300092ED007AF0EEC76AF4EE676AF1EE10FA0E
:100E40008AED007A00F2418492ED017AF0EEC76AF1
:100E5000F4EE676AF1EE10FA8AED017A00F2358459
:100E600092ED027AF0EEC76AF4EE676AF1EE10FADC
:100E70008AED027A00F229840EE000BFFFFF7F7F37
:100E8000BD3786356F12833ADB0F4940DB0FC9400F
:100E900000000000FFFF7F7F92ED037AF0EEC76A4B
:100EA000F4EE676AF1EE10FA8AED037A00F20D842F
:100EB00092ED047A8AED047AF0EEC76AF4EE676A7E
:100EC000F1EE10FA00F20184DAED007A94ED048A72
:100ED000B4EEE78AF1EE10FA08DC94ED098AF4EE3C
:100EE000C87AF1EE10FAD8BFB0EE678A8AED008AB0
:100EF0009AED017AD4ED057AF4EEC77AF1EE10FAA4
:100F000008DCD4ED0A7AB4EEE77AF1EE10FAD8BF35
:100F1000F0EE477ACAED017A9AED027AD4ED067ABC
:100F2000F4EEC77AF1EE10FA08DCD4ED0B7AB4EEE9
:100F3000E77AF1EE10FAD8BFF0EE477ACAED027AFE
:100F40009AED037AD4ED077AF4EEC77AF1EE10FA4F
:100F500008DCD4ED0C7AB4EEE77AF1EE10FAD8BFE3
:100F6000F0EE477ACAED037A9AED047AD4ED087A66
:100F7000B4EEE77AF1EE10FA08D4D4ED0D7AB4EEBF
:100F8000E77AF1EE10FAD8BFF0EE477ACAED047AAC
:100F900096ED009AD6ED018AB0EE490AF0EE680AA5
:100FA0000AF0B8FB5FED4B7AB4EE670AF1EE10FA87
:100FB000B0EE40EA00F289835FED4F7A96ED027A57
:100FC000B4EEE70AF1EE10FA8DED037A32DDF0EEC1
:100FD000490AB0EE680A0AF09BFB5FED557A30EEE5
:100FE000480AB4EEE70AF1EE10FA40F3A7831FEDCA
:100FF000597A30EE470AB4EEE70AF1EE10FAF8DC5F
:10100000D4ED047A1FED627A30EE080A77EEC77AE3
:10101000F4EEC07AF1EE10FA00F2C183D4ED097A51
:1010200077EE877AF4EEC07AF1EE10FAC0F2B78369
:101030008AED000A1AAB0093DDED030AB0EE4E0A0A
:1010400019AB18AA51462046FFF774FA002800F0A1
:10105000FA83DDED197A5FED72DA089600235646C1
:10106000CDED067A09938DED04EAAA461FED7B7A51
:10107000D4ED130AD4ED167AF4EEC70AF1EE10FAA5
:10108000D4BFB0EE478AB0EE608A9DED067AF4EEEA
:10109000C77AF1EE10FAC0F28483079B002B00F0B0
:1010A0005F839DED1A7AD4ED1A6AB0EEC76AB4EE8A
:1010B000E66AF1EE10FA40F277860DF18C0B5A4693
:1010C00031462046FFF788F9DDED047A9DED230ACD
:1010D0009DED24AA9DED264A9DED273ADDED284A97
:1010E0009DED295ADDED2A5ADDED2B6A9DED2C7A16
:1010F000DDED2D1A37EEC00ADDED037A37EECAAA10
:10110000DDED257A94ED186A36EE676A5FEDA27A16
:10111000B4EEE76AF1EE10FA40F397835FEDA53A7B
:1011200036EE636AB4EEE76AF1EE10FAF8DCD4ED5D
:10113000197A5FEDA98A27EE861A27EEA76A76EE5E
:10114000288A78EE868A78EE868A78EE868A68EE35
:10115000080A25EE848A26EE839A25EEA52A38EE23
:101160002D8A27EE846A66EEA63A38EE098A32EEB8
:101170002D2A27EE839A36EE2D6A32EE232A36EE9A
:10118000096A67EEA52A27EE079A72EEAD2A32EEBB
:10119000092A64EE043A27EEA69A73EEAD3A72EE8F
:1011A000892A23EE039A70EEA88A73EE893A24EE18
:1011B000879A1FEDC8DA38EE098A27EEA49A36EE30
:1011C000096A21EEA19A32EE092A27EE879A32EEB9
:1011D000202A72EE892A24EEA49A73EE893A21EE2F
:1011E000859A38EE098A27EE859A28EE28CA36EEC7
:1011F000096A27EEA19A72EE892A25EE059A66EE13
:1012000022AA73EE893A22EE289A73EEA03A62EE91
:10121000A20A68EE229A39EE609A66EE020A69EE38
:1012200023BA79EEE09A7CEE6A0A60EE880A7BEED9
:10123000E0BA69EE860A7BEEA0BAB0EEEBBAB4EE85
:101240004DBAF1EE10FA00F2FE82DFEDF20AB4EED2
:10125000E0BAF1EE10FA40F2F68289EE2BBA7AEE9D
:10126000CCAA23EEA89A63EEA22ACAEEAB8AC9EEF4
:10127000ABAA66EE069A28EE066A39EE699A36EE51
:10128000626AC9EE2BCA86EE2B9AB0EECB6AB4EE38
:101290004D6AF1EE10FA00F2D682B0EEE86AB4EED2
:1012A0004D6AF1EE10FA00F2CE82B0EEEA6AB4EEC8
:1012B0004D6AF1EE10FA00F2C682B0EEEC6AB4EEBE
:1012C0004D6AF1EE10FA00F2BE82B0EEC96AB4EED9
:1012D0004D6AF1EE10FA00F2B68223EE826A28EE31
:1012E000088A36EE486AC6EE2B9AB0EEE96AB4EE8A
:1012F0004D6AF1EE10FA00F2A6826BEE032A2BEE95
:10130000042A6BEE243A2BEE058A72EEAD2A28EE03
:10131000A6BA73EEAD3A72EE8B2A28EE87BA28EEA3
:10132000A56A73EE8B3A32EE2D2A28EEA1BA38EE7A
:101330002D8A32EE062A38EE0B8A28EE846A2AEECF
:10134000A7BA28EE83DA78EE0BEA36EE2D6A2CEE99
:10135000A58A28EEA4CA36EE086A3DEE2DDA2CEEF8
:10136000A68A68EE858A3DEE08DA3CEE2DCA2CEEA0
:10137000878A78EEAD8A6CEEA1CA3CEE08CA78EE98
:10138000AC8A6AEE84BA69EE27CA32EE0B2A3CEECA
:101390002CEA72EE8B2A38EEACCA73EE8B3A69EE09
:1013A000258A2AEE83BA7BEEADBA2AEEA48A7BEEBA
:1013B000A8BA3BEE2DBA69EE268A6AEE85AA3BEE04
:1013C00028BA38EE2D8A69EE078A7AEEADAA29EEA0
:1013D000219A69EEA79A36EE2C6A38EE288A7AEEC0
:1013E00089AA22EE009A3DEE2CDA7BEEA9BA78EEBD
:1013F00029CA3BEE29BA7AEEA9AA20EE2E8A60EE1F
:10140000229A60EE238A39EE2D9A26EE0A0A79EEA8
:10141000AD9A39EE009A2AEE0D0A78EEAD8A79EE91
:10142000809A2AEE0E0A38EE2D8A78EE808A2BEE0C
:10143000810A2AEE0CAA39EE009A2BEE010A38EE48
:101440000A8A79EE809A2CEE810A2AEE811A78EEC9
:10145000808A38EE018A94ED141A96ED010ACDEDDA
:101460000CEAB5EEC01AF1EE10FA8DED0BDACDED07
:101470000FBA8DED10BACDED11CACDED12AA94EDD3
:1014800005AAD4ED06AAD6ED02CA94ED07BA96EDE8
:1014900003DAD4ED08BAD6ED04EA8DED0A6A8DEDD3
:1014A000050A00F3E481F0EEC97AF5EEC07AF1EEB8
:1014B00010FAD8BFF0EE6D7AB0EEE97AB4EEE77AC2
:1014C000F1EE10FAD8BFB0EE677AF0EEE87AF4EEFB
:1014D000C77AF1EE10FAD8BFF0EE477AB0EEC87ACC
:1014E000B4EEE77AF1EE10FAD8BFB0EE677AD4ED39
:1014F000157AF4EEC77AF1EE10FA00F19981D6F878
:10150000009000271DAD4FF0010808FA07F307EE21
:10151000103AB8EEC77AF7EE007AC7EE877ACDF8C0
:101520007890DDED056A27EE897A37EE267AB4EEFB
:10153000CA7AF1EE10FA00F1D780D4ED0AFAB4EECF
:10154000EF7AF1EE10FAD8BFF0EE47FA27EEA97A5B
:10155000CDED1FFA37EE2C7AB4EEEA7AF1EE10FAFE
:1015600000F1BF80D4ED0B6AB4EEE67AF1EE10FA2A
:10157000D4BFB0EE47CAB0EE66CA28EEA77A8DEDAA
:1015800020CA37EE0D7AB4EECB7AF1EE10FA00F104
:10159000A58094ED0C6AB4EEC67AF1EE10FAD4BFD1
:1015A000B0EE47EAB0EE46EA67EE887A8DED21EAC2
:1015B00077EEAE7AF4EEEB7AF1EE10FA00F18B8072
:1015C00094ED0D6AF4EEC67AF1EE10FAD4BFB0EEE7
:1015D00067FAB0EE46FADDED030A9DED040A0095C8
:1015E0001CAB1BAA1EA920468DED22FAFEF7A2FF16
:1015F000002800F02881DDED1B7ADDED185AF4EEAD
:10160000E57AF1EE10FA00F19F830137062F7FF49F
:101610007CAF0DE0BD37863500000000DB0F49C010
:10162000DB0FC9400AD7A33CCDCC4C3DBD37863536
:101630005546B246089E002D00F0E1805A465146BC
:101640002046FFF759F8002800F06F8396ED006AF6
:1016500096ED017ADDED237ADDED246A77EEC67A28
:1016600076EEC76A96ED026A9DED257A66EEA66A69
:1016700067EEA77A37EE467A77EEA67A27EE077AF4
:1016800077EE877AF1EEE76A079B94ED167AC5ED5F
:10169000016A002B76D0DDED066ADDED1A7A099B32
:1016A0002B73B4EEE67AF0EEE77AF1EE10FAC5EDC0
:1016B000027A72DB94ED1A7AF4EEC77AF1EE10FA40
:1016C0006BD800232B70002000E001202FB0BDEC70
:1016D000108BBDE8F08FB0EE6BFA7CE7B0EE4BEA12
:1016E00062E7B0EE6ACA48E7F0EE4AFA2EE7CAEDC2
:1016F000006A94ED0F7AF0EEC76AF4EE676AF1EED5
:1017000010FA8AED017AE0D894ED107AF0EEC76A0B
:10171000F4EE676AF1EE10FA8AED027AD5D894ED0C
:10172000117AF0EEC76AF4EE676AF1EE10FA8AED0C
:10173000037ACAD894ED127AFFF7BCBB5FED497A01
:10174000B4EEE70AF1EE10FA7FF55AAC1FED4C7AD1
:1017500030EE070AB4EEE70AF1EE10FAF8D44FE4DF
:101760005546B246089E002DADD0514623AA2046CC
:10177000FEF7C2FF00287FF469AF4FF0FF4394EDFE
:10178000167A6B60DDED067A099A2A73B4EEE77A71
:101790000023F1EE10FAAB6093DA02232B700220E3
:1017A00094E70DF18C0B5A4631462046FEF714FEA5
:1017B000DDED047A9DED230A9DED24AA079B9DEDA6
:1017C000264A9DED273ADDED284A9DED295ADDEDAB
:1017D0002A5ADDED2B6A9DED2C7ADDED2D1A37EEC0
:1017E000C00ADDED037A37EECAAA002B7FF488AC7D
:1017F0005FED778AF0EE687AB0EE681AA7E4D4ED70
:10180000167A9DED067AB4EEE77AF1EE10FAC6D8B4
:10181000079B002B3FF457AFD4ED1A6A9DED1A7A5F
:10182000B0EEC77AB4EEE67AF1EE10FAB7D84AE72E
:10183000C7EE876A29EE269A69EEA69A68EEA68A0E
:1018400028EE268A5BE6032040E75FED8C7AB4EE53
:10185000E76AF1EE10FA7FF56AAC5FED8F3A36EE8B
:10186000236AB4EEE76AF1EE10FAF8D45FE4B0EE62
:10187000406A94ED0A0A70EE4AFAB6EE00FA2FEECC
:101880008FFAD4ED0FFAB4EEE0FAF1EE10FA7FEE33
:10189000C6FA40F3568230EE0A0AF6EE000A20EE4F
:1018A000200A76EE400AB5EE006A80EE8F0AB7EEA7
:1018B00000FA60EE000A7FEE600AF4EEC60AF1EE6E
:1018C00010FA40F13E82B1EE40FA1FEDAA0AF4EEA2
:1018D000C00AF1EE10FAD8BFF0EE400A8FEE200AEF
:1018E0005FEDAF0A60EE200A3FEEA06AD4ED0B0A6E
:1018F000D4ED10FA8DED0D6A30EEEA0AB6EE00FA7C
:1019000020EE0F0A3FEEEC6A5FEDB8FAB4EEEF0A94
:10191000F1EE10FA40F3128270EEAA0A60EE8F0A1E
:10192000B7EE00FA7CEEE00AC0EE80FAB5EE000AEF
:101930006FEEAF0A7FEE600AF4EEC00AF1EE10FA25
:1019400040F1FC811FEDC90AF4EEC00AF1EE10FA75
:10195000D8BFF0EE400AB1EE6FFA8FEE200A5FEDCD
:10196000CE0A60EE200A36EE206AD4ED0C0AD4EDE1
:1019700011FA8DED0E6A30EECB0AB6EE00FA20EECB
:101980000F0A3FEECD6A5FEDD7FAB4EEEF0AF1EE43
:1019900010FA40F3D08170EE8B0A60EE8F0AB7EE3A
:1019A00000FA7DEE600AC0EE80FAB5EE000A6FEE36
:1019B000AF0A7FEE600AF4EEC00AF1EE10FA40F1D1
:1019C000BA819FEDF40AF4EEC00AF1EE10FAD8BF26
:1019D000F0EE400AB1EE6FFA8FEE200ADFEDEE0A6C
:1019E00060EE200A36EE206AD4ED0D0AD4ED12FA2C
:1019F0008DED136A30EEEB0AB6EE00FA20EE0F0A18
:101A00003FEEEE6ADFEDE5FAB4EEEF0AF1EE10FA22
:101A100040F38E8170EEAB0A60EE8F0AB7EE00FAEB
:101A20007EEEE00AC0EE80FAB5EE000A6FEEAF0A75
:101A30007FEE600AF4EEC00AF1EE10FA40F1788110
:101A40009FEDD40AF4EEC00AF1EE10FAD8BFF0EE22
:101A5000400AB1EE6FFA8FEE200ADFEDCF0A60EE9A
:101A6000200A76EE200A9DED0F6ACDED140A27EECE
:101A7000860A9DED106A8DED0F0A67EE86FA9DEDE0
:101A8000116ACDED10FA27EE86FA9DED126A8DED02
:101A900011FA67EE860A9DED0C6ADFEDC17A22EE3F
:101AA00004FA22EE840A63EE84FA26EE044A3FEE3C
:101AB00027FA34EE274A30EE270AB0EE446A9DED4D
:101AC0000A4A24EE254A7FEEA7FA34EE0F4A9DED2E
:101AD0000FFA34EE0F4A9DED0DFA24EE0F4A34EE64
:101AE000274A8DED124A22EE034A34EE27FA9DED85
:101AF0000B4A24EE254A34EE004A9DED100A34EEDE
:101B0000004A9DED0D0A24EE004A34EE274A8DED81
:101B1000154A22EE834A34EE270A2EEE254A65EE58
:101B20008C5A34EE2F4A75EE865ADDED11FA9DED92
:101B30000C6A34EE2F4A75EEA05ADDED0DFA65EE13
:101B4000AF5A24EE2F4A75EEA7FA63EE835A26EEBB
:101B5000033A75EEA75A9DED0A6ACDED165A66EE68
:101B6000265A9DED126A75EE8F5A9DED0FFA7FEEA3
:101B7000255A9DED0EFA65EE8F5A33EE273A75EE33
:101B8000865A9DED156ACDED125A62EE245A34EE56
:101B9000274A35EEA7FADDED0B5A65EEA65A22EE7E
:101BA000052A75EE805A9DED100A70EE255A9DEDBE
:101BB0000E0A65EE805A32EE272A35EE860A64EE6A
:101BC000A25A9DED166A8DED150A35EEA70A6EEE46
:101BD000265A6CEE266A75EE865A76EE836A9DED7D
:101BE000113A9DED0A6A73EE255A70EEA66A9DEDD4
:101BF0000E3A66EE836A65EE835A76EEAF6ADDEDE5
:101C00000CFA9DED143A62EE852A35EE844A64EEB4
:101C1000A35A64EEAF4A63EE853A2FEE855A72EE10
:101C2000A72A75EEA75A74EEA74A35EE275A73EE27
:101C3000A73A66EE077A26EE216A77EE8F7A36EEBD
:101C4000026A9DED0F2A9DED12FADDED0DFA72EE9E
:101C5000277A32EE066A9DED132A67EE827A26EE27
:101C6000036A77EE8F7A36EE276A7FEEC67A9DEDAD
:101C70000B6A67EE817A39EE279A66EE077A26EECE
:101C8000216A77EE807A36EE226ADDED102A9DED2C
:101C9000150A72EEA77A32EE866A67EE827A26EE2F
:101CA000036A77EE807A36EE276ADDED0E7A77EEFC
:101CB000C67A2EEE076A67EE817A2CEE077A36EE48
:101CC000256A79EEA79A77EE245A61EE8C7ADDEDDB
:101CD000114A21EE8E7A77EE857A37EE237A34EE4A
:101CE000865A70EEA55A34EE877A70EEA77A25EE02
:101CF000025A25EE826A35EE045A76EE266A27EEFF
:101D0000037A67EE837A37EE057A77EEA67A32EEBB
:101D1000477A73EE677A27EE017A67EE817A78EE7A
:101D2000878A38EE278AFFF7BEBBDFED1E6AABE479
:101D3000DFED1B0A95E6DFED1A0A53E6DFED180A20
:101D400011E6DFED170ACFE5099BCDED187A0133D7
:101D5000DAB21D9B1A93B0EE4F7A179B0992B0EE40
:101D60004EFAB0EE4CEAB0EE6FCAF0EE47FA9DEDD7
:101D70001C7A86ED01CA9A428DED067A86ED02EA5A
:101D800086ED03FAC6ED04FA8DED197AFFF46EA91B
:101D90004EE400BF0AD7A33CCDCC4C3DBD378635C1
:101DA000000000000000807F5546B246089E15B135
:101DB0000DF18C0B42E49DED066AB4EEE76AF1EE9C
:101DC00010FA7FF62DADEAE4002800F094802DE9AA
:101DD000F04F15469DB0002A7FD04B1E5E2B0C465F
:101DE0007BD80A466C44014604A80AF0D8FF0023B9
:101DF0002B6023746B60AB60EB602B616B6104A89C
:101E0000C0490AF042FF002800F0478104AB984225
:101E10000DD010F8013C2F2B6FD81F2B61D80D2B44
:101E200067D842F2016222FA03F3DE0761D54479F2
:101E30002B2C00F0C5802D2C00F0C88005306FF0F1
:101E4000004A0122A4F1300E5FFA8EF3092B44D828
:101E50000023CDE90125AC4E19464FF0CC3B12E0F2
:101E6000FF18427841EB0404FF1964411EEB07039D
:101E7000A2F1300E49EB04015FFA8EF4092C00F157
:101E800001073DD83846BAEB0E074FEAEE7969EB09
:101E900049057A1942F10002A6FB02C828F0030C9A
:101EA0000CEB980CA2EB0C02BA1A0BFB02F765F1D3
:101EB000000506FB0575A2FB062CAC44520842EA5D
:101EC000CC729A424FEA5C0C4FEA81047CEB010C25
:101ED00044EA93744FEA8307C2DA00201DB0BDE8DC
:101EE000F08F203BDBB249F2010222FA03F3DF0755
:101EF0009DD4013084E7002070475F2BF9D196E72D
:101F00001446DDE90125013208BF5B422C2C6B60D1
:101F1000E3D17A782B2A00F0D4812D2A00F0E981D0
:101F2000A2F13007FBB2092BD7D800F1020C4FF019
:101F300001096FF0004B00237348CDF804901C4654
:101F40004FF0CC3811E0C9189CF8012044EB06068C
:101F5000491876417B18A2F13007F9B24EEB06041E
:101F600009290CF1010638D8B446BBEB07064FEA45
:101F7000E77E6EEB4E01721842F10002A0FB029A5E
:101F80002AF0030909EB9A09A2EB0902B21A61F1DE
:101F9000000108FB02F900FB0199A2FB002ACA44D8
:101FA000520842EACA729A424FEA5A0A4FEA840633
:101FB0007AEB040A46EA93764FEA8301C3DA8CE7A8
:101FC00084796FF0004A063001223BE784794FF0B4
:101FD000004A06304FF0FF3234E7DDF80490B9F1E3
:101FE000FF3F08BF5B422C2AAB607FF476AF72786C
:101FF0002B2A00F0D1812D2A00F0E681A2F13007D2
:10200000FBB2092B3FF669AF0CF1020C4FF001094E
:102010006FF0004B00233C48CDF804901C464FF075
:10202000CC380FE0C9181CF8012F44EB06064918FC
:1020300076417B18A2F13007F9B24EEB060409296C
:1020400000F29081BBEB07064FEAE77E6EEB4E0194
:10205000721842F10002A0FB029A2AF0030909EB70
:102060009A09A2EB0902B21A61F1000108FB02F918
:1020700000FB0199A2FB002ACA44520842EACA7234
:102080009A424FEA5A0A4FEA84067AEB040A46EA71
:1020900093764FEA8301C5DA1FE7824604A81B49FD
:1020A0000AF0F3FD002879D004AB98420ED010F866
:1020B000013C2F2B00F294801F2B65D80D2B6BD881
:1020C00042F2016222FA03F3D90765D502792B2A7D
:1020D00000F0ED802D2A00F0FE80A2F13006F3B270
:1020E000092B3FF6FAAE071D4FF0010B6FF00048C9
:1020F0000023CDE901ABDFF810C018464FF0CC3912
:1021000017E000BF14E00008CDCCCCCC1CE00008E8
:10211000C9187A7840EB0404491864417318A2F195
:102120003006F1B24EEB0400092907F1010E5AD82E
:102130007746B8EB06044FEAE67E6EEB4E01621876
:1021400042F10002ACFB02AB2BF0030A0AEB9B0A44
:10215000A2EB0A02A21A61F1000109FB02FA0CFBD0
:1021600001AAA2FB0C2BD344520842EACB729A423A
:102170004FEA5B0B4FEA80047BEB000B44EA93745D
:102180004FEA8301C4DAA8E6203BDBB249F2010240
:1021900022FA03F3DC0799D4013080E7BAF1000F8B
:1021A00040F08280964B049A9A4200F0EF80944B64
:1021B000049A9A4200F0FA80924B049A9A420BD009
:1021C000BDF8102045F25A439A427FF486AE9DF83E
:1021D0001230002B7FF481AE04232B7001207DE6AA
:1021E0005F2BD9D172E7DDE901ABBBF1FF3F0CBF3B
:1021F0005C421C465F2A2C617FF46FAE9EF8011092
:102200002B2900F0BC802D2900F0D68007F10208B0
:102210006FF0004E0122A1F13006F3B2092B3FF618
:102220005CAE0023CDE901A4774F039218464FF02E
:10223000CC390EE0C91840EB040449186441731806
:1022400018F8011FA1F13006F2B24CEB0400092A84
:102250005DD8BEEB06044FEAE67C6CEB4C016218DD
:1022600042F10002A7FB02AB2BF0030A0AEB9B0A28
:10227000A2EB0A02A21A61F1000109FB02FA07FBB4
:1022800001AAA2FB072BD344520842EACB729A421E
:102290004FEA5B0B4FEA80047BEB000B44EA93743C
:1022A0004FEA8301C6DA18E601236B7095E742799D
:1022B000A2F13006F3B2092B00F105077FF614AF47
:1022C0000BE6BA78A2F13007FBB2092B00F1030C40
:1022D0007FF62DAE01E64279A2F13006F3B2092B6A
:1022E00000F105073FF6F9AD4FF0FF3B4FF0004816
:1022F000FEE6BA78A2F13007FBB2092B00F1030C1D
:102300003FF6EBAD4FF0FF394FF0004B13E6039A69
:10231000013208BF5B42B3F5803FDDE901A4BFF4A1
:10232000DCAD2F29AB8267D81F295BD80D293FF67A
:10233000D4AD42F20163CB40DB077FF5CEAD04F5AF
:10234000FA64B4F57A6F3FF6C8ADBAF1000F05D064
:1023500040F20113A5F8013003233EE70123AB70DF
:1023600002233AE7DDF80490B9F1FF3F08BF5B4272
:102370002C2AEB607FF4B1AD4FF0010A8EE6F978BC
:1023800007F103086FF0004E012244E7BDF8143056
:102390002F2B7FF40CAF1FE7B278A2F13007FBB20E
:1023A000092B0CF1030C7FF631AE96E59DF8143045
:1023B000002B7FF401AF0FE7F97807F103084FF026
:1023C000004E4FF0FF3226E7B278A2F13007FBB2A1
:1023D000092B0CF1030C3FF680AD4FF0FF394FF0A5
:1023E000004B17E6A1F12002D2B249F20103D3401B
:1023F000DA077FF572ADA2E75F297FF46EAD9EE745
:1024000053543A505A542F00CDCCCCCC4AB10B0681
:1024100007D4022801D830B9704780F08003022B1E
:1024200001D90020704700234FF0020C53609360E5
:10243000D0711360D36082F804C01172012070471C
:102440004FFA80FCBCF1000F19DDC3B14FF0000C56
:10245000C3F809C0C3F805C000F5C060C3F80CC0DC
:102460004FF0080C186083F804C0080A4FF0400CC5
:10247000587283F807C019729A72012070470020C1
:10248000704700BF4FFA80FC10B4BCF1000F019CF4
:1024900014DDBCB100F5C060E3720023C4F8053060
:1024A000A2722060E36008202F220B0A2071E271E3
:1024B0002172637201205DF8044B704700205DF8C3
:1024C000044B704720465DF8044B70474FFA80FC80
:1024D00010B4BCF1000F019C16DDCCB1A272082231
:1024E00000F5C0602271E372D3400022C4F80520D9
:1024F000E26020600A0A2B20E0712172627223736D
:1025000001205DF8044B704700205DF8044B7047D4
:1025100020465DF8044B70474FFA80FC10B4BCF1C4
:10252000000F019C1ADDECB1A272082200F5C06018
:1025300022710022E260C4F8052020600A0A2320EC
:10254000E372E0716272180A1A0C1B0E207321727A
:102550006273A37301205DF8044B704700205DF89F
:10256000044B704720465DF8044B7047002833D079
:10257000002931D0436823F07F43082B2CD1036816
:102580006FF4B06C63447E2B26D800230B604B6045
:102590008B60CB600368803B4B7003894B80837AF0
:1025A0000B71C379602B19D0802B1AD003F0E00295
:1025B000402A11D19A070FD502220A70DA0743BFC9
:1025C000C3F38103C3F10403DBB204234B71D0F8DE
:1025D0000B308B60012070470020704701230B7087
:1025E000F8E703230B70D0F80B30CB60F2E700BFA5
:1025F0000A2924D840F29A73CB40844613F0010094
:102600001CD04FFA8CF3002B19DDC2B100B50CF5CC
:10261000C0634FF0080C4FF0000E136082F804C046
:10262000602346F22F0CC2F809E0C2F805E0C2F8B8
:102630000CE0A2F807C05372D17200BD70470020B1
:10264000704700BF43B2002B19DDC2B10023C2F8AE
:1026500009304FF0080CC2F80530D36000F5C060B7
:1026600044F22B031060A2F80730602021FA0CF32B
:10267000507282F804C0D172137301207047002099
:10268000704700BF43B2002B17DDB2B1002300F545
:10269000C060C2F80930C2F80530D3604FF0080CB2
:1026A0001060602347F62320A2F8070082F804C0D8
:1026B0005372C2F80B10012070470020704700BF12
:1026C00043B2002B17DDB2B1002300F5C060C2F8A1
:1026D0000930C2F80530D3604FF0080C1060602359
:1026E0004FF62370A2F8070082F804C05372C2F8B4
:1026F0000B10012070470020704700BF43B2002B31
:1027000019DDC2B10023C2F80930C2F80530D36028
:1027100000F5C06047F22B134FF0080C1060A2F8D0
:1027200007306020C1F30723507282F804C0D172D1
:102730001373012070470020704700BF43B2002B85
:1027400017DDB2B1002300F5C060C2F80930C2F84D
:102750000530D3604FF0080C1060602348F223105E
:10276000A2F8070082F804C05372C2F80B100120CF
:1027700070470020704700BF43B2002B17DDB2B195
:10278000002300F5C060C2F80930C2F80530D360FC
:102790004FF0080C1060602348F22330A2F80700C5
:1027A00082F804C05372C2F80B1001207047002059
:1027B000704700BF43B2002B17DDB2B1002300F514
:1027C000C060C2F80930C2F80530D3604FF0080C81
:1027D0001060602348F22340A2F8070082F804C08A
:1027E0005372C2F80B10012070470020704700BFE1
:1027F00043B2002B15DDA1B10023C1F80930C1F8A7
:10280000053000F5C0604FF0080C44F24012CB6078
:102810006023086081F804C0A1F807204B720120F2
:1028200070470020704700BF10F04F030CD0402BC2
:102830001DD000F06F00232808D00BD8072807D040
:1028400021280BD1032070470120704704207047D6
:1028500006207047272801D1052070470F2B08D08C
:10286000A3F10800B0FA80F04009C00070470220D0
:1028700070470720704700BF0238C0B206289ABFD1
:10288000024B33F810000020704700BF20DD000825
:10289000036800EE103A704703681BBA00EE103A66
:1028A000704700BF18B1242200210AF0E6B9704732
:1028B000002800F0898008B51346A2B10278062AE4
:1028C00000F29480DFE802F02A652F4104551100E0
:1028D0000D2976D0A1F1AA01B1FA81F149090023AD
:1028E000017080F82230022008BD0A2990F82220C9
:1028F0006CD0931C202BEDD800EB020C013250FA67
:1029000082F24FF00D0E8CF802E04FF0030C80F8CD
:102910002230917080F800C0002008BDAA2904BFB1
:1029200001230370F8E78A1ED2B20023332A4170D4
:1029300080F8223034D8304B9B5C002B14BF03222C
:10294000042280F823300270E6E790F823C0BCF13F
:10295000FF0F27D090F822301F2BBBD85A1CD2B2C1
:102960000344944580F822209970D5D10423037044
:10297000D2E70A29AED14278002101701A7090F88E
:10298000222083F82120811C581C0AF008FA01201B
:1029900008BD552912D0AA29BED000230370BBE779
:1029A0000422CEE70D291ED090F822301F2B91D89B
:1029B000C218013380F822309170ADE70223037012
:1029C000AAE705230370A7E70220704741784FF07C
:1029D000000C80F800C0197083F82120811C581C5D
:1029E0000AF0DDF9D3E70623037095E724220021DE
:1029F0000AF043F977E700BF30DD0008F8B51C4660
:102A000083B1202A15460DD8069B571D9F4209D831
:102A10005AB1A9B145F2AA53A0702380E01C0AF074
:102A2000BEF906E000273846F8BD45F2AA532380D8
:102A3000A0702C4440F60D23A4F803303846F8BDAE
:102A40000F46F0E751B145F2AA5C0D220A238870C7
:102A5000A1F800C0CA700B71052070470846704786
:102A6000431E022B0DD861B1042345F2AA5C0D224E
:102A70008B700A23C870A1F800C00A714B71062040
:102A800070470020704700BF0246A8B3A9B308B53D
:102A900090F82130182B2DD10378062B03D026D99E
:102AA000333B022B26D8501CFFF7F2FE501D81ED60
:102AB000000AFFF7EDFE02F1090081ED010AFFF7C0
:102AC000E7FE02F10D0081ED020AFFF7E1FE02F1DF
:102AD000110081ED030AFFF7DBFE02F1150081ED25
:102AE000040AFFF7D5FE012081ED050A08BD023B6F
:102AF000012BD8D9002008BD70470846704700BF99
:102B000070B5044628B115461AB190F82130182B3B
:102B100001D0002070BD0129FBD80378062B03D01B
:102B200024D8023B012BF4D801290CBF114E124EC0
:102B3000601CB047601D85ED000AB04704F1090034
:102B400085ED010AB04704F10D0085ED020AB0479A
:102B500004F1110085ED030AB04704F1150085ED7D
:102B6000040AB047012085ED050A70BD333B022BF6
:102B7000CFD8D9E79928000891280008034610B15A
:102B80000AB10F2901D000207047017811F0FB0035
:102B9000F9D193F801C01CF0FD0C29D198790828CF
:102BA00025D8D3F8020000BA19B3B0F1005F1ED2E5
:102BB000002151609160D16010601978A1F1040189
:102BC000B1FA81F1490951715978A1F10201B1FAC3
:102BD00081F14909917199791171D3F80710D3F8EE
:102BE0000B30C2F80B300120C2F807107047604666
:102BF0007047B0F5006FDBD3C5E700BF78B369B3AA
:102C00000379082B2AD84379026823BBB2F5006FF9
:102C100024D200230B604B608B60C1F80B304379EA
:102C20009B000B7083795B004B7003684B714FEA1C
:102C3000136C1A0C1B0A81F802C0CA700B7103795D
:102C40008B71D0F80730D0F80B20C1F80B20C1F8F9
:102C500007300F207047B2F1005FDAD300207047D1
:102C6000034620B1426802F0FF12082A01D000207A
:102C7000704740791A68F0B96FF4C0610A447E2A3F
:102C8000F6D8DA792B2AF3D19A7A002AF0D1DA68C9
:102C900022F07F4222F0FF02002AE9D1198946F290
:102CA00040029142E4D1B3F80B0020F00200B0FAE8
:102CB00080F040097047C2F304610429D7D112F0B3
:102CC000FF00D5D01006D2D4DA79012ACFD898687F
:102CD0000028CCD19A89002ACAD1987BB0FA80F01A
:102CE00040097047002800F092812DE9F041144618
:102CF000B0B032B14B1EBE2B0E4602D8C35C2F2B98
:102D000003D0002030B0BDE8F0810A460146684695
:102D10000AF045F80DEB06010023C4F80130A04E7F
:102D20000B706D466360684609E010F8013C3A2B71
:102D300061D81F2B55D84BB1092B07D001309949C9
:102D400009F0A3FF002859D0A842EED183782F2B99
:102D5000F4D1012020702846934909F096FF0346DC
:102D6000002800F0B980AB4211D013F8012C3A2AA8
:102D700003F1010000F29E80894EA2F12001C9B248
:102D80001F2A26FA01F658D80AB1092AE4D1987800
:102D90002B2858D02D2800F0FB80023347F6FF7E09
:102DA0004FF00108A0F13001CAB2092AA9D87F4F1B
:102DB000002208E05878A0F130015FFA81FCBCF1F4
:102DC000090F47D83346AEEB0100A7FB00C002EB6A
:102DD0008206B2EBD00F01EB460203F10106E9DDFA
:102DE0008FE7203BDBB226FA03F3DF07A6D5837813
:102DF0002F2BA3D1ADE75F2BA0D1A7E7684E2846C4
:102E000009E010F8013C3A2B1AD81F2B0ED84BB111
:102E1000092B07D00130664909F037FF002899D007
:102E2000A842EED103792F2BF4D192E7203BDBB2FD
:102E300026FA03F3D907EDD5F4E7F2078CD5A6E718
:102E40005F2BE7D1EEE7D87847F6FF7E03334FF0EC
:102E50000108A7E708FB02F25F28628002D02C2855
:102E60007FF44FAF70782B2800F0A8802D2800F059
:102E7000B680023347F6FF774FF00108A0F130012A
:102E8000CAB2092A3FF63DAFDFF820C1002206E0B2
:102E900013F8010FA0F13001CEB2092E0ED8781A26
:102EA000ACFB00E002EB8206B2EBD00F01EB460276
:102EB000EEDD26E75F2A7FF44FAF68E708FB02F2FA
:102EC0003A28A28000F29B801F287ED810B10928E2
:102ED0007FF417AF012363702846364909F0D5FE09
:102EE000064690B1AE4210D016F8013C3A2B06F1DE
:102EF000010047D82A49A3F12002D2B21F2B21FAA0
:102F000002F139D80BB1092BE7D128462A4909F03B
:102F1000BCFE034600287CD0AB4210D013F8012C35
:102F20003A2A03F1010030D81D4FA2F12001C9B2A5
:102F30001F2A27FA01F722D80AB1092AE6D1002E62
:102F40006BD09E4228BF1E46B378303BDBB2012BCC
:102F50003FF6D7AEF2783A2A55D81F2A46D812B192
:102F6000092A7FF4CEAE0120A071E3712388002BE3
:102F700018BF40F00100C5E6CF07AED5C5E7F90799
:102F8000C4D5DCE75F2BA8D1BFE75F2ABED1D6E767
:102F9000D8784FF4004E03334FF0FF3802E700BFFC
:102FA0000190000438E000083CE00008CDCCCCCC17
:102FB0002CE0000840E0000844E00008D87847F61C
:102FC000FF7703334FF0010858E7154AA0F12003BB
:102FD000DBB222FA03F3DB077FF593AE7AE7D8780A
:102FE0004FF4004703334FF0FF3847E70C49203ACE
:102FF000D2B221FA02F2D2077FF583AEB3E75F289F
:103000007FF47FAE66E75F2A7FF47BAEABE70020FC
:103010007047002E98D13046A8E71E4694E700BFBF
:103020000190000406289DBF034B00EB800003EBDA
:1030300080000020704700BF64DD0008000642EAFF
:10304000012200F0F8501043704700BF062800F23C
:103050005B81002A00F05881002B00F055814FFA67
:1030600081FCBCF1000F40F34F8192ED007ADFED5F
:10307000AB7AF0EEC76AF4EE676AF1EE10FA00F28E
:103080004381D2ED016AB0EEE66AB4EE676AF1EE12
:1030900010FA00F2398192ED026AF0EEC65AF4EEAF
:1030A000675AF1EE10FA00F22F81D2ED035AB0EE1A
:1030B000E55AB4EE675AF1EE10FA00F2258192ED6E
:1030C000045AF0EEC54AF4EE674AF1EE10FA00F247
:1030D0001B81DFED937AB4EEE77AF1EE10FA00F19E
:1030E0001381DFED907AB4EEE77AF1EE10FA00F397
:1030F0000B8110B48C4C00EB800C04EB8C0CDCEDE1
:10310000007AB1EE677AF4EEC76AF1EE10FA00F1D8
:10311000FD80F4EEE76AF1EE10FA00F3F780DCEDE3
:10312000016AF1EE664AB4EEE46AF1EE10FA00F1DB
:10313000ED80B4EEE66AF1EE10FA00F3E780F5EE0A
:10314000C05AF1EE10FA00F1E1809CED034AF4EE72
:10315000C45AF1EE10FA00F3D980B5EEC05AF1EE80
:1031600010FA00F1D3804FF0140C0CFB0044D4EDA6
:10317000043AB4EEE35AF1EE10FA4FF0000000F317
:10318000C080186058609860D86092ED026AF4EED2
:10319000C64AF1EE10FA08DCB4EEE66AF1EE10FA77
:1031A000D4BFF0EE464AF0EE664A36EEA46ADFED92
:1031B0005F5A76EEA66A26EE256AF6EE004AC6EE5D
:1031C000265A4FF48470988092ED005ADFED546ACD
:1031D00035EEA46AB4EEE65ABCEEC66AF1EE10FA19
:1031E00016EE100A80B241EA002141F080711960A8
:1031F00008D4DFED4C6AB4EEE65AF1EE10FAD8BF0F
:10320000F0EE456ADFED475A9FED486A9FED485A58
:1032100076EEA56AF6EE005A66EE866A86EE856A56
:1032200076EE256AFCEEE66A16EE901AC1F30720E8
:10323000D8711972D2ED016AB4EEE67AF1EE10FAA5
:1032400008DCF4EEE76AF1EE10FAD4BFB0EE667A6D
:10325000B0EE677A37EE877ADFED346A77EEA77AD9
:1032600027EE267AB6EE006AC7EE276A76EE867AF1
:10327000FCEEE77A17EE901AC1F3072058729972A4
:10328000D2ED037AF5EEC07AF1EE10FA43D4F4EE03
:10329000C47AF1EE10FAC8BFF0EE447A9FED237ABB
:1032A00067EE877AF6EE006A87EE847A77EE267A02
:1032B000FCEEE77A17EE901AC1F30720D872197363
:1032C000D2ED047AF5EEC07AF1EE10FA20D4F4EEE5
:1032D000E37AF1EE10FAC8BFF0EE637A9FED137A4D
:1032E00067EE877AF6EE006A87EEA37A012077EE22
:1032F000267AFCEEE77A17EE902AC2F3072159737B
:103300009A735DF8044B7047002070470020F8E77F
:10331000DFED087AE2E7DFED077ABFE7FFFF7F7FA7
:10332000B81E49C1B81E494164DD000800FF7F474F
:10333000B81EC9410000000092B143B2002B0FDD5E
:1033400040EA0120002340F040704FF48471106087
:10335000C2F80630C2F80A30D3819180012070474C
:1033600000207047ABB14FFA80FCBCF1000F10DDBC
:1033700040EA01200021C3F8061040F08060C3F845
:103380000A10D9814FF4847118609980DA71012094
:1033900070470020704700BFBAB143B2002B14DD64
:1033A00000B540EA01210023012041F0C0614FF443
:1033B000847CC2F8063002F1060EC2F80A30D381CE
:1033C000A2F804C01160D07100BD0020704700BF9A
:1033D00071B10002002340F07F004FF48472086056
:1033E000C1F80630C1F80A30CB818A8001207047CD
:1033F00008467047A2B143B2002B11DD002340EA1A
:103400000120C2F8063040F080604FF48471C2F8A9
:103410000A30D381C4231060918013720120704759
:1034200000207047E3B14FFA80FCBCF1000F17DDBC
:103430004FFA81FCBCF1000F12DD42EA012212B208
:1034400040EA022040F0E06000224FF484711860EE
:10345000C3F80620C3F80A20DA819980012070475A
:1034600000207047DAB143B2002B18DD10B50D4CC7
:1034700040EA012303CC4FF0000C43F0B0534FF46B
:103480008474C2F806C0A2F80EC0C2F8070002F1A8
:10349000060E94801360C2F80B10012010BD0020AE
:1034A000704700BF48E0000802F1FF3CBCF1030F89
:1034B00001D900207047002BFBD04FFA80FCBCF1F3
:1034C000000FF6DD30B50C4C5A7340EA01214FF085
:1034D000000C2068A488C3F806C041F0B8514FF42E
:1034E000847EC3F80700A3F80EC01960A3F804E0B7
:1034F000A3F80B40012030BD54E00008F3B14FFAAF
:1035000080FCBCF1000F19DD30B50D4C5A7340EA58
:1035100001214FF0000C2068A488C3F806C041F0D8
:10352000C0514FF4847EC3F80700A3F80EC01960A1
:10353000A3F804E0A3F80B40012030BD0020704741
:1035400054E00008022A01D900207047002BFBD06C
:103550004FFA80FCBCF1000FF6DD30B50C4C5A730D
:1035600040EA01214FF0000C2068A488C3F806C08F
:1035700041F0C8514FF4847EC3F80700A3F80EC091
:103580001960A3F804E0A3F80B40012030BD00BF90
:1035900054E00008C3B14FFA80FCBCF1000F13DD0A
:1035A00040EA01200021C3F8061040F08850C3F81B
:1035B0000A10D9814FF4847C110A1860A3F804C062
:1035C000DA7119720120704700207047DFED147A1C
:1035D000B0EEC07AB4EE677AF1EE10FA1DD8E3B11E
:1035E0004FFA80FCBCF1000F17DD40EA01200021FA
:1035F000C3F80610C3F80A10D981DA71110A10EE67
:10360000102A40F090504FF4847C1860A3F804C056
:103610001972C3F80B20012070470020704700BFCB
:10362000FFFF7F7F10B5029CDCB14FFA80FCBCF13C
:10363000000F16DD40EA01200021C4F80610C4F88E
:103640000A104FF4847CE181110A40F09050A4F8F4
:1036500004C0E2712172E372206004F1060E0120C1
:1036600010BD002010BD00BF062818D8BAB1B3B1F4
:103670008446507998B110B5546804F0FF1EBEF12D
:10368000080F0AD114685FFA84FE8E4505D13749C8
:10369000C4F30464E140C90703D4002010BD002036
:1036A00070470021196059609960D96019611168EB
:1036B000090A4CB2002C1970EFDDC1F30524C1F3E7
:1036C00081319C705970B2F807109FED297A9FEDF7
:1036D000296ADFED293A9FED295A49BA89B207EEE6
:1036E000901AF8EE677A264967EE877A0CEB8C0C15
:1036F00087EE867A01EB8C01D1ED005AD1ED016A9B
:1037000077EE637A35EEA54AC3ED017AB2F8091077
:1037100049BA89B207EE901AF8EE677A76EEA64AB1
:1037200067EE847A87EE867A77EE657AC3ED027A61
:10373000B2F80B1049BA89B207EE901AF8EE677A20
:1037400067EEA47A87EE867A77EE667AC3ED037A1F
:10375000B2F80D2052BA92B207EE902AF8EE677ACC
:1037600067EE857AC3ED047A10BD00BF0400000146
:10377000B81EC94100FF7F47B81E4941CDCCCC3DA2
:1037800064DD000899B192B10346487978B110B46C
:103790004C6804F0FF1CBCF1080F04D10C685FFA00
:1037A00084FC9C4505D000205DF8044B7047002048
:1037B0007047C4F30464112CF5D1002313605360E7
:1037C0009360D3600B6814701B0A5CB2002C5370BA
:1037D000E9DDC3F30723B3FA83F35B099370B1F810
:1037E00007309380D1F80B309360D1F80B30D36061
:1037F000DAE700BF034600B3F9B14079E8B15A688F
:1038000002F0FF12082A18D11A6812F0F85F14D1DA
:103810005FFA82FCBCF1FE0F0FD1120A4FFA82FC54
:10382000BCF1000F0A7008DDD3F80720D3F80B3085
:10383000C1F80530C1F8012070470020704700BF73
:10384000A1B19AB10346487980B110B44C6804F034
:10385000FF1CBCF1080F05D10C6804F0F85CBCF14A
:10386000A85F05D000205DF8044B7047002070472A
:103870005FFA84FC9C45F5D1240A63B2002B1470D6
:10388000F0DDD1F807305360D1F80B309360EAE7F0
:10389000A1B19AB10346487980B110B44C6804F0E4
:1038A000FF1CBCF1080F05D10C6804F0F85CBCF1FA
:1038B000007F05D000205DF8044B70470020704762
:1038C0005FFA84FC9C45F5D1CB79002BF2D1B1F89D
:1038D00008C045F2C4639C45ECD1240A63B2002BB6
:1038E0001470E7DDD1F80A301BBA5360E3E700BF7C
:1038F000B8B3A9B301391B4B00F1FF3C4FF0FF32C5
:1039000008441CF8011F4A4042F30001194081EAB3
:10391000520141F300021A4082EA510242F30001CF
:10392000194081EA520141F300021A4082EA510231
:1039300042F30001194081EA520141F300021A40AA
:1039400082EA510242F30001194081EA520141F337
:1039500000021A40844582EA5102D2D1D043704716
:10396000084670472083B8EDF0B5069CBDF814609A
:10397000002C00F09880B6F5807F00F29480079FBD
:10398000054606F11000B84200F28D80002E40F08E
:103990008C804FF0000C65F3070C61F30F2C090AC3
:1039A00061F3174C350A002165F3070162F30F211B
:1039B000150A65F31741150C120EE27245F25572A5
:1039C00066F31F6C65F31F6122800122C4F803C0F7
:1039D000C4F80710A27066B3721E052A6AD9C3F133
:1039E0000B01214402291A4664D94FEA960C03EBD5
:1039F0008C0C04F10C0152F8045B41F8045B944513
:103A0000F9D1B20715D026F00302511CA51889B2CE
:103A100013F802C085F80CC08E4292B209D965181D
:103A2000023292B2595C2973964282BF9B5C121992
:103A3000137304F10B0E4FF0FF32244B06F10C050B
:103A4000B64404EB020C1CF8011F514041F3000284
:103A50001A4082EA510242F30001194081EA520100
:103A600041F300021A4082EA510242F30001194078
:103A700081EA520141F300021A4082EA510242F304
:103A80000001194081EA520141F300021A4082EA22
:103A9000510242F300011940E64581EA5202D2D1B7
:103AA000D2436251F0BD0020F0BD002B7FF471AF16
:103AB0001846F0BD04F10B0E72469D1913F8011B58
:103AC00002F8011F9D42F9D1B5E700BF2083B8ED90
:103AD000002860D0002A5ED00F295CD90378552BCE
:103AE0005BD14378572B58D18378012B57D170B5D0
:103AF000C488B4F5807F04F1100352D8994250D1A4
:103B0000014404F10B05294B51F8046C00F1FF3E10
:103B100005444FF0FF311EF801CF8CEA010C4CF345
:103B20000001194081EA5C0141F3000C0CEA030C2E
:103B30008CEA510C4CF30001194081EA5C0141F31D
:103B4000000C0CEA030C8CEA510C4CF300011940F8
:103B500081EA5C0141F3000C0CEA030C8CEA510C85
:103B60004CF30001194081EA5C0141F3000C0CEABE
:103B7000030CAE458CEA5101CDD1C943B14212D1FB
:103B8000C378137083885380836894810C30C2E9B2
:103B90000130002070BD01207047022070470320D3
:103BA0007047042070BD052070BD00BF2083B8EDB4
:103BB00080B369B30378102B2AD1826842B383891A
:103BC0001C2B25D12DE9F04313780B7092F801C01E
:103BD00081F801C092F802E081F802E0D478CC705C
:103BE00055684D60D2F80890C1F80890D2F80C8062
:103BF000C1F80C8017690F6156694E61581E138B0E
:103C00000B83528B4A83012805D90020BDE8F0833D
:103C10000020704770470CF1FF3CBCF1010FF4D855
:103C20004FFA8EFEBEF1000FEFDD082CEDD807EE47
:103C3000905A9FED1B7AF0EEE77AF4EE477AF1EEB8
:103C400010FAE2D807EE909AF0EEE77AF4EE477AAF
:103C5000F1EE10FAD9D807EE908AF0EEE77AF4EE9A
:103C6000477AF1EE10FAD0D807EE907AF0EEE77AC4
:103C7000F4EE477AF1EE10FAC7D807EE906AF0EE4C
:103C8000E77AF4EE477AF1EE10FABED8A3F1140009
:103C900080B241F2743398428CBF00200120B5E716
:103CA000FFFF7F7F002846D0002943D003780B70A8
:103CB00043784B7083788B70C378CB7043680B71FB
:103CC0004FEA132C1A0C1B0E81F805C08A71CB71B8
:103CD00083680B724FEA132C1A0C1B0E81F809C073
:103CE0008A72CB72C3680B734FEA132C1A0C1B0E2B
:103CF00081F80DC08A73CB7303690B744FEA132CE0
:103D00001A0C1B0E81F811C08A74CB7443690B75B1
:103D10004FEA132C1A0C1B0E81F815C08A75CB754F
:103D2000038B0B761B0A4B76438B8B761B0ACB7669
:103D30001C2070470846704753B94AB9002908BF8C
:103D400000281CBF4FF0FF314FF0FF3000F088B962
:103D5000ADF1080C6DE904CE00F006F8DDF804E0E2
:103D6000DDE9022304B070472DE9F047089D0F46B6
:103D700004468C46002B48D18A42164661D9B2FAD5
:103D800082F34BB1C3F1200201FA03FC20FA02F2E4
:103D90009E4042EA0C0C9C404FEA164EB7B2BCFB68
:103DA000FEF1220C0EFB11CC42EA0C4201FB07F0A3
:103DB000904209D9B21801F1FF3C80F0EE809042A8
:103DC00040F2EB8002393244121AA4B2B2FBFEF088
:103DD0000EFB102244EA024400FB07F7A74209D970
:103DE000341900F1FF3280F0DA80A74240F2D78028
:103DF0003444023840EA0140E41B00211DB1DC409C
:103E00000023C5E90043BDE8F0878B4206D90DB118
:103E1000C5E9000100210846BDE8F087B3FA83F147
:103E2000002948D1BB4202D3824200F20781841AA2
:103E300067EB030201209446002DE4D0C5E9004C55
:103E4000E1E7002A00F09280B2FA82F3002B40F002
:103E5000A8808A1A4FEA164E1FFA86FC0121200C10
:103E6000B2FBFEF70EFB172240EA02420CFB07F002
:103E7000904207D9B21807F1FF3802D2904200F2FF
:103E8000E2804746121AA4B2B2FBFEF00EFB1022EB
:103E900044EA02440CFB00FCA44507D9341900F1A4
:103EA000FF3202D2A44500F2CB801046A4EB0C04F2
:103EB00040EA0740A2E7C1F120068B4022FA06FC47
:103EC0004CEA030C07FA01F420FA06F3F7404FEA34
:103ED0001C49234300FA01F81FFA8CFEB7FBF9F0E6
:103EE0001C0C09FB107744EA074400FB0EF7A742BD
:103EF00002FA01F20AD91CEB040400F1FF3A80F047
:103F00009B80A74240F2988002386444E41B9FB231
:103F1000B4FBF9F309FB134447EA044403FB0EFE28
:103F2000A64509D91CEB040403F1FF3780F0828019
:103F3000A6457FD9023B644443EA0040A4EB0E044B
:103F4000A0FB02E7BC427346B94663D360D05DB1C3
:103F5000B8EB030264EB090404FA06F622FA01F353
:103F60001E43CC40C5E9006400214CE762084808C4
:103F700042EAC1710B0C43EA00438AB242EA0342AF
:103F8000B3FBF6F1E407B4463746B6461F23B0FB51
:103F9000F6F0D21B41EA004161E7614614E71046A2
:103FA00028E7C3F1200120FA01F29E4027FA01F12F
:103FB0009F403A434FEA164E1FFA86FCB1FBFEF7CC
:103FC0000EFB1710110C41EA004107FB0CF8884565
:103FD00004FA03F43AD9711807F1FF3001D2884589
:103FE0001FD8A1EB0801B1FBFEF808FB0CF70EFB94
:103FF000181192B242EA0142BA422FD2B21808F125
:10400000FF31C6D2BA42C4D2A8F102013244C0E79D
:10401000F0459CD2BEEB020367EB0C070138B946B2
:1040200095E7A6EB08084144B81EB1FBFEF808FB73
:104030000CF7DCE73B467FE7504667E70846FBE6C0
:104040003444023832E7023F32441BE7A1EB080157
:104050003846B1FBFEF808FB0CF7C8E7414698E785
:10406000704700BF034613F8012B002AFBD1181A32
:104070000138704700000000000000000000000050
:1040800001F0FF01102A2BDB10F0070F08D010F809
:10409000013B013A8B422DD010F0070F42B3F6D10D
:1040A000F0B441EA012141EA014122F007047FF026
:1040B00000070023F0E80256083C85EA010586EA7D
:1040C000010685FA47F5A3FA87F586FA47F6A5FAB9
:1040D00087F68EB9EED1F0BC01F0FF0102F00702C5
:1040E00032B110F8013B013A83EA010313B1F8D170
:1040F0000020704701387047002D06BF3546033851
:10410000073815F0010F07D1013015F4807F02BF89
:10411000013015F4C03F0130F0BC0138704700BFDA
:10412000DFF834D000F018FF0C480D490D4A002389
:1041300002E0D458C4500433C4188C42F9D30A4A5C
:104140000A4C002301E013600432A242FBD308F0C2
:10415000FFFD00F0C1FD70470000022000000020BC
:104160008000002074E4000880000020A89800204F
:10417000FEE7000070B58AB004460E4628220021F2
:10418000684608F07AFD00250323C4E901354FF4A1
:1041900000224FF44013C4E904234FF00123A3612C
:1041A0004FF480732660E560A383204602F00AFF87
:1041B000C8B90E4B04909E4214BF0E262E46012312
:1041C000CDE90560CDE90000CDE902000793089331
:1041D00069460E232046099302F070FFB0FA80F082
:1041E00040090AB070BD2846FBE700BF00640040EC
:1041F00070B588B006461422002103A808F03DFDE2
:104200000025474B00951A6B464842F002021A639C
:104210001A6B02F002020092009A01951A6B42F0AA
:1042200010021A631A6B02F010020192019A0295B1
:104230001A6B42F040021A631B6B03F040030293B7
:104240002A460421029B04F013FA36480122182161
:1042500004F00EFA344801224FF4007104F008FA19
:104260002A463248012104F003FA01241C232D4878
:1042700003A9CDE90334CDE9055504F021F94FF444
:1042800000732948039303A904F01AF9022327486D
:10429000039403A9069304F013F9F20704D5244903
:1042A0002448FFF767FF0446B30706D52249234891
:1042B000FFF760FF00EA0403DCB2750715D520495B
:1042C000204B0B604FF4E1200023C1E901030C22D5
:1042D0000846C1E90333C1E90523CB6104F030FD91
:1042E000002814BF002404F00104310715D5164935
:1042F000164B0B604FF4E1220023C1E9012308466D
:104300000822C1E90333C1E90523CB6104F018FD9C
:10431000002814BF002404F00104204608B070BD3A
:104320000038024000100240001802400004024021
:1043300000640040B80100200068004090010020A7
:104340004801002000140140000100200048004006
:10435000C20738B505461FD5114802F035FFC8B968
:104360000F4848F2024103F044F8B0FA80F46409BF
:10437000AB070DD50B4802F027FF78B9094848F282
:10438000024103F036F8002814BF002404F00104B1
:10439000204638BD0024EBE70124E9E70024F7E7D5
:1043A000B80100209001002082B00D4B0021009147
:1043B0005A6C42F480425A645A6C02F48042009271
:1043C000009A01911A6C42F080521A641B6C03F03F
:1043D00080530193019B032002B003F03FB900BF5B
:1043E000003802400F20FFF703BF0F20FFF7B0BFD8
:1043F00008B500220421084804F03AF9022002F02E
:10440000C7FD05480122042104F032F9BDE8084047
:10441000322002F0BDBD00BF001002400A4638B194
:10442000012807D11021054882F0010204F020B9CB
:104430000821F8E702484FF40071F5E70010024048
:104440000018024028B1012805D11021044804F0C9
:1044500014B90821FAE703484FF40071F7E700BFE9
:104460000010024000180240EFF3108072B6BFF354
:104470005F8F7047BFF35F8F80F31088704702F043
:1044800087BD0000F0B589B00C46064617460021EE
:10449000182202A808F0F1FB14B9002009B0F0BD01
:1044A0002279082AF9D8731E012BF6D8164B174D1E
:1044B0006179012E08BF1D462368B9B1042104911A
:1044C0000393A3795B00CDE9053202F05BFD06465C
:1044D000284602F0EFFE60B101ABE21D02A92846BA
:1044E00002F09DFEB0FA80F04009D7E702930B4638
:1044F000E6E702F047FD801BB842CED2284603F023
:1045000098F80528E4D1C8E7B80100209001002000
:104510000A4610B5014648B142B1064C0648002390
:10452000237004F01BFF012310B12370002010BD85
:104530001846FCE79C0000204801002038B50B46D7
:104540001446014670B16BB162B1094D2878002262
:10455000227050B12A7007481A4604F0FFFE01236A
:1045600010B12B70002038BD23700120FBE700BF85
:104570009C00002048010020024648B1054B1B6802
:10458000586880B228B1824202D9101A80B27047AE
:1045900000207047A000002070B50C461646054666
:1045A000A0B1A1B1012211460A4804F061F82246E7
:1045B00033462946084804F0F2FB00220446012154
:1045C000044804F055F8B4FA84F0400970BD084678
:1045D000FCE700BF000402404801002010B513466C
:1045E0000C46014638B13CB10448224604F0D7FBE2
:1045F000B0FA80F0400910BD2046FCE70001002021
:1046000010B58AB00223069303210923CDE90813CC
:10461000354A036800249342059407942BD1334B09
:1046200000941A6C324842F000721A641A6C02F05C
:1046300000720092009A01941A6B42F008021A6309
:104640001B6B059103F00803019305A9019B03F07F
:1046500037FF22460521142003F012F8142003F03E
:1046600041F816202246052103F00AF8162003F02F
:1046700039F80AB010BD1F4A9342FAD11B4B02947D
:104680001A6C1D4842F000721A641A6C02F0007233
:104690000292029A03941A6C42F080621A641A6CB5
:1046A00002F080620392039A04941A6B42F00202B1
:1046B0001A631B6B03F002030493049B05A94FF4D8
:1046C0004053059303F0FCFE22460521402002F0F2
:1046D000D7FF402003F006F842202246052102F0D1
:1046E000CFFF4220C3E700BF006400400038024013
:1046F000000C0240006800400004024070B5142223
:104700008AB0064600210DEB020008F0B6FA3368C5
:10471000424A934224D1424B4248002100911A6CF4
:1047200042F480221A641A6C02F480220092009AE9
:1047300001911A6B42F002021A631B6B03F0020331
:104740000193019B4FF4406E0223CDE905E3032260
:10475000072305A9CDE9082303F0B2FE0AB070BD16
:10476000314A9342FAD12E4B3048314C0025029504
:104770005A6C42F020025A645A6C02F020020292F3
:10478000029A03951A6B42F004021A631A6B02F044
:1047900004020392039A04951A6B42F480021A638E
:1047A0001B6B03F480030493049BC0220223CDE916
:1047B000052301210323CDE90713082305A9099344
:1047C00003F07EFE1B48A5614FF02063C4E900039F
:1047D0004FF48063C4E904354FF4807C4FF4003318
:1047E0002046C4E90255C4E907C3656202F0B8FF78
:1047F00008B100F06AFA00220621F4633920A663AA
:1048000002F03EFF392002F06DFF00220621472012
:1048100002F036FF472002F065FF9FE700480040A6
:104820000038024000040240001401400008024029
:10483000A00000202864024030B51F4B05688DB0F1
:1048400004469D4214BF022501250021204602F0A6
:10485000C1FD08B90DB030BD1022002101A808F03B
:104860000CFA0DF10B0305AA0021204602F036FDDB
:104870000028EFD1079A111F4B424B418DF80930A8
:10488000089B981E434243418DF80A30DDE905310B
:10489000042A08BF0B460193099B8DF8083002F0EB
:1048A00071FB01A90246284601F020FB01A9284618
:1048B00002F074FAC9E700BF0064004010B5074B6E
:1048C00004689C4214BF0224012402F0C5FE014684
:1048D0002046BDE8104001F07FBB00BF00640040EF
:1048E0000268034B9A4202BF024B01221A707047C2
:1048F000001401409C0000200020704770B58CB06F
:104900000D4630220021684608F0B7F96E466B4626
:104910002C4600225CB90F492B890F484D630522B4
:10492000C1E9013603F01EFC18B9204603E0042A51
:1049300003D16FF00B000CB070BD61681960618924
:1049400059600AB143F8043C246804B99C60013200
:104950000C33DFE7000200203802002008B50146D2
:10496000044804F065FF044B1A78012A04BF0022B2
:104970001A7008BD3CDF0008E802002002F002BB0C
:1049800008B5024803F072FD002008BD380200207F
:1049900008B513460A460146034803F0ADFC00384B
:1049A00018BF0120404208BD3802002008B5134658
:1049B0000A460146034803F0C4FC003818BF012032
:1049C000404208BD380200202DE9F341DFF838806D
:1049D00004460425002798F8003001971BB90948C0
:1049E00001A903F015FC019E4EB123692146304612
:1049F000984710B1304605F0EEF8013DEBD102B01A
:104A0000BDE8F08138020020E802002002F0BABAC6
:104A100030B58DB02C4C2D48002501950995236BA0
:104A200043F001032363236B03F001030193019B14
:104A30000295236B43F004032363236B03F0040309
:104A40000293029B0395236B43F040032363236B84
:104A500003F040030393039B8623079303230A93E6
:104A60000223089307A90B230B9303F029FD32239C
:104A700007A91748079303F023FD4FF4D0431548C7
:104A8000079307A903F01CFD0495236B43F0007303
:104A90002363236B03F000730493049B0595236B3E
:104AA00043F080632363236B03F080630593059BCE
:104AB0000695236B43F000632363236B03F00063CD
:104AC0000693069B0DB030BD003802400000024046
:104AD000000802400018024070B59AB064220446F3
:104AE000002101A808F0C9F81C4802F0B7F994F8B1
:104AF0002D305A070ED501280ADC194803F0FFFAB9
:104B0000204604F0A0FF204604F0C6FF1AB070BD96
:104B10005B07FBD40128F9DD831E032BF6D8114A6D
:104B20000F4832F81350104A01A932F8136003F00D
:104B30002BFC0B4801A9CDE9065603F08BFC00289D
:104B4000E4D1074803F0A4FA0028DFD1204604F09E
:104B50006BFF204604F087FFD8E700BFE00100208C
:104B60003802002034DF00082CDF000837B5044687
:104B700008B900F0AAF847F27343E385284B636154
:104B8000284BA361284B294A18689B88ADF804304C
:104B9000274B13604FF400039360264B1361264BA1
:104BA0000090D36010464FF4BF63C2F804D0536145
:104BB00003F072F9054658BB204A214B2148C4E94D
:104BC0000923062384F82C3094F82D3043F00A038F
:104BD00084F82D3004F0D9FD342229461A4808F013
:104BE0004CF8194A19491A48212342F8043C4FF459
:104BF0004003136102F0F0F850B9154802F000F9D3
:104C00000546204645B104F047FF204604F01BFF4F
:104C10006FF00B0003B030BDFFF75EFF2846F9E7E9
:104C2000F5A90008FD480008F0DD00083802002062
:104C300000800240D440002034400020DC050251B6
:104C40004D5557013CDF0008040200200000002001
:104C5000E001002013B504460C4804F0CBFD0346E8
:104C600078B100F120020A49226001614FF4BF616E
:104C7000CDE9002100214122084604F06FFF02B077
:104C800010BD044A206001211170F8E73CDF0008E4
:104C90005D490008E802002030B5002542F8205C9C
:104CA000A2F1200422F8185C22F8163C026822B90E
:104CB00004600C6002681AB930BD0A681460F8E735
:104CC0001189194411811268F5E708B572B60121FE
:104CD0000220FFF7A3FBFEE7F0B59BB002F02CF932
:104CE0001022002110A807F0C8FF1422002109A8F3
:104CF00007F0C3FF504B002104911A6C42F0805220
:104D00001A641B6C03F080530493049B4B4B059176
:104D10001A6842F480421A601B6803F480430593CA
:104D20000120059B4FF48033CDE90E0302244FF49C
:104D30008003CDE9144308254FF4A873CDE9165339
:104D40000EA807231894199303F0A0FC08B1FFF7ED
:104D5000BCFF0F234FF4A051CDE909344FF4805329
:104D6000CDE90C130B90052109A803F06BFE002878
:104D7000EDD102F021F9B0F5805F81BF304A1368B0
:104D800043F480731360FFF72DFB0028DFD0FFF79B
:104D90002CFB0028DBD000F001FFFFF729FB294A9C
:104DA000294E6FF07F43CDE9062303F5D433C13399
:104DB000089304F02EFB254B02930025244B01930E
:104DC0002148009508AB07AA06A904F0BDFD0028FC
:104DD000BDD0304604F022FE3046FFF77DFE01F0E4
:104DE000D9FE0028B3D02F4602F0CCF800F050FFD7
:104DF0003046FFF7E9FD05F039F902F0C3F8044643
:104E000001F036FF204601F015FCE31B632B0AD9A5
:104E10003046FFF761FE96F82D100120C1F38001A6
:104E2000FFF7FCFA2746631BB3F5FA7FDCD30020BB
:104E3000FFF708FB2546D7E7003802400070004026
:104E4000003C0240C0A8010A7441002019B60008C5
:104E50006D4B00087047FEE7FEE7FEE7FEE7704790
:104E60007047704708B502F081F8BDE8084002F0CD
:104E70005CBC0000014802F0D8BA00BFB8010020B5
:104E8000014802F0D2BA00BF90010020FFF7F2BF44
:104E9000FFF7F6BF014802F06BBD00BFA000002085
:104EA000014804F0B7B800BF480100200120704756
:104EB00008B507F047FF162303604FF0FF3008BD29
:104EC00008B507F03FFF16230360FEE770B50D46F7
:104ED00014460E46731B9C4201DC204670BDAFF3A6
:104EE000008006F8010BF5E770B50D4614460E4636
:104EF000731B9C4201DC204670BD16F8010BAFF31A
:104F00000080F5E74FF0FF3070474FF400534B60DF
:104F10000020704701207047002070470A4A03466E
:104F2000106810B508B9094810600949094C0344D4
:104F3000091B8B4206D907F005FF0C2303604FF0D5
:104F4000FF3010BD1360FCE7A8410020A8980020A6
:104F50000000022000040000034AD2F8883043F425
:104F60007003C2F88830704700ED00E00B0A017052
:104F700043700B0C090E8370C17070470A4B30B53B
:104F80001A4600241D7845B19D78854205D1DD780B
:104F90008D4202D102EB441030BD0134102C03F1DC
:104FA0002003EFD10020F7E7B042002070B505469E
:104FB0000E46FFF759FA2C7D54B16C7D44B1EB8A53
:104FC000022B09D1AB69F61AFA2E8CBF00240124FA
:104FD000FFF750FA204670BD0024F9E770B505468A
:104FE0000C46FFF741FA6B7906462BB90024304690
:104FF000FFF740FA204670BD2B69E31A002BF5DB62
:10500000AB79002BF2D02889FDF70EFC0528EDD1F5
:10501000EB68E41AFA2C8CBF00240124E7E7032292
:10502000FFF730BA30B5134B002285B004461A7032
:10503000114BC0781A70A378012B0D4611D16A4626
:105040000221FDF7FFFA88B160786946FFF7E7FFB4
:1050500060B120220021204607F00FFE012005B09C
:1050600030BD6B46FD21FEF77DF9ECE71435E561B7
:105070000020F4E7E4410020C441002010B581B1D4
:105080000C68052811D80A4B0328195C8CBF022034
:105090000120FFF773FF30B12146BDE81040FFF754
:1050A000C1BF0C46EDE7012010BD0020FCE700BFAA
:1050B00084DF0008F8B50B4B0B4D00241C700B4B24
:1050C00007461C7001262B7823B139462846FFF786
:1050D000A9FF06400134102C05F12005F3D130461C
:1050E000F8BD00BFE4410020B0420020C4410020D0
:1050F00010B5FFF794FF044610B10120FFF7BFF988
:10510000204610BD2DE9F0472DED028B90F803A04D
:105110001AF0FD058CB004460E4615D0BAF108070A
:1051200018BF012794F80190B9F1010F0ED123782F
:10513000012B07D194F90230002B03DD638BC3F3FD
:105140000E03B3B1022081E02F46EBE7B9F1020F65
:105150000FD120780228F5D194F90230002B75DDAB
:10516000638B47F6F872134270D103F00703072BE5
:105170006CD027B1B4F91A30002B80F22083A178CB
:105180004846FFF7FBFE804620B3B9F1020F21D15C
:105190002DB9638B027903F007039A42D2D1DFB9AC
:1051A0003D46B4F81A9009F007094846FDF73AFF62
:1051B000002800F05E82E378082B00F25A82DFE8D4
:1051C00013F0A901B701A901F501090260028502E6
:1051D000B302B401002F7CD0B04B002528461A46FC
:1051E00093F800C0BCF1000F26D093F802C0CC4564
:1051F00025D193F803C08C4521D102EB4013228BBB
:105200003244DA6122785A70628B02F007021A7116
:105210001D46B9F1010F2DD1AAF1040ABAF1020F0E
:1052200035D831462846FFF7D9FE18BB3146284607
:10523000FFF7F8FE072009E0002D08BF1D460130EA
:10524000102803F12003CBD12DB905200CB0BDEC03
:10525000028BBDE8F08701232B7023786B7085F8F3
:105260000290E970638B03F007032B71238B3344A7
:10527000EB61CEE76378022B09D1E378043B032B83
:1052800005D831462846FFF791FE0028CED0E378B6
:10529000012B0BD1FFF7E8F86378012B4FF00003E7
:1052A00006BF6B71AB71AB82FFF7E4F86378012B3B
:1052B0007FF477AFE378082B00F2DB81DFE813F0AF
:1052C0000B001E001800D9015D00C4000201D901C5
:1052D0001B003D46EAE707AA0021A078FDF7B2F9D6
:1052E000002800F0C68107A92078FFF798FEBDE1ED
:1052F00007AA0221F1E707AA8021EEE7A07807AA12
:105300000621FDF79FF9002800F0B381207807A956
:10531000FFF785FE002800F0AC81A07807AA0321E2
:10532000FDF766F9002800F0A481207807A9FFF7AF
:1053300076FE002800F09D81A07807AA0021FDF7E5
:10534000BFF9002800F09581207807A9FFF767FED4
:10535000002800F08E81A07807AA0721FDF772F9D6
:10536000002800F08681207807A9FFF758FE002862
:1053700000F07F8107AA0F21AFE794ED018ADFEDEE
:10538000487AB4EEE78AF1EE10FA00F17281DFEDAF
:10539000457AB4EEE78AF1EE10FA80F26A81D4ED34
:1053A000027AF5EEC07AF1EE10FA40F262819FEDDA
:1053B0003E7AF4EEC77AF1EE10FA80F25A81FCEEF2
:1053C000E77AA07817EE901A07AAFDF7B7F9002838
:1053D00000F04F81207807A9FFF721FE002800F098
:1053E0004881FDEEC87AA07817EE901A07AAFDF75B
:1053F00049F9002800F03D81207807A9FFF70FFE4A
:10540000002800F03681A07807AA0121FDF7F0F806
:10541000002800F02E81207807A9FFF700FE002861
:1054200000F02781A07807AA0F21FDF70BF90028CB
:1054300000F01F81207807A9FFF7F1FD002800F098
:10544000188107AA1F2148E7D4ED027A9FED147A4C
:10545000F4EEC77AF1EE10FA00F10B819FED117AAC
:10546000F4EEC77AF1EE10FA80F20381FDEEE77AEE
:10547000A07817EE901A07AAFDF722F9002800F08D
:10548000F880207807A9FFF7CAFD002800F0F18016
:1054900007AA0321A078FDF7ABF821E7B04200206E
:1054A000000000CF0000004F0000804F00007AC4D1
:1054B00000007A4400000000B81E49C1B81E4941EE
:1054C000FFFF7F7FD4ED037A1FED087AF4EEC77AF1
:1054D000F1EE10FA00F1CD801FED0B7AF4EEC77AF1
:1054E000F1EE10FA00F3C580FDEEE77AA07817EE32
:1054F000903A07AA19B2FDF701F9002800F0B98027
:10550000207807A9FFF78BFD002800F0B28007AADA
:105510000421BFE703AB0022A078FD21FDF722FFA5
:10552000002800F0A68003A9DEE603AB0122F3E722
:105530000DF10C09A0784B460022FD21FDF712FF6A
:10554000002800F0968020784946FFF768FD002883
:1055500000F08F80CDF80090A078032347F2050279
:10556000FD21FEF75FF8002800F08380207849468F
:10557000FFF7BEFD00287CD01FED320AA0784B4615
:1055800047F20602FD21FEF721F8002871D02078AD
:105590004946FFF7ADFD00286BD0A0784A46FD21B3
:1055A000FDF7CAFE002864D049469DE6A07803AB0B
:1055B0000022FD21FDF7D6FE00285AD0207803A94D
:1055C000FFF72DFD002854D0A07803AAFD21FDF798
:1055D000E3FEA5E7D4ED017A1FED497AF4EEC77A30
:1055E000F1EE10FA45D41FED4B7AF4EEC77AF1EEE6
:1055F00010FA3EDC94ED020AB5EEC00AF1EE10FAA4
:1056000037D9D0ED007AB4EEE70AF1EE10FA30DCCB
:105610000DF10C09A0784B46B0EEC00A47F2240207
:10562000FD21FDF7D3FF20B320784946FFF760FD49
:10563000F8B194ED010AA0784B4647F21602FD211D
:10564000FDF7C4FFA8B120784946FFF751FD80B1AE
:10565000CDF800900123A07847F20502FD21FDF767
:10566000E1FF30B120784946FFF742FD002840F0C5
:105670008380002D3FF4E9AD31462846FFF7D2FC88
:10568000E3E5D0ED007A94ED020AB1EE677AB4EE6C
:10569000C70AF1EE10FAECD4B4EEE70AF1EE10FA14
:1056A000E7DC0DF10C09A0784B4647F20A02FD2118
:1056B000FDF78CFF0028DCD020784946FFF718FD65
:1056C0000028D6D0CDF800900223C4E794ED030A59
:1056D0005FED857AB0EEC07AB4EE677AF1EE10FA3B
:1056E000C7D8D0ED027AB1EE677AB4EEC70AF1EE10
:1056F00010FABED4B4EEE70AF1EE10FAB9DC0DF1FF
:105700000C09A0784B4647F20602FD21FDF75EFF2B
:105710000028AED020784946FFF7EAFC0028A8D040
:10572000CDF80090032396E763680793A368089376
:10573000E36809930DF10C0A23690A936369CDF8B4
:1057400000A00B93A078002347F20502FD21FDF78E
:1057500069FF00288DD020785146FFF7C9FC00284A
:1057600087D0A178534607AA4846FDF76FFC00286A
:105770003FF47FAF5146B7E5ADB194F80390B9F16E
:10578000010F10D1FEF770FE6378012B05BF6B711E
:10579000238B85F8149006F5FA7602BF2E61F61871
:1057A000EE61FEF767FE17B9B8F1000F01D10020D6
:1057B0004CE520223946404607F05FFAF7E7032020
:1057C00044E500BF10B586B00C468DF81530BDF825
:1057D00020308DF816300A9B0293099B0193042315
:1057E0008DF8142000210093224605AB8DF8171088
:1057F000FEF7BAF806B010BD30B52DED028B0446A9
:1058000089B0B0EE408A39B9022300202D4A1370C6
:1058100009B0BDEC028B30BD0528F5D8DFED2A8A32
:10582000F0EEC07AF4EE687AF1EE10FAECD80D687A
:105830001422002102A807F020FA032C8CBF0223B7
:1058400001238DF804308DF80530204B1B5D8DF859
:1058500006304FF004038DF807301D4B07931ED818
:10586000DFED1C7A9FED1C0A08EE270AF0EEC07AE5
:10587000F4EE687AF1EE10FAC6D8B5EEC00AF1EE91
:1058800010FAC1D4DFED157AB4EEE70AF1EE10FAA2
:10589000BADA06F017F8124BB0EE408A05E048F28B
:1058A0000103ADF81E304FF07E53294601A8039343
:1058B0008DED028AFFF726FC0346B0FA80F040091E
:1058C000A4E700BFE5410020FFFF7F7F84DF0008E1
:1058D000B80B008083F9A24700008048000000490F
:1058E00000401C462DE9F043DFF8A08089B0074650
:1058F00000260124032E18F8019B8CBF02250125E8
:1059000049462846FFF73AFB18B1012D35D14379B6
:105910002BBB0021142202A807F0AFF90123042EAB
:105920008DF8073040F6B833ADF81C30394648F2F0
:10593000010301A838BF4FF400438DF804508DF8DF
:1059400005508DF80690ADF81E30FFF7DBFB88B9E7
:1059500049462846FFF712FBB0B1012D10D1394658
:10596000FFF73CFB04400136062EC3D1002C0CBFD0
:105970000720002009B0BDE8F083037D002BC8D0CC
:105980003946FFF713FBEDE70446ECE784DF000838
:10599000F0B5D0ED017A9FED397A394EF8EEE77A1D
:1059A00091B067EE877A07ACCDED047AD0ED027A3C
:1059B0000391F8EEE77A054667EE877A0BABCDEDFB
:1059C000057AD0ED037A0094F8EEE77A06F17002DA
:1059D00067EE877A04A93046CDED067AFBF778F8B2
:1059E00002280AD194E80F0006F1900585E80F001F
:1059F000072386F8A03008240AE060B194E80F007D
:105A000006F1900585E80F00072386F8A0300224F0
:105A1000204611B0F0BD0398FFF764FF0446A0B123
:105A2000072810D10FCD174F0FC7174A95E803006D
:105A300001231370039A87E80300144914320A60A3
:105A400086F8A030E4E70723FAE7114D039A28709F
:105A500003AB009304A90F4B3046FAF7CFFB0228A3
:105A60000446C8D038B10398FFF724FB2C78002CEB
:105A700008BF0524CCE7044B1870C9E70AD7233CBC
:105A8000E8410020CC410020E4410020C841002032
:105A9000E5410020F957000870B52DED028B054651
:105AA00088B001200391FDF7BDFAAB8ADFED357AAE
:105AB00008EE903AF8EE688A68EEA78A28B90226BE
:105AC000304608B0BDEC028B70BDF5EEC08AF1EE39
:105AD00010FAF4D990ED027AB4EEE87AF1EE10FA09
