:020000040800F2
:1000000000000220A10500088D0C00088F0C0008DC
:10001000910C0008930C0008950C000800000000EB
:10002000000000000000000000000000970C000825
:10003000990C0008000000009B0C00089D0C0008B3
:10004000F1050008F1050008F1050008F1050008B8
:10005000F1050008F1050008F1050008F1050008A8
:10006000F1050008F1050008F1050008F105000898
:10007000F1050008F1050008F1050008F105000888
:10008000F1050008F1050008F1050008F105000878
:10009000AD0C0008F1050008C50C0008F1050008CA
:1000A000F1050008F1050008F1050008F105000858
:1000B000F1050008F1050008F1050008F105000848
:1000C000F1050008F1050008F1050008F105000838
:1000D000F1050008F1050008F1050008F105000828
:1000E000F1050008F1050008F1050008F105000818
:1000F000F1050008F1050008F1050008F105000808
:10010000F1050008F1050008F1050008F1050008F7
:10011000F1050008F1050008F1050008F1050008E7
:10012000F1050008CD0C0008F1050008F1050008F4
:10013000F1050008F1050008F1050008F1050008C7
:10014000B90C0008F1050008C90C0008F105000809
:10015000F1050008F1050008F1050008D90C0008B8
:10016000F1050008F1050008F1050008F105000897
:10017000F1050008F1050008F10500080000000085
:08018000F1050008F10500087B
:1001900010B5054C237833B9044B13B10448AFF3C1
:1001A00000800123237010BD5C00002000000000CF
:1001B0000833000808B5034B1BB103490348AFF3EC
:1001C000008008BD00000000600000200833000827
:1001D00053B94AB9002908BF00281CBF4FF0FF31AE
:1001E0004FF0FF3000F088B9ADF1080C6DE904CE96
:1001F00000F006F8DDF804E0DDE9022304B0704702
:100200002DE9F047089D0F4604468C46002B48D147
:100210008A42164661D9B2FA82F34BB1C3F1200289
:1002200001FA03FC20FA02F29E4042EA0C0C9C40C8
:100230004FEA164EB7B2BCFBFEF1220C0EFB11CCFE
:1002400042EA0C4201FB07F0904209D9B21801F1D1
:10025000FF3C80F0EE80904240F2EB800239324465
:10026000121AA4B2B2FBFEF00EFB102244EA0244C2
:1002700000FB07F7A74209D9341900F1FF3280F0DB
:10028000DA80A74240F2D7803444023840EA014085
:10029000E41B00211DB1DC400023C5E90043BDE89B
:1002A000F0878B4206D90DB1C5E90001002108464F
:1002B000BDE8F087B3FA83F1002948D1BB4202D3ED
:1002C000824200F20781841A67EB03020120944600
:1002D000002DE4D0C5E9004CE1E7002A00F092804F
:1002E000B2FA82F3002B40F0A8808A1A4FEA164E29
:1002F0001FFA86FC0121200CB2FBFEF70EFB172231
:1003000040EA02420CFB07F0904207D9B21807F10D
:10031000FF3802D2904200F2E2804746121AA4B29D
:10032000B2FBFEF00EFB102244EA02440CFB00FC80
:10033000A44507D9341900F1FF3202D2A44500F2D6
:10034000CB801046A4EB0C0440EA0740A2E7C1F1C1
:1003500020068B4022FA06FC4CEA030C07FA01F453
:1003600020FA06F3F7404FEA1C49234300FA01F84C
:100370001FFA8CFEB7FBF9F01C0C09FB107744EA5E
:10038000074400FB0EF7A74202FA01F20AD91CEB60
:10039000040400F1FF3A80F09B80A74240F298806D
:1003A00002386444E41B9FB2B4FBF9F309FB134425
:1003B00047EA044403FB0EFEA64509D91CEB0404DE
:1003C00003F1FF3780F08280A6457FD9023B644469
:1003D00043EA0040A4EB0E04A0FB02E7BC427346D4
:1003E000B94663D360D05DB1B8EB030264EB090496
:1003F00004FA06F622FA01F31E43CC40C5E9006474
:1004000000214CE76208480842EAC1710B0C43EA3C
:1004100000438AB242EA0342B3FBF6F1E407B44672
:100420003746B6461F23B0FBF6F0D21B41EA004127
:1004300061E7614614E7104628E7C3F1200120FA7E
:1004400001F29E4027FA01F19F403A434FEA164ECF
:100450001FFA86FCB1FBFEF70EFB1710110C41EAE8
:10046000004107FB0CF8884504FA03F43AD97118E7
:1004700007F1FF3001D288451FD8A1EB0801B1FB7D
:10048000FEF808FB0CF70EFB181192B242EA01428B
:10049000BA422FD2B21808F1FF31C6D2BA42C4D242
:1004A000A8F102013244C0E7F0459CD2BEEB020342
:1004B00067EB0C070138B94695E7A6EB08084144FD
:1004C000B81EB1FBFEF808FB0CF7DCE73B467FE704
:1004D000504667E70846FBE63444023832E7023FFD
:1004E00032441BE7A1EB08013846B1FBFEF808FBDC
:1004F0000CF7C8E7414698E7704700BF00000000CE
:1005000001F0FF01102A2BDB10F0070F08D010F8C4
:10051000013B013A8B422DD010F0070F42B3F6D1C8
:10052000F0B441EA012141EA014122F007047FF0E1
:1005300000070023F0E80256083C85EA010586EA38
:10054000010685FA47F5A3FA87F586FA47F6A5FA74
:1005500087F68EB9EED1F0BC01F0FF0102F0070280
:1005600032B110F8013B013A83EA010313B1F8D12B
:100570000020704701387047002D06BF354603380C
:10058000073815F0010F07D1013015F4807F02BF45
:10059000013015F4C03F0130F0BC0138704700BF96
:1005A000DFF834D000F0BCFB0C480D490D4A0023A5
:1005B00002E0D458C4500433C4188C42F9D30A4A18
:1005C0000A4C002301E013600432A242FBD302F084
:1005D00023FA00F045FC70470000022000000020D4
:1005E0005C000020943300085C00002030040020F0
:1005F000FEE7000070B58AB004460E4628220021AE
:10060000684602F0FBF900250323C4E901354FF4E5
:1006100000224FF44013C4E904234FF00123A361E7
:100620004FF480732660E560A383204600F034FD1C
:10063000C8B90E4B04909E4214BF0E262E460123CD
:10064000CDE90560CDE90000CDE9020007930893EC
:1006500069460E232046099300F09AFDB0FA80F017
:1006600040090AB070BD2846FBE700BF00640040A7
:1006700070B588B006461422002103A802F0BEF926
:100680000025474B00951A6B464842F002021A6358
:100690001A6B02F002020092009A01951A6B42F066
:1006A00010021A631A6B02F010020192019A02956D
:1006B0001A6B42F040021A631B6B03F04003029373
:1006C0002A460421029B01F0E1FA36480122182152
:1006D00001F0DCFA344801224FF4007101F0D6FA3F
:1006E0002A463248012101F0D1FA01241C232D4869
:1006F00003A9CDE90334CDE9055501F0EFF94FF435
:1007000000732948039303A901F0E8F9022327485D
:10071000039403A9069301F0E1F9F20704D52449F3
:100720002448FFF767FF0446B30706D5224923484C
:10073000FFF760FF00EA0403DCB2750715D5204916
:10074000204B0B604FF4E1200023C1E901030C2290
:100750000846C1E90333C1E90523CB6101F0F8FD87
:10076000002814BF002404F00104310715D51649F0
:10077000164B0B604FF4E1220023C1E90123084628
:100780000822C1E90333C1E90523CB6101F0E0FD93
:10079000002814BF002404F00104204608B070BDF6
:1007A00000380240001002400018024000040240DD
:1007B0000064004094010020006800406C010020AB
:1007C0002401002000140140DC000020004800400B
:1007D000C20738B505461FD5114800F05FFDC8B9FE
:1007E0000F4848F2024100F00FFEB0FA80F46409AD
:1007F000AB070DD50B4800F051FD78B9094848F218
:10080000024100F001FE002814BF002404F001049E
:10081000204638BD0024EBE70124E9E70024F7E790
:10082000940100206C01002082B00D4B002100914A
:100830005A6C42F480425A645A6C02F4804200922C
:10084000009A01911A6C42F080521A641B6C03F0FA
:1008500080530193019B032002B000F0F7BE00BF5C
:10086000003802400F2801D8FFF702BF0020704770
:100870000F2801D8FFF7ACBF002070470A4638B1F7
:10088000012807D11021054882F0010201F0FEB9CC
:100890000821F8E702484FF40071F5E70010024024
:1008A0000018024028B1012805D11021044801F0A8
:1008B000F2B90821FAE703484FF40071F7E700BFE7
:1008C00000100240001802400A4610B5014648B127
:1008D00042B1064C06480023237002F047F801237A
:1008E00010B12370002010BD1846FCE778000020EE
:1008F0002401002038B50B461446014670B16BB197
:1009000062B1094D28780022227050B12A70074840
:100910001A4602F02BF8012310B12B70002038BDCD
:1009200023700120FBE700BF780000202401002095
:10093000024648B1054B1B68586880B228B1824214
:1009400002D9101A80B27047002070477C00002046
:1009500070B50C4616460546A0B1A1B1012211465C
:100960000A4801F093F9224633462946084801F027
:100970001EFD002204460121044801F087F9B4FA63
:1009800084F0400970BD0846FCE700BF0004024047
:100990002401002010B58AB0022306930321092305
:1009A000CDE90813354A036800249342059407945F
:1009B0002BD1334B00941A6C324842F000721A6407
:1009C0001A6C02F000720092009A01941A6B42F0C5
:1009D00008021A631B6B059103F00803019305A934
:1009E000019B01F07BF822460521142000F040FE17
:1009F000142000F06FFE16202246052100F038FE7C
:100A0000162000F067FE0AB010BD1F4A9342FAD1CB
:100A10001B4B02941A6C1D4842F000721A641A6C47
:100A200002F000720292029A03941A6C42F0806201
:100A30001A641A6C02F080620392039A04941A6B8F
:100A400042F002021A631B6B03F002030493049B3F
:100A500005A94FF44053059301F040F822460521C3
:100A6000402000F005FE402000F034FE42202246E7
:100A7000052100F0FDFD4220C3E700BF00640040F7
:100A800000380240000C02400068004000040240B0
:100A900070B514228AB0064600210DEB020001F069
:100AA000ADFF3368424A934224D1424B4248002171
:100AB00000911A6C42F480221A641A6C02F48022AB
:100AC0000092009A01911A6B42F002021A631B6BAA
:100AD00003F002030193019B4FF4406E0223CDE922
:100AE00005E30322072305A9CDE9082300F0F6FF5B
:100AF0000AB070BD314A9342FAD12E4B3048314C86
:100B0000002502955A6C42F020025A645A6C02F099
:100B100020020292029A03951A6B42F004021A63B1
:100B20001A6B02F004020392039A04951A6B42F4C2
:100B300080021A631B6B03F480030493049BC0229E
:100B40000223CDE9052301210323CDE9071308235F
:100B500005A9099300F0C2FF1B48A5614FF020636F
:100B6000C4E900034FF48063C4E904354FF4807C8A
:100B70004FF400332046C4E90255C4E907C3656257
:100B800000F0E6FD08B100F0E7F800220621F4636A
:100B90003920A66300F06CFD392000F09BFD002297
:100BA0000621472000F064FD472000F093FD9FE7F9
:100BB0000048004000380240000402400014014098
:100BC000000802407C0000202864024030B51F4B22
:100BD00005688DB004469D4214BF02250125002101
:100BE000204600F002FC08B90DB030BD10220021F3
:100BF00001A801F003FF0DF10B0305AA0021204617
:100C000000F077FB0028EFD1079A111F4B424B41B0
:100C10008DF80930089B981E434243418DF80A30F5
:100C2000DDE90531042A08BF0B460193099B8DF8C5
:100C3000083000F025FA01A90246284600F00CF918
:100C400001A9284600F00AF9C9E700BF0064004086
:100C500010B5074B04689C4214BF0224012400F025
:100C6000F3FC01462046BDE8104000F0F6B800BF96
:100C7000006400400268034B9A4202BF024B01220B
:100C80001A70704700140140780000207047FEE79A
:100C9000FEE7FEE7FEE770477047704708B500F0D3
:100CA000E3F9BDE8084000F038BD0000014800F05D
:100CB000C7BB00BF94010020014800F0C1BB00BFCA
:100CC0006C010020FFF7F2BFFFF7F6BF014800F00C
:100CD00047BE00BF7C000020014801F0A3BC00BF5C
:100CE000240100200A4A0346106810B508B90948D3
:100CF00010600949094C0344091B8B4206D901F0D5
:100D000085FE0C2303604FF0FF3010BD1360FCE73D
:100D1000BC0100203004002000000220000400007C
:100D2000034AD2F8883043F47003C2F88830704721
:100D300000ED00E0054A1368C31AB3F5FA7F03D348
:100D400010600020FFF7AEBD704700BFC00100205B
:100D500001460220FFF792BD08B572B601210220BC
:100D6000FFF78CFDFEE7000030B595B0044600F0BB
:100D700061F9102200210AA801F040FE142200218E
:100D800003A801F03BFE314B002101911A6C42F0A7
:100D900080521A641B6C03F080530193019B2C4B0F
:100DA00002911A6842F480421A601B6803F480437F
:100DB0000293029B01214FF480330225CDE90813F1
:100DC0004FF480030820CDE90E534FF4A873CDE90A
:100DD0001003072308A81295139300F065FF08B1CC
:100DE000FFF7BAFF0F23CDE9033505904FF4A0526A
:100DF0004FF48053052103A8CDE9062301F030F913
:100E00000028EDD100F042F9B0F5805F81BF114AB2
:100E1000136843F4807313602046FFF723FD002816
:100E2000DED02046FFF724FD0028D9D00021084657
:100E3000FFF724FD00210120FFF720FD0021022003
:100E400015B0BDE83040FFF719BD00BF00380240C3
:100E500000700040003C024070477047704700003F
:100E60002DE9F04F04208DB0FFF77EFF52484FF47C
:100E70008071FFF729FD08B9FFF76EFF00F000F958
:100E80004E4F4F4D4F4E386000F0FAF86A46044618
:100E90004FF480714848FFF72DFD8046002834D17B
:100EA0002B6801332B6030703B68E31A002B12DB98
:100EB000DFF82C81444AD8F800303021684601F030
:100EC00067FD142281B26846FFF742FD002866D113
:100ED0002B6801332B603378002B69D03B4B1B68A8
:100EE000E31AB3F5FA6F94BF00230123384A137055
:100EF0002B68002B5ED11078003818BF0120FFF757
:100F000027FF2046FFF716FFBEE79DF80030DFF809
:100F1000D490DFF8D4B02BB10023A9F80030ABF89F
:100F2000003033704FF48070FFF702FD8246B9F84D
:100F30000020BBF8003027480021924506D1002947
:100F4000B2D0ABF80030A9F800A0ADE71A4911F80B
:100F500002C00168013301315F2B016082BF2B6841
:100F600001332B6002F1010294BF9BB20023BCF15C
:100F70000A0FD2B211D1A9F80020174A1380134BDF
:100F8000164A1C600120307013680344136000236C
:100F9000ABF80030FFF786FCC9E74146CDE7D8F84B
:100FA00000300133C8F8003004F5FA733B6092E773
:100FB00001239BE70120A2E7CC010020C40100200F
:100FC000D4020020CD02002038330008D0020020D7
:100FD000CC020020DC020020CE020020D80200203B
:100FE000E0020020CA010020C801002038B50E4BE5
:100FF0001A784FF47A73B3FBF2F30C4A0546106883
:10100000B0FBF3F000F074FB044658B90F2D09D87B
:10101000024629464FF0FF3000F02AFB044B2046E1
:101020001D6038BD0120FCE7040000200000002006
:101030000800002008B50B4B1A6842F400721A60D1
:101040001A6842F480621A601A6842F480721A6068
:10105000032000F0FBFA0F20FFF7C8FFFFF7E4FBC7
:10106000002008BD003C0240034A044B11681B7875
:101070000B441360704700BFE4020020040000200E
:10108000014B1868704700BFE4020020014B18684C
:10109000000C7047002004E038B5044600286ED0EC
:1010A00090F820300BB9FFF775FC2268136843F005
:1010B00001031360FFF7E4FF054623685A68D10770
:1010C00051D51A6822F002021A60FFF7D9FF0546CF
:1010D00023685A68920754D4227E012A1A680CBFEA
:1010E00042F0800222F080021A60627E012A1A68B1
:1010F0000CBF42F0400222F040021A60A27E012A98
:101100001A680CBF42F0200222F020021A60E27E30
:10111000012A1A680CBF22F0100242F010021A6075
:10112000227F012A1A680CBF42F0080222F008024E
:101130001A60627F012A1A680CBF42F0040222F092
:1011400004021A60D4E902210A4321690A43616951
:101150000A43616801390A43DA61002001236062B1
:1011600084F820300CE0FFF78BFF401B0A28A4D93D
:10117000636A43F400336362052384F8203001205E
:1011800038BDFFF77DFF401B0A28A1D9F0E700001A
:1011900030B590F82030013B012B77D83E4BD3F887
:1011A000002242F00102C3F80022D3F8002222F408
:1011B0007C52C3F80022D3F80022486A42EA002297
:1011C000C3F800224A69D3F81C5202F01F04012020
:1011D000A04025EA0005C3F81C52CD69C443002D88
:1011E00035D1D3F80C522540C3F80C52CB688D880A
:1011F00045EA0345D30003F1804303F5C8430A8859
:10120000C3F840528D6842EA0542C3F844228A6915
:10121000214B8ABBD3F804222240C3F804220A6976
:1012200072BBD3F814221440C3F814420B6A012B8A
:10123000194B02BFD3F81C220243C3F81C22D3F877
:10124000002222F00102C3F80022002030BD012D4F
:10125000DDD1D3F80C520543C3F80C520B688D88CE
:1012600045EA0345D30003F1804303F5C8438A8967
:10127000C3F840528D68C6E7D3F804220243CCE796
:10128000D3F814220243C3F81422CFE7436A43F48D
:10129000802343620120D9E70064004038B590F80C
:1012A0002030012B04461FD10268022380F8203031
:1012B000136823F001031360FFF7E2FE054623687D
:1012C000586810F0010001D1606238BDFFF7D8FE08
:1012D000401B0A28F3D9636A43F400336362052391
:1012E00084F820300120F0E7436A43F4002343628E
:1012F000F8E7F0B590F82040013C012C71D8066861
:1013000041B9F468A40707D1436A43F40013436268
:101310000120F0BD3469F5E706EB01150C01D5F8A5
:10132000B07107F004079760002F50D1D5F8B07165
:101330007F0D1760D5F8B07107F00207D760D5F8B8
:10134000B4713F0756BFD5F8B471082707F00F07EF
:101350001761D5F8B471D5F8B4512644C7F30727FF
:101360002D0C97615561D6F8B8211A700268224495
:10137000D2F8B821120A5A7002682244D2F8B82171
:10138000120C9A7002682244D2F8B821120EDA7058
:1013900002682244D2F8BC211A7102682244D2F8B1
:1013A000BC21120A5A7102682244D2F8BC21120CE4
:1013B0009A7102682244D2F8BC21120EDA710368D5
:1013C00051B9DA6842F02002DA600020A1E7D5F8CE
:1013D000B071FF085760ADE71A6942F020021A6148
:1013E000F3E7436A43F4802391E790F82030013B10
:1013F000012B07D8036819B9D86800F003007047BB
:101400001869FAE70020704790F82030013B012B63
:1014100005D8026853691943516100207047436A37
:1014200043F4802343620120704770477047704740
:1014300070477047704770477047704770477047F4
:101440002DE9F84F03685E69D3F80490D3F808805B
:10145000D3F80CB0D3F810A09F6916F0010405462C
:1014600027D018F0010F07D0012218F0020F9A6060
:1014700000F0A580FFF7D9FF002418F4807F0AD080
:101480002B684FF4807218F4007F9A6000F0A680F9
:101490002846FFF7CBFF18F4803F0AD02B684FF4A3
:1014A000803218F4003F9A6000F0A8802846FFF7C9
:1014B000BEFF310707D51BF0100F1FBF2B6810228E
:1014C00044F40074DA60720708D51BF0080F05D0E9
:1014D0002B680822DA602846FFF7ADFFB30706D570
:1014E0002B68DB68980702D02846FFF76FFB710670
:1014F00007D51AF0100F1FBF2B68102244F4806428
:101500001A61B20608D51AF0080F05D02B68082218
:101510001A612846FFF791FFF30606D52B681B6971
:10152000980702D02846FFF787FFB10308D519F0C6
:10153000100F05D02B6810225A602846FFF77EFF57
:10154000F20308D519F0080F05D02B6808225A605D
:101550002846FFF774FF330428D519F0040F2A68D2
:1015600022D0F00544BF07F001031C43B10503D5A9
:10157000BB0748BF44F00204700503D5790748BF94
:1015800044F0040433050FD517F070030CD0402B42
:1015900054D043D8202B4BD0302B4CD0102B44D0E0
:1015A000936923F070039361042353602CB16B6A39
:1015B00023436B622846FFF74BFBBDE8F88F18F01A
:1015C000040F05D118F0080F05D1FFF731FF53E7DD
:1015D0004FF4006451E74FF480544EE718F4806FE5
:1015E00002D044F4005456E718F4006F02D044F4DB
:1015F000804450E72846FFF71CFF4CE718F4802F83
:1016000002D044F4004454E718F4002F02D044F40C
:1016100080344EE72846FFF70DFF4AE7502B10D0E5
:10162000602BBDD144F48074BAE744F00804B7E7F6
:1016300044F01004B4E744F02004B1E744F040045F
:10164000AEE744F08004ABE7406A70470749CA68D8
:1016500022F4E0620302120403F4E063120C134369
:1016600043F0BF6343F40033CB60704700ED00E00C
:10167000164B30B5DC68C4F30224C4F10703251D02
:10168000042B28BF0423062D4FF0FF358CBF033CED
:10169000002405FA03F321EA0303A54022EA050228
:1016A000A340002843EA0203ACBF00F16040084AAF
:1016B0004FEA0313B8BF00F00F00DBB2AABF00F57A
:1016C0006140135480F8003330BD00BF00ED00E0EE
:1016D00014ED00E0002807DB044A4109012300F073
:1016E0001F00834042F82130704700BF00E100E056
:1016F0000138B0F1807F0BD24FF0E023054A5861EA
:10170000F02182F823100020072298611A617047A7
:101710000120704700ED00E0704708B5FFF7FCFFBF
:1017200008BD0000036810B5084C0246D9B2103954
:101730001820B1FBF0F0205CD06523F47F7020F01E
:1017400003005F2988BF0430906510BD7B3300081B
:1017500070B50446FFF794FC0546002C60D00223C8
:1017600084F835302268002384F83430136823F07D
:101770000103136022681368D8072ED41368324817
:10178000A1691840D4E901352B43E5682B4325694D
:101790002B4365692B43E5690B432B43256A2B4398
:1017A0000343606A042802BFD4E90B5635432B4338
:1017B00013605369042823F0070343EA000335D17B
:1017C000A06AE56A03438DB391B9012820D030F0B7
:1017D00002012BD1E90129D51DE0FFF751FC401B87
:1017E0000528C7D920230320636584F8350070BD20
:1017F000B1F5005F16D1032818D801A151F820F0E7
:1018000017180008D5170008171800081118000845
:10181000B5F1C07F0AD140236365012384F83530D8
:101820000120E4E70228F6D90328D3D053612046EB
:10183000FFF778FFE26D3F23934083600020012390
:10184000606584F83530D2E73F8010F070B590F8CD
:101850003440866D012C30D0012480F8344090F85B
:101860003540012C4FF0000425D1022580F8355079
:1018700044650468256825F48025256063608368D5
:10188000402B0EBFA260A160E260C26D08BFE160A4
:101890003F239340B360236843F016032360036C37
:1018A0001BB1236843F008032360236843F001035E
:1018B0002360002070BD80F834400220FAE770B544
:1018C0000446866DFFF7DCFB94F83530022B0546A5
:1018D00006D0802363650120002384F8343070BD76
:1018E00023681A6822F016021A605A6922F08002F0
:1018F0005A61226C0AB9A26C1AB11A6822F0080265
:101900001A601A6822F001021A602368186810F041
:10191000010007D1E26D3F239340B360012384F8B7
:101920003530D9E7FFF7ACFB401B0528EDD9202364
:101930000320636584F83500CEE790F83530022B3C
:1019400003D080234365012070470268052380F897
:101950003530136823F00103136000207047000046
:10196000F7B5002301935C4B856D1F68C36D2E682E
:1019700008229A40324204460CD0016808684007A9
:1019800008D5086820F004000860AA60626D42F083
:101990000102626501229A40324208D021684969F9
:1019A000090641BFAA60626D42F00202626504222C
:1019B0009A40324208D021680968880741BFAA606E
:1019C000626D42F00402626510229A40324210D0E9
:1019D0002368196809070CD5AA601A68500337D51F
:1019E0001B68190301D4236C00E0A36C0BB12046E3
:1019F0009847E16D20228A4032423AD02368186825
:101A0000C60636D5AA6094F83520052A1A6827D16B
:101A100022F016021A605A6922F080025A61226C82
:101A20000AB9A26C1AB11A6822F008021A603F23A0
:101A30008B40AB60012384F83530002384F83430C8
:101A4000236D002B45D0204603B0BDE8F040184779
:101A50001A68D2055EBF1A6822F008021A60C2E74F
:101A6000500327D51B68190331D4636C0BB1204692
:101A70009847636D6BB3636DDA0719D522684FF42D
:101A80001653B7FBF3F7052384F83530136823F0BA
:101A900001031360019B0133BB42019302D8136819
:101AA000DB07F7D4012384F83530002384F8343081
:101AB000E36CC6E71A6812F4807208D1196821F045
:101AC00010011960012384F8353084F83420E36B69
:101AD000CCE703B0F0BD00BF000000202DE9F74FB8
:101AE000DFF8A491664A00230D6801249C4004EAB3
:101AF0000506AC4340F0AF804D68032705F00304B2
:101B00004FEA430807FA08FC671E012F6FEA0C0C26
:101B100034D8876807EA0C0ECF6807FA08F747EA57
:101B20000E078760476827EA060EC5F300179F4037
:101B300047EA0E074760C76807EA0C0E8F6807FA86
:101B400008F747EA0E07022CC76019D14FEAD30AFB
:101B500000EB8A0A03F0070BDAF820704FEA8B0BD0
:101B60004FF00F0E0EFA0BFE27EA0E0E0F6907FA62
:101B70000BF747EA0E07CAF8207001E0032CDAD110
:101B8000076804FA08F407EA0C073C4315F4403FE1
:101B9000046060D000240194D9F8444044F48044A7
:101BA000C9F84440D9F8444023F0030707F18047BF
:101BB00004F4804407F59C37019403F0030C019C66
:101BC000D7F808E04FEA8C0C0F2404FA0CF42EEA44
:101BD000040E2C4CA04245D004F58064A04243D0B2
:101BE00004F58064A04241D004F58064A0423FD057
:101BF00004F58064A0423DD004F58064A0423BD04F
:101C000004F58064A04239D004F58064A04214BF7A
:101C10000824072404FA0CF444EA0E04BC60946817
:101C2000F74315F4801F0CBF3C4034439460D468E4
:101C300015F4001F0CBF3C403443D460546815F4C5
:101C4000003F0CBF3C40344354601468ED0354BF64
:101C50003C40344314600133102B7FF445AF03B094
:101C6000BDE8F08F0024D5E70124D3E70224D1E7B3
:101C70000324CFE70424CDE70524CBE70624C9E7F6
:101C8000003C014000000240003802400AB181617E
:101C900070470904FBE7436901EA030221EA0301F3
:101CA00041EA0241816170472DE9F341044640B3A6
:101CB0000368DE0710D423689D075BD423681907E7
:101CC00000F19D8023685A0700F1BD80A369002BB5
:101CD00040F0248100202CE08D4B9A6802F00C0229
:101CE000042A07D09A6802F00C02082A0BD15B681C
:101CF000590208D5864B1B689A03DCD56368002B14
:101D0000D9D1012015E06368814DB3F5803F13D12F
:101D10002B6843F480332B60FFF7B2F97C4E054605
:101D200033689B03C7D4FFF7ABF9401B6428F7D98E
:101D3000032002B0BDE8F081B3F5A02F04D12B68D9
:101D400043F480232B60E3E72A6822F480322A6080
:101D50002A6822F480222A60002BDDD1FFF790F957
:101D600006462B689F03A6D5FFF78AF9801B6428D7
:101D7000F7D9DDE7664B9A6812F00C0F07D09A6826
:101D800002F00C02082A11D15B685D020ED4604A91
:101D90001368990702D5E368012BB2D11368216952
:101DA00023F0F80343EAC103136087E7E268594B65
:101DB000B2B101221A60FFF763F9554D06462B6850
:101DC0009B0707D52B68226923F0F80343EAC20377
:101DD0002B6073E7FFF754F9801B0228EFD9A7E7C0
:101DE0001A60FFF74DF94A4E054633689F077FF5A5
:101DF00065AFFFF745F9401B0228F6D998E76269FD
:101E0000444B82B10122C3F8802EFFF739F9404ECE
:101E10000546736F9B073FF555AFFFF731F9401B40
:101E20000228F6D984E7C3F8802EFFF729F9384E47
:101E30000546736F9F077FF545AFFFF721F9401BFC
:101E40000228F6D974E7324B1A6C12F0805228D16E
:101E500001921A6C42F080521A641B6C03F080539A
:101E60000193019B01272C4D2B68D8051BD5A36836
:101E7000274D012B27D12B6F43F001032B67FFF771
:101E8000FFF8234E054641F28838336F9A0739D55B
:101E9000002F3FF41BAF1E4A136C23F080531364D2
:101EA00014E70027DFE72B6843F480732B60FFF70C
:101EB000E7F806462B68D905D9D4FFF7E1F8801B6F
:101EC0000228F7D934E7052B04D12B6F43F0040324
:101ED0002B67D0E72A6F22F001022A672A6F22F0CF
:101EE00004022A67002BCAD1FFF7CAF841F28838EA
:101EF00006462B6F9B07CBD5FFF7C2F8801B4045EA
:101F0000F7D915E7FFF7BCF8401B4045BDD90FE7EF
:101F1000003802400000474200700040374DAA6878
:101F200002F00C02082A3ED0022B354B4FF0000283
:101F30001A662BD1FFF7A4F806462B6899011FD427
:101F4000D4E907321343626A43EA8213E26A43EA3E
:101F50000263A26A5208013A43EA02436B60284BCB
:101F6000264D01221A66FFF78BF804462B689A016A
:101F70003FF5B0AEFFF784F8001B0228F6D9D7E68C
:101F8000FFF77EF8801B0228D7D9D1E6FFF778F853
:101F900004462B689B017FF59DAEFFF771F8001B8F
:101FA0000228F6D9C4E6012B3FF4ABAE6B68E269B8
:101FB00003F4800191427FF4A4AE216A03F03F0252
:101FC0008A427FF49EAE616A47F6C0721A40B2EB55
:101FD000811F7FF496AEA26A520803F44031013AA1
:101FE000B1EB024F7FF48DAEE26A03F07063B3EBA6
:101FF000026F14BF012000209BE600BF00380240A2
:1020000000004742134908B58B6803F00C03042B0A
:102010001CD0082B1CD14A684B68496813F4800314
:1020200014BF0D480D48C1F3881118BF002302F0FA
:102030003F02A1FB0001FEF7CBF8064B5B68C3F340
:10204000014301335B00B0FBF3F008BD0248FCE73D
:102050000248FAE70038024000127A000024F40037
:102060002DE9F0410D46044610B90120BDE8F0818C
:10207000434B1A6802F007028A4228D321688F076F
:102080002DD4C80740D43E4B1A6802F00702AA427A
:1020900065D8226851076BD4130707D5394A2169DF
:1020A000936823F4604343EAC1039360FFF7AAFFF8
:1020B000344B354A9B68C3F30313D35CD840334B8E
:1020C0001860334B1868FEF791FF0020CEE7CAB2C4
:1020D0001A701B6803F007038B42C6D1CEE7294B69
:1020E00011F0040F1EBF9A6842F4E0529A600E0786
:1020F00042BF9A6842F460429A609A68A06822F0EF
:10210000F00202439A60BCE762681E4B012A1CD1B0
:102110001B6813F4003FA8D01A4EB36823F00303E2
:102120001343B360FEF7ACFF41F288380746B3684B
:10213000626803F00C03B3EB820FA4D0FEF7A0FF9C
:10214000C01B4045F3D9032090E7911E01291B686D
:1021500002D813F0007FDEE713F0020FDBE7EAB2EC
:102160001A701B6803F00703AB427FF47EAF90E761
:102170000449E0688B6823F4E05303438B608BE7EA
:10218000003C0240003802402833000800000020D4
:1021900008000020044B054A9B68C3F38223D35CEC
:1021A000034A1068D84070470038024020330008C6
:1021B00000000020044B054A9B68C3F34233D35C04
:1021C000034A1068D84070470038024020330008A6
:1021D00000000020026802F10C0353E8003F23F4E2
:1021E00090730C3242E8003102680029F2D102F10A
:1021F000140353E8003F23F0010302F1140C4CE8F0
:1022000000310029F3D1036B012B0BD102F10C0338
:1022100053E8003F23F0100302F10C0C4CE80031AE
:102220000029F3D1202380F8423000230363704754
:102230000268C16838B5136923F440530B43136136
:10224000054683680069D168034368690343E86908
:1022500021F4164121F00C0103430B43D360536971
:10226000A96923F440730B4353611F4B9A4203D077
:1022700003F580639A4224D1FFF79CFFEA69192194
:10228000B2F5004FD5E90043A0FB01011CD1DA18DB
:102290004FF0000545EB0503FDF79AFF6422B0FB04
:1022A000F2F102FB1103DB003233B3FBF2F303F074
:1022B00007025B0002EB011203F4F8731344A360FE
:1022C00038BDFFF767FFD9E79A009B0FFDF780FF46
:1022D0006422B0FBF2F102FB11031B013233B3FBAA
:1022E000F2F303EB0113EAE700100140F7B50546EE
:1022F0000C4617461E462A68136834EA030301D1C8
:10230000002021E0701CF7D0FEF7BAFEC01B864209
:102310001CD3DEB12B68DA685107ECD5802CEAD0EB
:10232000402CE8D01A681207E5D5002401941A68F9
:1023300001925B6801932846019BFFF74BFF08233E
:102340006B6485F84040012003B0F0BD0320FBE73B
:1023500010B5044648B390F8413003F0FF021BB9B2
:1023600080F84020FEF794FB2268242384F8413053
:10237000D36823F40053D3602046FFF759FF236846
:102380001A6922F490421A615A6922F02A025A61AB
:10239000DA6842F40052DA6000202023606484F896
:1023A000413084F84230606310BD0120FCE72DE924
:1023B000F843984690F84130202B04460E461746C5
:1023C0003FD100293FD0002A3DD02123002545647C
:1023D00080F84130FEF754FEA368A784B3F5805F10
:1023E0008146E78403D123690BB935461E46E38C49
:1023F0009BB253B943464A4640212046FFF776FF39
:10240000202350B984F841300AE043464A468021EF
:102410002046FFF76BFF28B1202384F841300320CA
:10242000BDE8F88322684EB935F8023BC3F30803D0
:102430005360E18C013989B2E184D8E716F8013B99
:10244000F6E70220ECE70120EAE7704770477047A3
:1024500008B5806B03685A6990F84110212912D1A0
:10246000120610D50022C28403F10C0252E8002F9C
:1024700022F0C00203F10C0C4CE800210029F3D13A
:10248000202280F841205B6990F84220222A05D161
:102490005B0603D50023C385FFF79CFE436C43F026
:1024A00010034364FEF7E6FB08BD08B5806B00230C
:1024B000C385FEF7DFFB08BD7047806B08B50123BD
:1024C0004363036B012B04D1818D4908FFF7F4FFAF
:1024D00008BDFFF7BCFFFBE708B50346806B1B6830
:1024E0001B6813F4807337D1C385026802F10C03B3
:1024F00053E8003F23F480730C3242E80031036854
:102500000029F2D103F1140252E8002F22F0010257
:1025100003F1140C4CE800210029F3D103F114025B
:1025200052E8002F22F0400203F1140C4CE8002185
:102530000029F3D1202280F84220026B012A0BD11E
:1025400003F10C0252E8002F22F0100203F10C0CF0
:102550004CE800210029F3D100234363036B012BD6
:1025600003D1818DFFF7A8FF08BDFFF76FFFFBE7E1
:1025700090F84230222B07B542D181680268836A05
:10258000B1F5805F3ED1016900293ED15268C2F3A6
:10259000080223F8022B8362C38D013B9BB2C385E3
:1025A000002B2DD10268D16821F02001D160D168C3
:1025B00021F48071D160516921F001015161202223
:1025C00080F842204363026B012A026827D103632B
:1025D00002F10C0353E8003F23F0100302F10C0C4E
:1025E0004CE800310029F3D11368DB0605D50191D1
:1025F0001368019353680193019B818DFFF75CFF82
:1026000003B000BD39B9016929B95268D2B21A7054
:10261000836A0133BFE7526802F07F02F7E7FFF7F2
:1026200015FFEDE703681A6873B51607D9685D6989
:10263000044608D1960668D58D0666D502B0BDE879
:102640007040FFF795BF05F0010001F49075054358
:102650005BD0D60705D5CD0542BF636C43F00103BF
:102660006364530704D518B1636C43F002036364D9
:10267000960704D518B1636C43F00403636415072F
:1026800007D501F0200303431EBF636C43F008032A
:102690006364636C002B32D0920604D58B0602D59E
:1026A0002046FFF765FF26687369626C03F04003FC
:1026B00002F0080253EA0205204622D0FFF78AFD05
:1026C00073695E0618D5226802F1140353E8003FCF
:1026D00023F04003143242E800310029F3D1E06BCB
:1026E00050B1774B0365FFF728F940B1E06B036DFC
:1026F00002B0BDE8704018472046FEF7BBFA02B0B2
:1027000070BDFEF7B7FA6564F9E7206B012840F069
:102710009B80D50640F19880C80640F19580002244
:1027200001921A6801925A680192019A5969A28D20
:10273000490656D5E06B0168496889B2002947D03F
:10274000914245D2C269E185B2F5807F36D003F16E
:102750000C0252E8002F22F4807203F10C0040E8D2
:1027600000210029F3D103F1140252E8002F22F0D6
:10277000010203F1140040E800210029F3D103F124
:10278000140252E8002F22F0400203F1140040E846
:1027900000210029F3D1202284F84220216303F193
:1027A0000C0252E8002F22F0100203F10C0040E866
:1027B00000210029F3D1E06BFFF781F80223636366
:1027C000E38DA18DC91A89B22046FFF775FE96E701
:1027D000914294D1C369B3F5807F90D102236363A2
:1027E000F2E7E18DE08D80B289B2002887D0511ADE
:1027F00089B2002983D003F10C0252E8002F22F4A1
:10280000907203F10C0545E800200028F3D103F194
:10281000140252E8002F22F0010203F1140545E8EA
:1028200000200028F3D1202284F84220206303F105
:102830000C0252E8002F22F0100203F10C0545E8CB
:1028400000200028F3D1C9E7160628D50D0626D5A5
:1028500094F84120212A7FF452AFA168226AB1F591
:10286000805F17D12169A9B932F8021BC1F30801B1
:1028700059602262E28C013A92B2E284002A7FF42B
:102880003EAFDA6822F08002DA60DA6842F0400295
:10289000DA6034E7511C216212785A60EAE7500688
:1028A0007FF52DAF4A067FF52AAFDA6822F04002A5
:1028B000DA60202384F841302046FFF7C6FD1EE78A
:1028C000AB24000837B51346044682850022816296
:1028D0004264222084F84200E06B214DC563214D03
:1028E0000564214DC0E9135225680A46291DFEF7EB
:1028F000ADFF38B110236364202384F842300120F7
:1029000003B030BD236801901A6801925A680192A1
:10291000019A22695AB103F10C0252E8002F42F4E5
:10292000807203F10C0444E800210029F3D103F183
:10293000140252E8002F42F0010203F1140444E8AB
:1029400000210029F3D103F1140252E8002F42F0D4
:10295000400203F1140444E800210029F3D1CFE739
:10296000D9240008BB2400085124000870B490F852
:102970004260202E06D141B13AB10024046370BCFC
:10298000FFF7A0BF022070BC70470120FBE70000EA
:102990000CB430B5184B0C1E1D689DB008DA8B23A3
:1029A0002B604FF0FF301DB0BDE8304002B07047E3
:1029B0004FF40273ADF814304FF000031B9314BFB3
:1029C00004F1FF332346049307934FF6FF730290FD
:1029D0000690ADF81630209A21AB02A92846019343
:1029E00000F098F9431CBCBF8B232B60002CDAD07D
:1029F000029B00221A70D6E70C0000200244034616
:102A0000934200D1704703F8011BF9E7014B1868A6
:102A1000704700BF0C00002070B50D4B0D4D5B1BC7
:102A20009C100026A64209D100F06EFC0A4D0B4B0B
:102A30005B1B9C100026A64205D170BD55F8043BD7
:102A400098470136EEE755F8043B98470136F2E720
:102A50008C3300088C3300088C3300089033000856
:102A60007047704738B50546002941D051F8043CFD
:102A70000C1F002BB8BFE41800F0E0F81D4A1368E3
:102A800033B9636014602846BDE8384000F0DCB814
:102A9000A34208D9206821188B4201BF19685B68DE
:102AA00009182160EDE71A465B680BB1A342FAD919
:102AB00011685018A0420BD120680144501883427D
:102AC0001160E0D118685B68536008441060DAE771
:102AD00002D90C232B60D6E7206821188B4204BF53
:102AE00019685B68636004BF091821605460CAE715
:102AF00038BD00BF2C04002070B50F4E0C46316865
:102B0000054611B900F0ACFB30602146284600F0C4
:102B1000A7FB431C03D14FF0FF34204670BDC41CFB
:102B200024F00304A042F8D0211A284600F098FBB4
:102B30000130F2D1EFE700BF280400202DE9F8436F
:102B4000CD1C25F0030508350C2D38BF0C25002DB4
:102B5000064601DBA94204D90C2333600020BDE8FE
:102B6000F883DFF8D48000F069F8D8F800301C460C
:102B700044BB29463046FFF7BFFF431C044658D1EB
:102B8000D8F800402746002F43D1002C4BD02368B3
:102B90003946304604EB030900F062FB814542D11F
:102BA00021686D1A29463046FFF7A6FF01303AD05A
:102BB00023682B442360D8F800305A6862BBC8F8F9
:102BC00000700FE02268521B20D40B2A17D961191C
:102BD000A342256018BF5960636808BFC8F8001099
:102BE00062514B60304600F02FF804F10B00231DBA
:102BF00020F00700C21A1CBF1B1AA350AFE762687F
:102C0000A3420CBFC8F800205A60EBE72346646873
:102C1000AEE73C467F68B6E71A465B68A342FBD145
:102C200000235360DEE70C233360304600F00CF8DD
:102C300094E70560D6E700BF2C0400200148FFF7A9
:102C40000FBF00BF240400200148FFF70ABF00BFE8
:102C5000240400202DE9F0478E681F46BE428246BC
:102C60000C469046334653D8B1F90C0010F4906FDF
:102C70002BD065692368096905EB4505A3EB0109BC
:102C800005EBD5757B1C6D104B44AB422A4684BFC7
:102C90001D462A46430527D511465046FFF74EFFED
:102CA000064658B321694A4600F0EAFAA38923F49C
:102CB000906343F08003A381266165614E44A5EBD8
:102CC00009052660A5603E463B461F4620683A46F9
:102CD000414600F0ABFAA3689B1BA36023683B440A
:102CE00023600020BDE8F087504600F0D7FA064682
:102CF0000028E1D121695046FFF7B4FE0C23CAF841
:102D00000030A38943F04003A3814FF0FF30E9E78F
:102D10003E46DBE72DE9F0471F468B891B069CB03A
:102D200006460D46144610D50B6973B94021FFF7CE
:102D300005FF2860286130B90C2333604FF0FF3065
:102D40001CB0BDE8F08740236B610023099320236A
:102D50008DF8293003973023654F8DF82A304FF0D6
:102D600001082346994613F8012B0AB1252AF9D107
:102D7000B9EB040A0BD05346224629463046FFF7EA
:102D800069FF013000F0A480099A5244099299F831
:102D90000030002B00F09C8000234FF0FF32CDE983
:102DA000052309F10109049307938DF853301A9311
:102DB0004C464F4814F8011B0522FDF7A1FB049B6C
:102DC000D0B9D80644BF20228DF85320190744BF3C
:102DD0002B228DF8532099F800202A2A13D0079A25
:102DE0004C4600204FF00A0C214611F8013B303BC5
:102DF000092B49D968B913E0C01B08FA00F0184341
:102E00000490A146D4E7039A111D12680391002A89
:102E100001DB079204E0524243F00203079204935D
:102E200023782E2B0AD163782A2B32D1039B1A1DCB
:102E30001B68039243EAE37302340593DFF8C09002
:102E4000217803224846FDF75BFB38B1049BA0EBD9
:102E500009004022824013430134049314F8011BFB
:102E600024488DF828100622FDF74AFB002835D0AB
:102E7000214818BB039B073323F007030833039350
:102E8000099B034409936CE70CFB02320C460120BA
:102E9000AAE700230134059319464FF00A0C204697
:102EA00010F8012B303A092A03D9002BC6D005911E
:102EB000C4E70CFB012104460123F0E703AB0093B8
:102EC0002A460E4B04A93046AFF30080421CD7D1EE
:102ED000AB895B063FF532AF099831E703AB00934E
:102EE0002A46064B04A9304600F07AF8EEE700BF08
:102EF000483300085233000800000000552C000839
:102F00004E3300082DE9F047164698468A680B694B
:102F1000DDF820909342B8BF1346336091F8432008
:102F200007460C460AB1013333602368990642BF55
:102F3000336802333360256815F0060506D104F1C5
:102F4000190AE36832689B1AAB4226DC94F84330D6
:102F50002268003B18BF012392062BD404F14302E0
:102F600041463846C84701301ED02368226903F025
:102F70000603042B02BFE5683368ED1AA3680CBF93
:102F800025EAE57500259342C4BF9B1AED1800267B
:102F90001A34B5421AD1002008E0012352464146B6
:102FA0003846C847013003D14FF0FF30BDE8F08705
:102FB0000135C6E7E1185A1C302081F8430022444D
:102FC00094F8451082F843100233C7E701232246E4
:102FD00041463846C8470130E6D00136D9E70000FF
:102FE0002DE9F0430D7E85B0782D90460C9E074666
:102FF0000C46994601F1430207D8622D0AD8002DEC
:1030000000F0D780582D00F0BC8004F1420684F80F
:1030100042503BE0A5F16303152BF6D801A151F80E
:1030200023F000BF7D300008913000080B3000080D
:103030000B3000080B3000080B30000891300008FE
:103040000B3000080B3000080B3000080B30000874
:1030500099310008BB3000084B3100080B300008E4
:103060000B300008BB3100080B300008BB300008F3
:103070000B3000080B3000085331000833681A1D6C
:103080001B68326004F1420684F842300123A1E05B
:1030900033682068191D3160060601D51D6803E0FC
:1030A0004506FBD5B3F90050002D03DA2D236D4200
:1030B00084F843305B480A2311E02168336808062E
:1030C00053F8045B02D4490648BFADB23360237E97
:1030D00054486F2B5CD10823002184F843106668A4
:1030E000A660002E05DB21682E4321F0040121603B
:1030F00050D01646B5FBF3F103FB115C10F80CC081
:1031000006F801CDAC4663450D46F3D9082B0BD12B
:103110002368DB0708D5236961689942DEBF302345
:1031200006F8013C06F1FF36921B2261CDF80090B3
:10313000434603AA21463846FFF7E4FE01304ED14C
:103140004FF0FF3005B0BDE8F083236843F0200363
:1031500023603548782584F845502368316813F09A
:10316000800F51F8045B03D113F0400F18BFADB2CC
:103170003160D90744BF43F0200323601DB1102301
:10318000AAE72848E7E7236823F020032360F6E74F
:103190000A23A1E71646B9E7336825686169181D57
:1031A00030602E061B6801D5196002E06806FBD569
:1031B0001980002323611646B8E733681A1D326070
:1031C0001E68626800213046FDF79AF908B1801B3D
:1031D000606063682361002384F84330A6E72369B5
:1031E000324641463846C8470130A9D023689B077C
:1031F00013D4E068039B9842B8BF1846A2E70123A6
:10320000324641463846C847013099D00135E36817
:1032100003995B1AAB42F2DCEBE7002504F11906D7
:10322000F5E700BF593300086A330008884210B53B
:1032300001EB020402D98442234607D8431EA1426F
:1032400007D011F8012B03F8012FF8E7024482425E
:1032500000D110BD13F8011D02F8011DF7E70000B1
:1032600038B5064D0023044608462B60FDF73AFDAD
:10327000431C02D12B6803B1236038BD2004002019
:103280000A44914200F1FF3300D1704710B511F8A4
:10329000014B03F8014F9142F9D110BD2DE9F041E6
:1032A000074614460D4621B9BDE8F0411146FFF727
:1032B00045BC2AB9FFF7D6FB25462846BDE8F08174
:1032C00000F01AF88442064602D8B4EB500FF4D846
:1032D00021463846FFF732FC804608B94546ECE700
:1032E000B4422246294628BF3246FFF7C9FF294685
:1032F0003846FFF7B7FBF1E751F8043C181F002BE5
:10330000BCBF0B58C0187047F8B500BFF8BC08BC6C
:103310009E467047F8B500BFF8BC08BC9E46704793
:103320000000000001020304000000000000000093
:103330000102030406070809554152545F544553DE
:10334000542C256C750D0A00232D302B2000686C41
:103350004C006566674546470030313233343536B8
:1033600037383941424344454600303132333435F1
:1033700036373839616263646566000006101600EE
:04338000061016001D
:083384007CCEFF7F0100000078
:04338C00B50100087F
:04339000910100089F
:103394000024F400010000001000000010000020D0
:1033A40000000000E802002050030020B8030020C1
:1033B4000000000000000000000000000000000009
:1033C40000000000000000000000000000000000F9
:1033D40000000000000000000000000000000000E9
:0C33E400000000000000000000000000DD
:04000005080005A149
:00000001FF
