:020000040800F2
:1000000078DD00205D020008F5750008A15F00089A
:10001000F1750008010F0008C195000800000000FC
:100020000000000000000000000000009D0100082A
:100030005711000800000000F90100086581000860
:1000400077020008770200087702000877020008AC
:10005000770200087702000877020008770200089C
:10006000770200087702000877020008770200088C
:10007000A50F0008C10F0008DD0F00087702000877
:10008000ED0F0008FD0F0008770200087702000856
:1000900077020008050F00087702000877020008C1
:1000A000770200087702000877020008770200084C
:1000B000770200087702000877020008770200083C
:1000C000770200087702000877020008770200082C
:1000D0007702000801950008259500084995000859
:1000E000770200087702000877020008770200080C
:1000F00077020008770200087702000877020008FC
:100100007702000877020008C1840008770200081F
:10011000FD8E0008770200087702000877020008C9
:10012000770200080D100008770200087702000827
:1001300077020008E511000877020008770200083E
:10014000150F000877020008770200087702000800
:100150001D1000082D1000083D1000086D950008C6
:10016000770200087702000877020008770200088B
:1001700077020008770200087702000800000000FC
:100180007702000877020008DFF80CD000F018FDB5
:1001900000480047B5E0000878DD00202C4B1968C6
:1001A0000868B0E8F04F80F30988BFF36F8F4FF015
:1001B000000080F3118870470000000008480068C4
:1001C000006880F308884FF0000080F3148862B65E
:1001D00061B6BFF34F8FBFF36F8F00DF00BF00BF6B
:1001E00008ED00E0DFF80C00016841F470010160E7
:1001F000704700BF88ED00E0EFF30980BFF36F8F19
:10020000134B1A681EF0100F08BF20ED108A20E96A
:10021000F04F106009B44FF0500080F31188BFF325
:100220004F8FBFF36F8F13F00BFA4FF0000080F386
:10023000118809BC19680868B0E8F04F1EF0100F6B
:1002400008BFB0EC108A80F30988BFF36F8F704746
:10025000FC030020EFF3058070470000064880474C
:1002600006480047FEE7FEE7FEE7FEE7FEE7FEE79B
:10027000FEE7FEE7FEE7FEE74D8200088901000881
:100280009FED1A1AF5EE000A40EE010ABDEEE00AF3
:10029000F5EEC00A10EE100AF1EE10FA38BF401E5B
:1002A00000EE100A1349F7EE001AB8EEC00A30EE5D
:1002B000C00ADFED0F0A20EE200AFCEEC00A10EEA5
:1002C000900AC0F3080000EE900A01EB8000F8EEFF
:1002D000600A90ED011A70EE600A90ED000A71EE6E
:1002E000E01A21EE800A00EE810A704783F9223E6F
:1002F00000000044DC4B0108B5EEC00AF1EE10FA34
:1003000007D2DFED1E0AB4EEE00AF1EE10FAA8BF44
:100310007047DFED1B0AB5EEC00A60EE200ABDEEA5
:10032000E01A11EE100AF1EE10FA38BF401E00EE8E
:10033000100A1549F7EE001AB8EEC00A30EEC00AEE
:10034000DFED100A60EE200ABCEEE00A10EE100AA3
:10035000C0F3080000EE100A01EB8000B8EE400A7E
:1003600090ED011A70EEC00A90ED000A71EEE01AED
:1003700021EE800A00EE810A70470000CD024CB4E5
:1003800083F9223E00000044DC4B01082DE9F05FB8
:100390000546002092469B468846064681464024F4
:1003A0001BE0284641464746224600F0A6FA53463F
:1003B0005A46C01A914110D311461846224600F001
:1003C0008DFA2D1A67EB01084F46224601200021C5
:1003D00000F084FA17EB00094E41201EA4F101043D
:1003E000DFDC484631462A464346BDE8F09F40EAF6
:1003F00001039B0703D009E008C9121F08C0042AA3
:10040000FAD203E011F8013B00F8013B521EF9D289
:100410007047D2B201E000F8012B491EFBD27047B1
:100420000022F6E710B513460A4604461946FFF7C0
:10043000F0FF204610BD30B504460020034600E022
:100440005B1C934203D2E05CCD5C401BF8D030BD16
:100450002DE9FE4F804681EA0300C00F0C46009054
:1004600021F0004123F00045B8EB0200A94105D27C
:100470004046214690461C460B46024623F000406B
:10048000104347D0270DC7F30A00C3F30A51029067
:10049000401A019040286BDAC3F3130040F4801B2C
:1004A0000098924620B10023D2EB030A63EB0B0BBA
:1004B00001985946C0F14002504600F00FFA064636
:1004C0000D4650465946019A00F027FA10EB0800F5
:1004D0006141002487EA115284EAE7731A4340D04D
:1004E000009A62B3019A012A4FEA075215DC001BF9
:1004F00061EB02014FF0004202EA0752CDE90042EF
:10050000001C41F5801132462B4600F05EFA03B024
:10051000BDE8F08F40462146F9E7001B61EB020180
:10052000001C41F5801300185B412018A2F500174C
:1005300047EB030140EAD570B6196D4111E06D0833
:100540004FEA360645EAC0754FEA0752001B61EBD9
:100550000201001C41F5801149084FEA30000019E2
:10056000514132462B4603B0BDE8F04F00F01EBAB1
:100570000098012240000023D0EB020263EBE073FD
:10058000009821464FEAE074B8EB000061EB0401EB
:10059000E9E783F000435BE781F0004158E72DE98C
:1005A000FE4F81EA030404F0004421F0004100946E
:1005B0004FF0000B23F0004350EA01045ED052EAF2
:1005C00003045BD0C3F30A54C1F30A552C44A4F2CC
:1005D000F3340194A0FB0254C1F3130141F48011E0
:1005E000C3F3130343F4801301FB024400FB034EE7
:1005F000840A970A44EA815447EA8357A4FB0768B0
:1006000002958D0A05FB07854FEA932C04FB0C54D9
:100610002705029D4FEA065847EA1637B5EB08054D
:100620006EEB070C870E920E47EA811742EA83129F
:10063000A7FB0201B6EB0B0164EB00042B0D43EAB0
:100640000C335E1844EB1C50DA465146E7FB0201BE
:10065000C5F313044FEA0B3343EA14534FEA043251
:10066000019C43EA0603A4F10C040294009CCDE92A
:1006700000B400F0AAF903B0BDE8F08F00200146F5
:10068000F9E72DE9F04D81EA030404F0004B21F075
:10069000004514464FF0000A23F0004150EA0502DD
:1006A00020D054EA01021DD0C5F30A570246C5F313
:1006B0001303C1F31300C1F30A5640F4801543F449
:1006C0008013A7EB0608101BD64608F2FD3873EB23
:1006D000050002D308F1010801E092185B41B8F16E
:1006E000000F03DA00200146BDE8F08D00204FF432
:1006F0008011064684460EE0171B73EB050705D3F1
:10070000121B63EB050306434CEA010C49084FEA50
:10071000300092185B4150EA0107EDD152EA030024
:1007200012D082EA040083EA0501084305D0101BB9
:10073000AB4106D20122002306E000224FF0004325
:1007400002E06FF0010253101AEB06004CEB085167
:1007500010EB0A0041EB0B01BDE8F04D00F026B9AB
:100760000EB5C10F80EAE0700844CA07002140F2CC
:1007700033438DE80E000A460B4600F026F903B01D
:1007800000BD70B5C1F30A5201F000450024C1F369
:10079000130140F2FF3341F480119A4201DA002044
:1007A00070BD40F233439A42A2F2334203DC52421C
:1007B00000F0A3F800E090402C43F1D0404270BD1F
:1007C000C1F30A5210B5C1F3130140F2FF3341F4F3
:1007D00080119A4201DA002010BD40F233439A4260
:1007E000A2F2334203DC524200F087F810BD904081
:1007F00010BD00F0004230F000400AD0C10D01F5FC
:100800006071C0F3160042EA0151C208400711436B
:10081000704700200146704730B5041E71F1000496
:1008200004DB4FF00044404264EB0101141E73F1FD
:10083000000405DB1C464FF00043524263EB040307
:100840008B4208BF824230BD30B5041E71F10004F6
:1008500004DB4FF00044404264EB0101141E73F1CD
:10086000000405DB1C464FF00043524263EB0403D7
:10087000994208BF904230BD01F0004330B421F0EE
:10088000004150EA010206D00A0DA2F56072C1F3E0
:100890001301002A02DC30BC00207047440F44EAF8
:1008A000C104C100E01830BC00EBC25000F047B8F2
:1008B00030B50B46014600202022012409E021FA30
:1008C00002F59D4205D303FA02F5491B04FA02F52D
:1008D0002844151EA2F10102F1DC30BD202A04DB00
:1008E000203A00FA02F1002070479140C2F1200343
:1008F00020FA03F3194390407047202A04DB203A82
:1009000021FA02F00021704721FA02F3D040C2F12F
:1009100020029140084319467047202A06DBCB1776
:10092000203A41FA02F043EAE07306E041FA02F3AA
:10093000D040C2F120029140084319467047002977
:10094000A8BF7047401C490008BF20F00100704755
:1009500010B4B0FA80FC00FA0CF050EA010404BFB5
:1009600010BC704749B1CCF1200421FA04F411FA0B
:100970000CF118BF012121430843A3EB0C01CB1D4F
:100980004FEA00614FEA102042BF002010BC7047C0
:1009900000EBC35010440029A4BF10BC7047401C9A
:1009A000490008BF20F0010010BC704710B5141EAC
:1009B00073F1000408DA401C41F1000192185B4118
:1009C0001A4301D120F0010010BD2DE9F04D9246EF
:1009D0009B4611B1B1FA81F202E0B0FA80F2203206
:1009E0009046FFF77BFF04460F4640EA0A0041EAC3
:1009F0000B0153465A46084313D0114653EA0100EF
:100A000019D0C8F140025046FFF777FF05460E4661
:100A1000504659464246FFF761FF084305D0012082
:100A200004E020463946BDE8F08D0020054346EA43
:100A3000E0762C4337430A986305E40AA0EB0800EC
:100A40000022FD0A44EA47540A3002D5002001463C
:100A5000E9E7010510196941DDE908450019694117
:100A6000BDE8F04DA2E72DE9F04D00231A461B1A10
:100A70008A4103DB00200146BDE8F08DC1F30A5234
:100A8000C1F3130141F480154FF0000BD10702D1DF
:100A900000186D41521E0027044640F2FF113846EF
:100AA00001EB620A3E468046024600204FF4801168
:100AB000FFF723FFC2197141BB1846EB0100B4EBED
:100AC000030C75EB000C04D3E41A65EB0005174624
:100AD0000E46241908F101006D4180463428E3DDFB
:100AE000F91946EB0600091BA84103D24FF0FF326B
:100AF000134601E0002213461BEB070046EB0A51A8
:100B0000BDE8F04DFFF752BF2DE9FE4FC3F30A5782
:100B100001F000450024C1F30A56C3F31303C1F3E7
:100B2000130143F4801312EB020AA64641F480112C
:100B3000009543EB030CA7F1010B16E0B0EB0A00A4
:100B400061EB0C01071E71F1000707DA4FF0000896
:100B5000D0EB080085F0004568EB0101171A73EB34
:100B60000107EBD3761E001849415E45F6DA50EADC
:100B7000010209D0CDE900E5002213460296FFF7F5
:100B800024FF03B0BDE8F08F20460099F9E7C1F3D8
:100B90000A52C1F3130140F2FF3341F480119A422B
:100BA00002DA00200146704740F233439A42A2F233
:100BB000334202DC5242FFF7A0BEFFF78FBE0000B7
:100BC000064C074D06E0E06840F0010394E807009A
:100BD00098471034AC42F6D3FFF7DAFA6C560108A6
:100BE0008C5601080EB540F2334102910021CDE947
:100BF00000110A460B46FFF7E8FE03B000BD70B5D2
:100C00008C1810F8015B15F0070301D110F8013BB7
:100C10002A1106D110F8012B03E010F8016B01F83E
:100C2000016B5B1EF9D12B0705D40023521E0DD496
:100C300001F8013BFAE710F8013BCB1A921C03E0E4
:100C400013F8015B01F8015B521EF9D5A142D8D31C
:100C5000002070BD70B50546AC6B206C00F05000F4
:100C600050BB206C40F4007020642068806800F065
:100C70004050E8B9207ED8B92068C06A00F47000FE
:100C800020B12068806800F4806088B920684068DE
:100C900020F0200021684860206C20F480702064DF
:100CA000206C00F4805018B9206C40F001002064E2
:100CB000204601F02BFF0BE0206C00F0100018B173
:100CC000204601F025FF03E0A06BC16C2846884751
:100CD00070BD70B50546AC6B40202064606C40F080
:100CE00004006064204601F013FF70BD70B5044637
:100CF000A56B284601F00BFF70BD000055494A68FE
:100D000022F440324A604A6843681A434A600268E3
:100D1000526822F4807203685A600268536802695C
:100D200043EA022203685A600268526822F0407265
:100D300003685A600268526883681A4303685A60FD
:100D40000268926822F4006203689A6002689268FE
:100D5000C3681A4303689A603F4B826A9A4218D06C
:100D60000268926822F0706203689A600268926872
:100D7000836A1A4303689A600268926822F04052BC
:100D800003689A6002689268C36A1A4303689A60AB
:100D90000BE00268926822F0706203689A60026851
:100DA000926822F0405203689A600268926822F0CA
:100DB000020203689A6002689368027E43EA420274
:100DC00003689A602022125CA2B10268526842F461
:100DD000006203685A600268526822F46042036845
:100DE0005A6002685368426A521E43EA42320368FC
:100DF0005A6005E00268526822F4006203685A6093
:100E00000268D26A22F470020368DA620268D36A66
:100E1000828B521E43EA02520368DA6202689268C9
:100E200022F4007203689A600268936890F8302098
:100E300043EA422203689A600268926822F4806260
:100E400003689A6002689368426943EA82220368F1
:100E50009A607047002301400100000F00B589B07F
:100E60000020019002900120009000200590069043
:100E700040F20C600390082007901F4903C9CDE998
:100E800001016B4601AA03A91C4801F050FF022092
:100E90000EF0DAFD40F20A600390174903C9CDE96C
:100EA00001016B4601AA03A9144801F040FF02208A
:100EB0000EF0CAFD40F20B6003900F4903C9CDE963
:100EC00001016B4601AA03A90C4801F030FF022082
:100ED0000EF0BAFD40F20D600390074903C9CDE959
:100EE00001016B4601AA03A9044801F020FF02207A
:100EF0000EF0AAFD09B000BD10010020D4090020A9
:100F000000BFFEE710B5024802F012F910BD000064
:100F1000AC09002010B5024802F00AF910BD00002B
:100F2000D409002010B58AB00446002006900120A4
:100F300007900E492068884204D1002005900120C6
:100F4000049003E00E2005900020049001200890FA
:100F50000E200990002000900190029003906946B5
:100F6000204601F08FFF0AB010BD00000064004071
:100F700010B50A48FFF7D6FF084802F04AFC1021D6
:100F8000064801F0BFFE0648FFF7CCFF044802F018
:100F900040FC0221024801F0B5FE10BDAC09002062
:100FA000D409002010B504480068401C02490860BC
:100FB000024802F0CDFC10BDB40300205810002000
:100FC00010B504480068401C02490860024802F05D
:100FD000BFFC10BDB80300201811002010B5024856
:100FE00002F0B6FC10BD0000B810002010B5024899
:100FF00002F0AEFC10BD0000980F002010B50248B2
:1010000002F0A6FC10BD0000F80F002010B5024849
:1010100002F09EFC10BD0000D811002010B502485F
:1010200002F096FC10BD0000D80E002010B502485A
:1010300002F08EFC10BD00003812002010B50248EE
:1010400002F086FC10BD0000380F00200146087831
:1010500010381823B0FBF3F20848805CC865032AF7
:1010600005D908686FF30900001D886503E008686A
:101070006FF309008865886D70470000F84A010821
:10108000014600208A6A8B69CBB932B1012A0DD0A2
:10109000022A03D0032A10D10EE000BFCB6A03F06E
:1010A0008073B3F1807F00D1012007E0CB6AB3F1F8
:1010B000C07F00D1012001E000E000BF34E08B6977
:1010C000B3F5005F1AD132B1012A07D0022A03D04A
:1010D000032A11D10AE000BF01200EE0CB6A03F021
:1010E0008073B3F1807F00D1012006E0CB6AB3F1B9
:1010F000C07F00D1012000E000BF15E032B1012A1D
:1011000005D0022A04D0032A0CD103E000BF00BF9F
:10111000012008E0CB6A03F08073B3F1807F00D137
:10112000012000E000BF00BF704730B504682468AC
:1011300024F4802405682C60046863608468402C73
:1011400004D10468A2600468E16003E00468A1605F
:101150000468E26030BD7047016801F5805189691B
:1011600041F00202016801F580518A61704701680F
:1011700001F58051896941F40052016801F58051FF
:101180008A61704708B508490968C9084FF47A723E
:10119000B1FBF2F14143009100BF00BF00994A1E2C
:1011A00000920029F9D108BDF803002038B50446A3
:1011B00000200090206800F58050806940F4801184
:1011C000206800F580508161206800F580508069BA
:1011D00000900120FFF7D6FF0099206800F58050AD
:1011E000816138BD10B5024802F0BEFE10BD00009E
:1011F0006843002030B503461479557944EA052048
:10120000084C0C442064D4782406957844EA0544BC
:10121000557844EA0524157844EA0500014C0C444D
:10122000606430BD0080024070B5AEB004460E462A
:10123000002526B14FF40061E160C900A1600020E3
:10124000119012901390149015901690E06918B9AF
:101250004FF48060179001E0002017904FF4007069
:101260001890002019901A901B901C901D904020FF
:101270001E9000201F902090219022902390249077
:1012800025902690802027900020289029902A9051
:101290002B902C902D902068056871480540DDE961
:1012A000110108431399084314990843A16808439E
:1012B0001599084316990843E168084317990843AC
:1012C00018990843199908431A9908431B99084328
:1012D00005432068056020680568012002F04AFD8A
:1012E00020680560DDE91C0108431E9908431F9929
:1012F00008432099084321990843229908432399D8
:1013000008432168486020684568012002F032FDEA
:101310002068456024982168886025982168C86005
:10132000206885694FF641700540DDE9261040EAE6
:10133000014028990843299908432A9908432B9981
:10134000084305432068856120688569012002F013
:1013500011FD20688561DDE92C0108432168C86121
:101360002068C569012002F005FD2068C5610020E4
:1013700001904FF000700290002003904FF4001095
:101380000490002005900690079008900420099092
:10139000C0050A9040120B9080010C9040120D90F5
:1013A00080200E9000200F901090206800F5805053
:1013B00085692C480540DDE901010843039908438C
:1013C0000499084305990843069908430799084377
:1013D00008990843099908430543206800F580509F
:1013E0008561206800F580508569012002F0C2FC0B
:1013F000206800F580508561DDE90A0108430C99F9
:1014000008430D9908430E9908430F9940EA81005B
:101410001099084340F40001206800F580500160F5
:10142000206800F580500568012002F0A3FC2068C8
:1014300000F580500560A069012809D1206800F5F9
:101440008050C06908490843216801F58051C8618E
:10145000002120466269FFF7CDFE2EB070BD00006E
:101460000F8120FF233FDEF84000010038B504461D
:10147000002000902068006840F0040021680860A7
:101480002068006800900120FFF77CFE009821682A
:10149000086038BD38B50446002000902068006818
:1014A00040F0080021680860206800680090012072
:1014B000FFF768FE00982168086038BD704700009B
:1014C00000B589B0002001900290012000901F48D3
:1014D000007810B90020059007E01C480078042827
:1014E00001D1059001E009B000BD1848407810B95D
:1014F0000020069006E015484078022801D10690A9
:1015000000E0F0E71148807800061049C97840EA09
:1015100001400E49097940EA01200C494979084304
:1015200004900498C0F30A0003900848807907905B
:101530000648C01D01680191406802906B4601AAEF
:1015400003A9034801F0F3FB00BFCCE7F40400203B
:10155000D409002008B505F0F7FE0022114620202E
:101560000DF0B8FC5549086008460068002851D0C5
:10157000534802885349514800680DF0E3FB524834
:10158000007800065049497840EA01404E49897880
:1015900040EA01204C49C978084302064A480078CD
:1015A00000064949497840EA01404749897840EABC
:1015B00001204549C978084300F47F4042EA0022EF
:1015C0004148007800064049497840EA01413E48D8
:1015D000807841EA00203C49C978084300F47F0044
:1015E00042EA10223848007801063748407841EA3C
:1015F00000413548807841EA00203349C9780843E2
:1016000042EA106000902E48028869462B48006824
:101610000DF0FAFB64200EF017FA00202B49087039
:1016200064200EF011FA00BF2949244800680DF02B
:1016300005FD2748006800283AD0002025490860A9
:1016400080212548FEF7ECFE21480068046826E06A
:10165000608920490968C1F1800188420BD91D4B7E
:101660001B68C3F180021C4B1A4D61682D68581924
:10167000FEF7BDFE07E06289174B164D61682D68C5
:101680005819FEF7B4FE60891249096808441149E7
:10169000086008460068802800D902E02468002C11
:1016A000D6D100BF0A4800680DF096FAFFF708FF90
:1016B0004FF4FA700EF0C8F9B6E7000008000020F9
:1016C0000C000020D44B0108040000203000002052
:1016D0003800002010000020F40400202DED108BB5
:1016E0009EB000BF28210EA8FEF79AFE02E001205E
:1016F0000EF0AAF9FE4800780028F8D10022114621
:1017000020200DF0E7FBFB49086008460068002830
:1017100051D0F9480288F949F64800680DF012FBEB
:10172000F74800780006F649497840EA0140F44954
:10173000897840EA0120F249C97808430206F04856
:1017400000780006EE49497840EA0140EC49897882
:1017500040EA0120EA49C978084300F47F4042EAA0
:101760000022E74800780006E549497840EA01414F
:10177000E348807841EA0020E149C978084300F451
:101780007F0042EA1022DE4800780106DC484078FB
:1017900041EA0041DA48807841EA0020D849C97816
:1017A000084342EA10601890D348028818A9D1482B
:1017B00000680DF029FB64200EF046F900BFD14807
:1017C000406BD149081A00EE100AB8EEC00ADFEDEE
:1017D000CF0AC0EE20BACB48006BCD49081A00EE04
:1017E000100AB8EEC00ADFEDC90A80EE208AC548AB
:1017F000C06AC849081A00EE100AB8EEC00ADFED48
:10180000C30AC0EE208ABF48806AC349081A00EEA6
:10181000100AB8EEC00ADFEDBD0AC0EE20DABF48FC
:10182000B0F9140000EE100AB8EEC00A8DED1D0AE2
:101830009DED1D0A9FEDBA1AC0EE010A9FEDB90A8F
:1018400020EE800A8DED1D0AB448B0F9160000EEB6
:10185000100AB8EEC00A8DED1C0A9DED1C0A9FED22
:10186000B01AC0EE010A9FEDAF0A20EE800A8DED9E
:101870001C0AAA48B0F9180000EE100AB8EEC00A17
:101880008DED1B0A9DED1B0A9FEDA51AC0EE010A06
:101890009FEDA50A20EE800A8DED1B0A9F48B0F946
:1018A0001A0000EE100AB8EEC00A8DED1A0A9DED7E
:1018B0001A0A9FED9B1AC0EE010A9FED9B0A20EECB
:1018C000800A8DED1A0A994890ED000AB8EEC00A18
:1018D0008DED190A9DED190ADFED950A80EE201AAB
:1018E0008DED191A934890ED030AB8EEC00AB0EED8
:1018F00040AA9FED8F0ACAEE000AB0EE60AA9FEDE3
:101900008E0AB4EEC0AAF1EE10FA06DC9FED8B0A47
:10191000B4EEC0AAF1EE10FA03D29FED890AB0EE40
:1019200040AA844890ED040AB8EEC00AF0EE40AA3E
:101930009FED7F0ACAEE800AF0EE60AA9FED7E0A54
:10194000F4EEC0AAF1EE10FA06DC9FED7C0AF4EE8C
:10195000C0AAF1EE10FA03D29FED7A0AF0EE40AA87
:10196000744890ED050AB8EEC00AB0EE40BA9FED9B
:10197000700ACBEE000AB0EE60BA9FED730AB4EEC7
:10198000C0BAF1EE10FA06DC9FED700AB4EEC0BAF0
:10199000F1EE10FA03D29FED6E0AB0EE40BAB0EE4F
:1019A0006B0AFEF7A9FCB0EE409AB0EE6B0AFEF7A8
:1019B00067FCF0EE409A18EE100AFEF71AFF9FED52
:1019C000650B53EC102BCDE90A019DED0A0B51EC90
:1019D000100BFEF73DFDCDE90C019DED0C0B51EC1C
:1019E000100BFEF749FF0FEE900AB0EE6F0AFEF7FC
:1019F00083FCB0EE40EA18EE100AFEF7FAFE9FED07
:101A0000550B53EC102BCDE90A019DED0A0B51EC5F
:101A1000100BFEF71DFDCDE90C019DED0C0B51ECFB
:101A2000100BFEF729FF0FEE900AB0EE6F0AFEF7DB
:101A300027FCB0EE40CA38EE280A10EE101A08460D
:101A4000FEF7D7FE9FED450B53EC102BCDE90A01B5
:101A50009DED0A0B51EC100BFEF7FAFCCDE90C01E1
:101A60009DED0C0B51EC100BFEF706FF0FEE900AEC
:101A7000B0EE6F0AFEF740FCF0EE40EA38EE280ABE
:101A800010EE101A0846FEF7B4FE9FED340B53EC2F
:101A9000102BCDE90A019DED0A0B51EC100BFEF75E
:101AA000D7FCCDE90C019DED0C0B51EC100BFEF7B2
:101AB000E3FE0FEE900AB0EE6F0AFEF7E1FBF0EEE8
:101AC00040CA38EE280A10EE101A0846FEF791FEBA
:101AD0009FED240B53EC102BCDE90A019DED0A0B71
:101AE00051EC100BFEF7B4FCCDE90C013EE0000018
:101AF000300000201400002018000020D44B010802
:101B000004000020E40700206CD6030083F9A247FC
:101B1000F0BA0400809D0500308202007C020020A3
:101B200000401C460000044200008A4224080020B5
:101B300000007A446408002000004843000048C3C5
:101B400000803B450000FA430000C8430000C8C3C2
:101B500000002F4460E5D022DBF9FA3FD1402C9BF6
:101B60003924E93FA5A0DB4B1A23F93F9DED0C0B6F
:101B700051EC100BFEF780FE0FEE900AB0EE6F0AEC
:101B8000FEF7BAFBB0EE40DA38EE280A10EE101A73
:101B90000846FEF72EFE1FED0D0B53EC102BCDE982
:101BA0000A019DED0A0B51EC100BFEF751FCCDE93B
:101BB0000C019DED0C0B51EC100BFEF75DFE0FEED2
:101BC000900AB0EE6F0AFEF75BFBB0EE40FA9B485E
:101BD00090ED000A20EE290A20EE0D0ADFED980AAA
:101BE00069EEA00A00EE8C0ADFED960A69EEA00A03
:101BF00000EEAC0A944880ED000A904890ED000A8F
:101C000020EE090A20EE0D0ADFED8D0A69EE200AAA
:101C100000EE8C0ADFED8B0A69EE200A00EEAC0ABA
:101C20008A4880ED000A9FED860A2EEE000A83485E
:101C3000D0ED000A00EECF0ADFED820A00EEAE0A18
:101C4000834880ED000A1DEE900AFEF7D2FD9FED5D
:101C5000810B53EC102BCDE904019DED040B51ECED
:101C6000100BFEF79CFCCDE90C0118EE900AFEF774
:101C7000C0FD9FED780B53EC102BCDE904019DEDD9
:101C8000040B51EC100BFEF78AFCCDE90A0118EEAB
:101C9000100AFEF7AEFD9FED6F0B53EC102BCDE954
:101CA00004019DED040B51EC100BFEF778FCCDE91F
:101CB00008011BEE900AFEF79CFD9FED660B53ECAE
:101CC000102BCDE904019DED040B51EC100BFEF738
:101CD00066FCCDE906019DED0C0B8DED040B9DED31
:101CE0000A0B8DED020B9DED080B8DED000B9DEDAC
:101CF000060B53EC102B59A10EA807F073FC2222FF
:101D00000EA95E48FEF773FB51480068FEF771FDAF
:101D1000CDE90C014D480068FEF76BFDCDE90A01E5
:101D200049480068FEF765FDCDE908019DED0C0B03
:101D30008DED020B9DED0A0B8DED000B9DED080B5B
:101D400053EC102B4EA10EA807F04CFC1A220EA942
:101D50004A482230FEF74BFB4F480068FEF749FD2A
:101D6000CDE90C011BEE100AFEF743FDCDE90A0197
:101D70001AEE900AFEF73DFDB1EE4A0ACDE90801E0
:101D800010EE100AFEF735FDCDE906019DED0C0BB6
:101D90008DED040B9DED0A0B8DED020B9DED080BF7
:101DA0008DED000B9DED060B53EC102B3BA10EA807
:101DB00007F018FC1E220EA930483C30FEF717FB36
:101DC0005A203E4908600CF017FF3D4908603B4827
:101DD000008881B23A4800680CF07CFE38490968F6
:101DE0000968486835490A682449FEF700FB344809
:101DF0000168344800680DF05DFA314800680CF065
:101E0000EBFE2E4801681D48FEF70AFB00202B4917
:101E100008602D488088401C00B22B498880084605
:101E2000B0F90400642805DB0A2088804FF47A703A
:101E3000088048800A200DF007FEC0E4F44A01083B
:101E40000E8DCE4300007A426C0300207003002008
:101E500074030020D9CEF753E3A54C40413A253016
:101E6000372E32662C2530372E32662C2530372E11
:101E700032662C2530372E32662C0000F405002007
:101E8000503A2530372E32662C2530372E32662CCC
:101E90002530372E32662C0060000020463A25306F
:101EA000362E31662C2530362E31662C2530362ED6
:101EB00031662C2530362E31662C000020000020A3
:101EC00040000020240000207C02002010B52DEDF1
:101ED000068B8AB000200290039001200190002020
:101EE00008EE100A0024069007904FF4C06004909A
:101EF00008200890FE48007853287DD1FC4840789F
:101F00005828FAD1FA48007F2C28F6D10120F94947
:101F10000870084690F90000F74991F900108842CE
:101F200016D0F44890F90000F3490870F34890ED9A
:101F3000000AF34880ED000AF24890ED000AF248EA
:101F400080ED000AF14890ED000AF14880ED000AAA
:101F5000E74840792D2807D1E548801D06F0EAF8CA
:101F6000C04308EE100A05E0E148801D06F0E2F8E3
:101F700008EE100AB8EEC80AE64880ED000A90EDB7
:101F8000000ADFEDE50A80EE201A80ED001ADC4839
:101F900090ED000ADF48D0ED000A30EE200A80ED17
:101FA000000AD348407B2D2807D1D1480E3006F0D7
:101FB000C1F8C04308EE100A05E0CD480E3006F027
:101FC000B9F808EE100AB8EEC80AD44880ED000A45
:101FD00090ED000ADFEDD00A80EE201A80ED001AA5
:101FE000C94890ED000ACD48D0ED000A30EE200A35
:101FF00080ED000ABE4800E028E0407D2D2807D192
:10200000BB48163006F096F8C04308EE100A05E00B
:10201000B748163006F08EF808EE100AB8EEC80A77
:10202000BF4880ED000A90ED000ADFEDBB0A80EEAC
:10203000201A80ED001AB64890ED000AB848D0ED9D
:10204000000A30EE200A80ED000A96E2A8480078E7
:10205000502873D1A648407858286FD1A448007FF3
:102060002C286BD10220A3490870084690F9000083
:10207000A14991F90010884216D09E4890F90000BD
:102080009D4908709D4890ED000A9D4880ED000A2A
:102090009C4890ED000A9C4880ED000A9B4890ED1A
:1020A000000A9B4880ED000A914840792D2807D10D
:1020B0008F48801D06F03EF8C04308EE100A05E088
:1020C0008B48801D06F036F808EE100AB8EEC80AF4
:1020D000904880ED000A90ED000ADFED8F0A80EE57
:1020E000201A80ED001A8248407B2D2807D18048B5
:1020F0000E3006F01FF8C04308EE100A05E07C48D9
:102100000E3006F017F808EE100AB8EEC80A834839
:1021100080ED000A90ED000ADFED7F0A80EE201AC4
:1021200080ED001A7248407D2D2808D17048163085
:1021300006F000F8C04308EE100A06E013E06C4811
:10214000163005F0F7FF08EE100AB8EEC80A74481A
:1021500080ED000A90ED000ADFED6F0A80EE201A94
:1021600080ED001A09E26248007841287DD160487C
:10217000C0792C28FAD15E48807B2C28F6D1032028
:102180005C4908705A4840782D2807D15848801C6F
:1021900005F0D0FFC04308EE100A05E05448801C4B
:1021A00005F0C8FF08EE100AB8EEC80A5D4880EDD9
:1021B000000A0068FEF71DFB41EC1A0B9FED5A0B5D
:1021C00053EC102BFEF75DFA41EC190BFEF754FBB4
:1021D000544908604648007A2D2807D14448093000
:1021E00005F0A8FFC04308EE100A05E0404809309A
:1021F00005F0A0FF08EE100AB8EEC80A4C4880EDC2
:10220000000A0068FEF7F5FA41EC1A0B9FED460B49
:1022100053EC102BFEF735FA41EC190BFEF72CFBB3
:10222000434908603248C07B2D2807D13048103020
:1022300005F080FFC04308EE100A05E02C4810307E
:1022400005F078FF08EE100AB8EEC80A394880EDAC
:10225000000A0068FEF7CDFA41EC1A0B9FED320B35
:1022600053EC102BFEF70DFA00E02EE041EC190BB9
:10227000FEF702FB2F4908601D48807D2D2807D1FD
:102280001B48173005F056FFC04308EE100A05E062
:102290001748173005F04EFF08EE100AB8EEC80ACE
:1022A000254880ED000A0068FEF7A3FA41EC1A0BFE
:1022B0009FED1D0B53EC102BFEF7E3F941EC190BCE
:1022C000FEF7DAFA1C49086057E1094800785328FC
:1022D0003ED10748407854283AD10548C078502864
:1022E00036D104200349087001228021134827E0D9
:1022F000BC06002028030020290300206C030020D6
:1023000048030020700300204C03002074030020C9
:10231000500300203003002000007A4434030020E2
:10232000380300209C0200202ECC9DF49361B6401F
:10233000A0020020A4020020A80200200008024001
:1023400002F0C8FA4FF47A70FE490880488014E120
:10235000FD48007846287ED1FB48407858287AD13D
:10236000F948C078502876D10520F8490870F64819
:1023700040792D2807D1F448801D05F0DBFEC043CD
:1023800008EE100A05E0F048401D05F0D3FE08EE07
:10239000100AEF4880ED0F8AEB48007A2D2807D10C
:1023A000E948093005F0C6FEC04308EE100A05E012
:1023B000E548083005F0BEFE08EE100AB8EEC80A7F
:1023C000E44880ED000A90ED000ADFEDE30A80EEBC
:1023D000201A80ED001ADC48407B2D2807D1DA480E
:1023E0000E3005F0A7FEC04308EE100A05E0D648FF
:1023F0000D3005F09FFE08EE100AB8EEC80AD74867
:1024000080ED000A90ED000ADFEDD30A80EE201A7D
:1024100080ED001ACC48807C2D2807D1CA481330A3
:1024200005F088FEC04308EE100A05E0C6481230E9
:1024300005F080FE08EE100AB8EEC80AC84880ED24
:10244000000A90ED000ADFEDC40A80EE201A80ED4C
:10245000001A92E0FFE7BC48007846287ED1BA48CF
:1024600040785A287AD1B848C078502876D10620CA
:10247000B6490870B44840792D2807D1B248801D6C
:1024800005F058FEC04308EE100A05E0AE48401DB6
:1024900005F050FE08EE100AAD4880ED0F8AAA48FC
:1024A000007A2D2807D1A848093005F043FEC04323
:1024B00008EE100A05E0A448083005F03BFE08EEDF
:1024C000100AB8EEC80AA34880ED000A90ED000A91
:1024D000DFEDA10A80EE201A80ED001A9A48407BB9
:1024E0002D2807D198480E3005F024FEC04308EE91
:1024F000100A05E094480D3005F01CFE08EE100AA5
:10250000B8EEC80A954880ED000A90ED000ADFEDAC
:10251000920A80EE201A80ED001A8B48807C2D28CC
:1025200007D18948133005F005FEC04308EE100AB4
:1025300005E08548123005F0FDFD08EE100AB8EE02
:10254000C80A874880ED000A90ED000ADFED820A94
:1025500080EE201A80ED001A0FE0FFE77A4800783D
:1025600046280AD178484078592806D17648C0785C
:10257000502802D10720754908707348407F794977
:1025800008807148807F097800EB01207549088038
:102590000846008845F24712811A90424BD008DC69
:1025A000A0F59440A0F1430088B3B0F5447F72D108
:1025B0001AE0A1F20A2020B1A0F2037000286AD12B
:1025C00026E06148203005F0B5FD04B201206649DF
:1025D000087040F6B830844201DC002C01DA4FF478
:1025E0007A746248046057E001205F4908705648D9
:1025F000203005F09FFD04B240F6B830844201DC83
:10260000002C00DA0A2459480830046044E026E02F
:102610000120554908704C48203005F08BFD04B26C
:1026200040F6B830844201DC002C00DA0A244F481E
:102630000830046030E001204B49087042482030E7
:1026400005F078FD04B240F6B830844201DC002C7D
:1026500001DA4FF47A7445480C3004601CE0012024
:10266000414908703848203005F064FD04B240F656
:10267000B830844201DC002C01DA40F2DC543C48E2
:102680000460006840F2DC51884202D101203949DF
:10269000087001E0FFE700BF00BF2B4890F82A0058
:1026A0004A2825D1284890F82B005A2820D12648BE
:1026B00090F82C0048281BD1234890F82E008DF864
:1026C0000800214890F82F008DF809001E4890F866
:1026D00030008DF80A001C4890F831008DF80B008E
:1026E0000120049001AB02AA04A9234800F01FFBBB
:1026F000154890F833004C281AD1134890F834004C
:102700005F2815D1104890F83E002C2810D10020E9
:102710000C4988800C48353005F00CFD04B209489E
:10272000048009483A3005F005FD04B205484480AC
:10273000054890F83F00442855D1034890F84000E0
:102740003A281BE07C020020BC0600202803002061
:10275000640800203C0300200000C8424003002021
:102760004403002032000020790200203408004099
:102770003C0400407A020020D409002033D11C48D8
:1027800090F842002F282ED1194890F841003028A7
:1027900005D101228021174802F09CF809E0144875
:1027A00090F84100312804D100228021114802F024
:1027B00091F80F4890F84100332801D105F05CFCF6
:1027C0000B4890F84100342804D14FF4FA600A49CC
:1027D000086008E0064890F84100352803D140F22F
:1027E000DC50054908600AB0BDEC068B10BD000046
:1027F000BC060020000802403808004008B502E08E
:1028000001200DF021F9564800780028F8D1002267
:10281000114620200CF05EFB524908600846006813
:10282000002851D05048028850494E4800680CF0AA
:1028300089FA4F48007800064D49497840EA01403E
:102840004B49897840EA01204949C9780843020682
:102850004748007800064649497840EA0140444923
:10286000897840EA01204249C978084300F47F4052
:1028700042EA00223E48007800063D49497840EA95
:1028800001413B48807841EA00203949C978084332
:1028900000F47F0042EA10223548007801063448EF
:1028A000407841EA00413248807841EA00203049CE
:1028B000C978084342EA106000902B4802886946B4
:1028C000284800680CF0A0FAC8200DF0BDF800BF41
:1028D0002849244800680CF0B1FB2648006800280D
:1028E0003AD000202449086050212448FDF798FD83
:1028F00020480068046826E060891F490968C1F122
:10290000500188420BD91C4B1B68C3F150021B4B72
:10291000194D61682D685819FDF769FD07E0628956
:10292000164B154D61682D685819FDF760FD6089DB
:102930001149096808441049086008460068502891
:1029400000D902E02468002CD6D100BF09480068F5
:102950000CF042F9FFF7BAFA02200DF075F8B7E76C
:10296000300000202400002028000020D44B010863
:10297000040000203C0000202C000020BC060020A9
:1029800038B502460020009000BF92F83C000128B4
:1029900001D1022038BD012082F83C0000BF086848
:1029A000092816D91068C0680C780A3C04EB440565
:1029B0000724AC40A0431468E0600C780A3C04EBA8
:1029C00044048868A0401468E46820431468E06008
:1029D00013E0106800690C7804EB44050724AC4050
:1029E000A043146820610C7804EB44048868A0407C
:1029F000146824692043146820614868072817D2A6
:102A00001068406B0C79641E04EB84051F24AC40F5
:102A1000A04314686063088880B20C79641E04EBDC
:102A20008404A0401468646B20431468606331E040
:102A300048680D2817D21068006B0C79E41F04EB6E
:102A400084051F24AC40A04314682063088880B22A
:102A50000C79E41F04EB8404A0401468246B204329
:102A60001468206316E01068C06A0C790D3C04EB12
:102A700084051F24AC40A0431468E062088880B23B
:102A80000C790D3C04EB8404A0401468E46A2043F4
:102A90001468E062194B1A4C1068A04206D108680D
:102AA000122803D1586840F480005860144C106814
:102AB000A0421CD10868102802D00868112816D13D
:102AC000586840F400005860086810280FD10D487D
:102AD00000680D4CB0FBF4F000EB8000400000906B
:102AE00002E00098401E009000980028F9D100BF35
:102AF000002082F83C0000BF00BF4BE700230140EC
:102B000000200140F803002040420F00704770474A
:102B10007047000070B5044600250CB9012070BD57
:102B20001549A06A884200D000BF206C30B9204609
:102B300000F024F80020606484F83C00206C00F071
:102B4000100088B9206C20F4885040F00200206406
:102B50002046FEF7D3F800206064206C20F00200CD
:102B600040F00100206400E0012500BF002084F84F
:102B70003C0000BF2846D2E70100000F704700006C
:102B8000F8B504460D4616460020009000BF94F8A4
:102B90003C00012801D10220F8BD012084F83C004E
:102BA00000BF2068806800F00100A0B9206880683C
:102BB00040F0010021688860494800684949B0FB3D
:102BC000F1F000EB4000009002E00098401E009001
:102BD00000980028F9D12068806800F001000028E2
:102BE0007CD0206C40F20161884340F48070206406
:102BF0002068406800F4806028B1206C20F4005008
:102C000040F480502064206C00F48050B0F5805F68
:102C100004D1606C20F00600606401E00020606474
:102C200000BF002084F83C0000BF2F4F2F48A16B4D
:102C3000C8632F48A16B08642E48A16BC8646FF06D
:102C40002200216808602068406840F080602168A8
:102C500048602068806840F480702168886022683D
:102C600002F14C0133462A46A06B01F03AF878682D
:102C700000F01F0018BB20492068884213D01F496C
:102C80002068884204D1381D006800F01F0050B150
:102C90001B492068884221D11348001D006800F0BC
:102CA0001F0010281AD22068806800F0405028B910
:102CB0002068806840F08040216888600EE00E49FE
:102CC000206888420AD12068806800F0405028B906
:102CD0002068806840F080402168886000205BE7C1
:102CE000F803002040420F0000230140550C00086B
:102CF000ED0C0008D30C0008002001400021014029
:102D00000022014010B5024692F82030012B01D07C
:102D1000022B06D1106840690843146860610020E6
:102D200010BD506A40F4802050620120F8E7F0B5F1
:102D300004460D461E4694F8207020688368A868F3
:102D400000B900E000BF012F01D0022F7CD103F0B9
:102D5000806030B903F0006018B903F0805000289B
:102D600073D0C3F30161022905D9606A40F4000001
:102D700060620120F0BD012088403060A86860B921
:102D8000B5F800C0E86840EA4C5C206800F5C07007
:102D900000EB0110C0F800C00FE0D5E901C040EA27
:102DA000CC00D5F80CC040EA0C00D4F800C00CF5FB
:102DB000C07C0CEB011CCCF80000D5F810C02068DA
:102DC00000F5C07000EB0110C0F804C0287D012898
:102DD0000ED1206800F5C07000EB0110406840F48F
:102DE000807C206800F5C07000EB0110C0F804C0C2
:102DF000D079000692F806C040EA0C4092F805C06F
:102E000040EA0C2C10794CEA000C206800F5C070E8
:102E100000EB0110C0F80CC0D078000692F802C098
:102E200040EA0C4092F801C040EA0C2092F800C041
:102E300040EA0C00D4F800C00CF5C07C0CEB011C7F
:102E4000CCF80800206801E016E00FE000F5C07043
:102E500000EB0110006840F0010C206800F5C07024
:102E600000EB0110C0F800C0002083E7606A40F466
:102E70000010606201207DE7606A40F4802060629B
:102E8000012077E7F0B504460A46216894F82050FF
:102E9000012D01D0022D7ED1424901F50071086853
:102EA00040F001000860086820F47C500860086861
:102EB000566A40EA06200860107D00F01F060120D7
:102EC00000FA06F3C8699843C861A1F50071D0699A
:102ED000C8B9D1F80C029843C1F80C02908880B2AE
:102EE000968940EA064601F51070576940F8376048
:102EF000108880B2168940EA064601F510705769BD
:102F000000EBC7004660D069012819D1D1F80C0246
:102F10001843C1F80C02908880B2168840EA064631
:102F200001F51070576940F83760908980B21689B2
:102F300040EA064601F51070576900EBC70046608D
:102F4000906928B9D1F804029843C1F8040204E05A
:102F5000D1F804021843C1F80402106928B9D1F865
:102F600014029843C1F8140204E0D1F81402184383
:102F7000C1F81402106A012804D1D1F81C021843C8
:102F8000C1F81C02D1F8000220F00100C1F80002D3
:102F90000020F0BDFFE7606A40F4802060620120FD
:102FA000F7E700000064004010B5044604F032F872
:102FB000FDF7DEFF10BD70B5044694F82050012DDA
:102FC00001D0022D7DD151B92068C06800F0030006
:102FD00080B9606A40F400106062012070BD206812
:102FE000006900F0030028B9606A40F400106062D4
:102FF0000120F3E7206800F5D87000EB01100068AD
:1030000000F004009060906840B9206800F5D87026
:1030100000EB01100068400D106007E0206800F52B
:10302000D87000EB01100068C0085060206800F5FF
:10303000D87000EB0110006800F00200D06020683A
:1030400000F5D87000EB0110406800F00F0010612F
:10305000206800F5D87000EB0110406800F47F4054
:10306000000A9061206800F5D87000EB01104068FC
:10307000000C5061206800F5D87000EB01108068EA
:103080001870206800F5D87000EB0110806800F41B
:103090007F40000A5870206800F5D87000EB0110DE
:1030A000806800F47F00000C9870206800F5D870EC
:1030B00000EB01108068000ED870206800F5D87011
:1030C00000E02FE000EB0110C0681871206800F5E7
:1030D000D87000EB0110C06800F47F40000A5871FE
:1030E000206800F5D87000EB0110C06800F47F0084
:1030F000000C9871206800F5D87000EB0110C068D2
:10310000000ED87131B92068C06840F020002668F0
:10311000F06005E02068006940F02000266830611A
:1031200000205BE7606A40F480206062012055E780
:103130002DE9F05F04460025206846692068D0F834
:103140000490206887682068D0F80CA02068D0F828
:1031500010B02068D0F8188006F00100002855D083
:1031600007F00100C0B101202168886007F002006B
:1031700018B1204600F07DFB0EE007F0040010B10E
:1031800045F4006508E007F0080010B145F48055EB
:1031900002E0204600F06CFB07F48070C8B14FF4E9
:1031A00080702168886007F4007018B1204600F034
:1031B00062FB0EE007F4806010B145F4005508E0B2
:1031C00007F4006010B145F4804502E0204600F0AD
:1031D00051FB07F48030C8B14FF48030216888601B
:1031E00007F4003018B1204600F047FB0EE007F46A
:1031F000802010B145F4004508E007F4002010B12C
:1032000045F4803502E0204600F036FB06F0080069
:1032100038B10AF0100020B145F400751020216883
:10322000C86006F0040040B10AF0080028B1082088
:103230002168C860204600F0EBF906F0020038B1C2
:103240002068C06800F0030010B1204600F0E2F9E9
:1032500006F0400038B10BF0100020B145F4806555
:1032600010202168086106F0200040B10BF0080032
:1032700028B1082021680861204600F09BFA06F07A
:10328000100038B12068006900F0030010B120463A
:1032900000F092FA06F4003040B109F0100028B1B5
:1032A000102021684860204600F0B2FA06F4803011
:1032B00040B109F0080028B1082021684860204684
:1032C00000F0DCFA06F4004088B309F0040078B39B
:1032D00006F4807020B108F0010008B145F0010546
:1032E00006F4007020B108F0020008B145F00205B4
:1032F00006F4806020B108F0040008B145F0040530
:1033000006F40060A0B108F0700088B108F0700009
:10331000402817D006DC10280BD020280CD03028ED
:1033200019D10CE0502810D0602814D110E01DE015
:1033300019E045F008050FE045F010050CE045F0F8
:10334000200509E045F0400506E045F0800503E072
:1033500045F4807500E000BF00BF2068806920F060
:103360007000216888610420216848602DB1606A7E
:10337000284360622046FFF717FEBDE8F09F70B556
:1033800004460CB9012070BD94F8200010B9204605
:1033900000F0B0F82068006820F0020021680860A2
:1033A00001F09EFA05460DE001F09AFA401B0A284A
:1033B00008D9606A40F400306062052084F820007B
:1033C0000120E0E72068406800F002000028EBD10F
:1033D0002068006840F001002168086001F080FA70
:1033E00005460DE001F07CFA401B0A2808D9606A06
:1033F00040F400306062052084F820000120C2E71C
:103400002068406800F001000028EBD0207E0128F1
:1034100006D12068006840F080002168086005E05F
:103420002068006820F0800021680860607E012824
:1034300006D12068006840F040002168086005E07F
:103440002068006820F0400021680860A07E012804
:1034500006D12068006840F020002168086005E07F
:103460002068006820F0200021680860E07E0128C4
:1034700006D12068006820F010002168086005E08F
:103480002068006840F0100021680860207F012853
:1034900006D12068006840F008002168086005E057
:1034A0002068006820F0080021680860607F01281B
:1034B00006D12068006840F004002168086005E03B
:1034C0002068006820F0040021680860D4E9020147
:1034D000084321690843616908436168491E08433C
:1034E0002168C86100206062012084F8200000206B
:1034F00049E7000010B586B00446142101A8FCF786
:103500008FFF3E492068884238D100BF00200090DC
:103510003B48006840F00070394908600846006880
:1035200000F00070009000BF00BF00BF00200090BE
:1035300033481038006840F00800314910390860FD
:103540000846006800F00800009000BF00BF03209C
:103550000190022002900020039003200490092093
:10356000059001A9274801F0B5F800220521152092
:1035700001F066FA152001F053FA3CE02249206878
:10358000884238D100BF002000901D48006840F0FC
:1035900080601B4908600846006800F08060009069
:1035A00000BF00BF00BF0020009015481038006821
:1035B00040F002001249103908600846006800F027
:1035C0000200009000BF00BF4FF440500190022065
:1035D000029000200390032004900920059001A987
:1035E0000A4801F077F800221146402001F028FA3D
:1035F000402001F015FA06B010BD00000064004044
:1036000040380240000C02400068004000040240C4
:103610007047000030B587B0044600255E49206839
:1036200088422BD15D4B6A4600215D48FFF7C3FC01
:103630000028F6D140F28B11009888421FD100205B
:103640000090564800785549497840EA012053498E
:10365000897840EA01405149C97840EA01605149FE
:10366000C8620846C06A5049C8624C4800794B4954
:10367000497940EA012000B24C49C8828AE00098AA
:10368000B0F5C67F1FD10020009044480078434920
:10369000497840EA01204149897840EA01403F49A0
:1036A000C97840EA01603F4908630846006B3E491B
:1036B00008633A4800793949497940EA012000B263
:1036C0003A49088366E040F28D11009888421FD184
:1036D00000200090314800783049497840EA0120C4
:1036E0002E49897840EA01402C49C97840EA0160B6
:1036F0002C4948630846406B2B49486327480079AA
:103700002649497940EA012000B22849488341E02E
:103710000098B0F5C57F1FD1002000901F480078A9
:103720001E49497840EA01201C49897840EA014055
:103730001A49C97840EA01601A4988620846806AD5
:1037400019498862154800791449497940EA0120ED
:1037500000B2164988821DE040F2CC5100988842A0
:1037600018D1002000900D48007898B90B480079D6
:103770003E280FD10948C0780849897840EA0120DD
:103780000649497840EA01400449097840EA016560
:103790000748056007B030BD006800407C0000208D
:1037A000D4090020E4070020640700207C020020E8
:1037B000240800207047000030B58BB00546124B3E
:1037C00004AA01211148FFF7F6FBD8B90598C0F308
:1037D000074454B90C48039008A807C88DE80700AF
:1037E00004A80FC80BF0DCF80BE0012C09D1064847
:1037F000039008A807C88DE8070004A80FC808F0C0
:103800001BFE00BF0BB030BD84000020AC090020BF
:10381000704770B5044694F82000012822D1022098
:1038200084F820002068006820F00100216808600A
:1038300001F056F805460DE001F052F8401B0A2849
:1038400008D9606A40F400306062052084F82000E6
:10385000012070BD2068406800F001000028EBD115
:103860006062F6E7606A40F4002060620120F0E7E1
:10387000704770477047704770477047704770B522
:103880000446A56D01F02CF8064694F83500022890
:1038900008D08020606500BF002084F8340000BF9D
:1038A000012070BD2068006820F0160021680860C3
:1038B0002068406920F0800021684861206C08B9C8
:1038C000A06C28B12068006820F00800216808601A
:1038D0002068006820F00100216808600FE000F017
:1038E000FFFF801B05280AD92020606500BF00204B
:1038F00084F8340000BF032084F83500D1E7206845
:10390000006800F001000028E9D194F85C103F2025
:103910008840A86000BF002084F8340000BF012068
:1039200084F835000020BCE7014691F835000228F4
:1039300003D08020486501207047052081F83500BC
:103940000868006820F001000A6810600020F3E7B2
:10395000F8B50446002000908C4800684FF41651DA
:10396000B0FBF1F7A56D2E6894F85C100820884034
:10397000304098B12068006800F0040070B1206801
:10398000006820F004002168086094F85C100820AA
:103990008840A860606D40F00100606594F85C109C
:1039A00001208840304068B12068406900F0800004
:1039B00040B194F85C1001208840A860606D40F030
:1039C0000200606594F85C1004208840304068B1C3
:1039D0002068006800F0020040B194F85C100420F8
:1039E0008840A860606D40F00400606594F85C1049
:1039F00010208840304078B32068006800F008004C
:103A000050B394F85C1010208840A86020680068CB
:103A100000F4802080B12068006800F4002028B9FC
:103A2000206CC8B12046216C884715E0A06C98B185
:103A30002046A16C88470FE02068006800F4807081
:103A400028B92068006820F0080021680860206C10
:103A500010B12046216C884794F85C1020208840E3
:103A60003040002865D02068006800F01000002871
:103A70005FD094F85C1020208840A86094F835004E
:103A8000052828D12068006820F016002168086009
:103A90002068406920F0800021684861206C08B9E6
:103AA000A06C28B12068006820F008002168086038
:103AB00094F85C103F208840A86000BF002084F884
:103AC000340000BF012084F83500206D10B120467D
:103AD000216D8847F8BD2068006800F4802080B11F
:103AE0002068006800F4002028B9606C10B12046FE
:103AF000616C88471DE0E06BD8B12046E16B8847D8
:103B000017E02068006800F4807068B920680068D9
:103B100020F010002168086000BF002084F8340005
:103B200000BF012084F83500E06B10B12046E16B46
:103B30008847606D38B3606D00F00100F0B105207A
:103B400084F835002068006820F0010021680860D2
:103B500000BF0098401C0090B84200D905E02068E2
:103B6000006800F001000028F3D100BF00BF002072
:103B700084F8340000BF012084F83500E06C10B1F7
:103B80002046E16C884700BFA4E70000F80300204E
:103B90002DE9F0410446002500F0A2FE074614B9C5
:103BA0000120BDE8F081606A00B100BF00BF0020C5
:103BB00084F8340000BF022084F8350020680068D3
:103BC00020F00100216808600AE000F089FEC01BB7
:103BD000052805D920206065032084F83500E0E73A
:103BE0002068006800F001000028EED12068056818
:103BF00021480540D4E901010843E16808432169EF
:103C0000084361690843A1690843E1690843216ADF
:103C100008430543606A042803D1D4E90B01084333
:103C20000543206805602068456925F00705606A3E
:103C30000543606A04280DD1A06A0543E06A48B1D3
:103C40002046FDF71DFA28B140206065012084F868
:103C50003500A6E7206845612046FDF7F7F90646DE
:103C600094F85C103F208840B0600020606501201F
:103C700084F83500002094E73F8010F02DE9F041F2
:103C800004460D4616461F464FF0000800BF94F844
:103C90003400012802D10220BDE8F081012084F81F
:103CA000340000BF94F83500012811D1022084F8B7
:103CB0003500002060653B46324629462046FDF728
:103CC00034FA2068006840F001002168086006E0CE
:103CD00000BF002084F8340000BF4FF002084046C7
:103CE000DAE72DE9F04704460D4616461F464FF029
:103CF0000008D4F8589000BF94F83400012802D18D
:103D00000220BDE8F087012084F8340000BF94F859
:103D10003500012825D1022084F835000020606597
:103D20003B46324629462046FDF7FFF994F85C10E1
:103D30003F208840C9F808002068006840F016005D
:103D400021680860206C28B12068006840F00800F5
:103D5000216808602068006840F001002168086060
:103D600006E000BF002084F8340000BF4FF00208D6
:103D70004046C6E770B5044600F0B2FD064625464B
:103D8000681C10B104480078054400BF00F0A8FD8D
:103D9000801BA842FAD370BDF403002070B504461E
:103DA0000D461646002200BF94F84500012801D1B7
:103DB000022070BD012084F8450000BF022084F875
:103DC0004400A56200221FE005EB42114FF00040C5
:103DD000086044F2F4504860C2EBC21000EB4000AF
:103DE00006EB80008860A069012803D1486820F0B4
:103DF00000404860581E904204D905EB4210203024
:103E0000C86000E0CD60521C9A42DDD3206800F506
:103E10008050C560012084F8440000BF002084F871
:103E2000450000BF00BFC4E770B504460D46164606
:103E3000002200BF94F84500012801D1022070BD86
:103E4000012084F8450000BF022084F84400E562A8
:103E500000221BE005EB42114FF480100860C2EB1A
:103E6000C21000EB400006EB80008860E06918B9E2
:103E7000086840F440000860581E904204D905EBE1
:103E800042102030C86000E0CD60521C9A42E1D35D
:103E9000206800F580500561012084F8440000BFCF
:103EA000002084F8450000BF00BFC8E77047014606
:103EB000002200BF91F84500012801D1022070477F
:103EC000012081F8450000BF022081F844003AE05B
:103ED000521C886A006800F44070B0F5007F07D17A
:103EE000886A086301238B63886AC06888622AE055
:103EF000886A006800F4407030B9886B401C8863A1
:103F0000886AC06888621EE08B6A4B63886B401CBD
:103F10008863886B012801D1886A0863886A006811
:103F2000C0F30D40001FC863086B83680B64886A88
:103F3000C0688862012081F8440000BF002081F839
:103F4000450000BFBBE7886A006800F0004008B980
:103F5000042ABDD3012081F8440000BF002081F86D
:103F6000450000BF0120AAE710B50446206800F50F
:103F70008050406900F0400040280FD1204600F0FA
:103F80008DFA4021206800F580504161012084F8BD
:103F9000440000BF002084F8450016E0206800F5CA
:103FA0008050406900F0010078B1204600F048FBE5
:103FB0000121206800F580504161012084F844000F
:103FC00000BF002084F8450000BF4FF48031206816
:103FD00000F580504161206800F58050406900F490
:103FE0000040B0F5004F10D12046FFF75FFF4FF4BF
:103FF0000041206800F580504161012084F84400B0
:1040000000BF002084F8450000BF10BD2DE9FC4131
:1040100004460025002001909F4E0027804614B9D9
:104020000120BDE8FC8194F8440028B9002084F800
:104030004500204600F03EF900BF00200090974860
:10404000006840F48040954908600846006800F424
:104050008040009000BF00BF9148006820F400003D
:104060008F49086008460068216A08438C49086047
:10407000206800F58050006840F00101206800F5DC
:104080008050016000F02CFC07460FE000F028FC97
:10409000C01BB0F5FA7F09D9032084F8440000BFA3
:1040A000002084F8450000BF0320BAE7206800F52F
:1040B0008050006800F001000028E7D12068056901
:1040C00025F01C0500F0F2FD06467648864205D331
:1040D0007548864202D245F008051AE072488642C9
:1040E00005D36D48864202D245F00C0511E06A48BE
:1040F000864203D36D48864200D20AE06B4886426E
:1041000005D36B48864202D245F0040501E045F034
:104110001005206805614FF400420021204600F0A0
:1041200090FA48B14FF0010841462046FDF77CF86F
:10413000012084F8440074E7FF20FFF71BFE60684D
:10414000002871D000F0CCFB074600BF01AA012176
:10415000204600F059F900F0C3FBC01B41F2883142
:1041600088420FD94FF0010841462046FDF75CF820
:10417000012084F8440000BF002084F8450000BFFF
:1041800003204EE7019800F004000428DED18202EB
:104190000021204600F055FA48B14FF00108414691
:1041A0002046FDF741F8012084F8440039E700F08B
:1041B00097FB074600BF01AA0121204600F024F921
:1041C00000F08EFBC01B41F2883188420FD94FF0BE
:1041D000010841462046FDF727F8012084F84400F5
:1041E00000BF002084F8450000BF032019E70198B4
:1041F00000F020002028DED101AA1F21204600F077
:1042000003F948B14FF0010841462046FDF70CF88C
:10421000012084F8440004E7019800F0100020B168
:104220004FF40061E16002E00DE00021E1600198DF
:1042300000F00400042802D10021A16022E04FF424
:104240008041A1601EE040F6FF70FFF793FDE0683B
:10425000C0F3CF00A168C1F34F0140EA0102002181
:10426000204600F0EEF948B14FF0010841462046E3
:10427000FCF7DAFF012084F84400D2E640F6FF7034
:10428000FFF778FD41462046FCF7CEFF012084F879
:1042900044000020C5E60000008793034438024034
:1042A00004380140002D3101C00E160200E1F50571
:1042B00080D1F00810B586B00446142101A8FCF79F
:1042C000AFF84C49206888427ED100BF00BF002073
:1042D00000904948006840F000704749086008466F
:1042E000006800F00070009000BF00BF00BF002019
:1042F00000900846006840F080600860084600684A
:1043000000F08060009000BF00BF00BF0020009060
:104310000846006840F0006008600846006800F049
:104320000060009000BF00BF00BF00BF00200090F1
:104330000846006840F0040008600846006800F085
:104340000400009000BF00BF00BF0020009008469E
:10435000006840F0010008600846006800F00100B5
:10436000009000BF00BF00BF00200090084600681A
:1043700040F0400008600846006800F040000090EF
:1043800000BF00BF32200190022002900020039065
:10439000032004900B20059001A9184800F09AF919
:1043A00086200190022002900020039003200490B8
:1043B0000B20059001A9124800F08CF94FF4D04071
:1043C00001900220029000E011E000200390032001
:1043D00004900B20059001A90A4800F07BF9002207
:1043E00005213D2000F02CFB3D2000F019FB06B01C
:1043F00010BD00000080024030380240000802403A
:1044000000000240001802402DE9F04104460E462B
:1044100017460025A84694F84400822802D10220BD
:10442000BDE8F081822084F844002068056905F029
:104430001C05208A4FF4784101EAC0200543481149
:1044400000EA8610054325F0020545F001052068C5
:10445000056100F045FA804612E000F041FAA0EB59
:104460000800B0F5803F09D3012084F8440000BF64
:10447000002084F8450000BF0320D1E720680569CB
:1044800005F001000028E8D12068406980B238605A
:10449000012084F844000020C2E7000010B5044663
:1044A000024800680BF034FE10BD0000D00300206D
:1044B00010B5044600BF94F84500012801D1022040
:1044C00010BD012084F8450000BF022084F844009C
:1044D0002046FCF7DFFF2046FCF7C8FF2046FCF72C
:1044E00065FE2046FCF743FE2046FCF735FE012022
:1044F00084F8440000BF002084F8450000BF00BFDE
:10450000DEE770B5024600230025002400BF92F8C4
:104510004500012801D1022070BD012082F845002C
:1045200000BF022082F8440049B9012082F844000B
:1045300000BF002082F8450000BF0120ECE7D06AF0
:10454000006800F0004048B1122082F8440000BF2B
:10455000002082F8450000BF0120DDE740F2F45062
:10456000814208D9B1FBF0F3B1FBF0F600FB161065
:1045700010B15B1C00E00123012B13D1D06A00684D
:1045800040F04050D66A3060C1F30C00D66A7060CB
:10459000D06A006840F00040D66A3060D06AC068D7
:1045A000D06232E000242EE0D06A006820F0405053
:1045B000D66A30602CB9D06A006840F08050D66A64
:1045C000306040F2F450D66A7060581EA04210D19C
:1045D000D06A006840F00050D66A3060581EC0EBC8
:1045E000C01000EB4000A1EB8005C5F30C00D66ABB
:1045F0007060D06A006840F00040D66A3060D06ACF
:10460000C068D062641C9C42CED3106800F5805014
:10461000406900F0040048B10426106800F580509D
:1046200046610026106800F580504660012082F83F
:10463000440000BF002082F8450000BF00BF6BE7C8
:1046400070472DE9F04104460E4617460025A8465E
:1046500094F84400422802D10220BDE8F0814220B3
:1046600084F844002068056905F01C05208A4FF491
:10467000784101EAC0200543481100EA861005434D
:1046800045F0020545F00105B8B22168486120688F
:10469000056100F025F9804612E000F021F9A0EB59
:1046A0000800B0F5803F09D3012084F8440000BF22
:1046B000002084F8450000BF0320CEE7206805698C
:1046C00005F001000028E8D1012084F84400002012
:1046D000C3E70000F8B502460B4600250024002081
:1046E0000021DCE0012606FA01F51E6806EA050451
:1046F000AC4273D15E68012E08D05E68022E05D0F0
:104700005E68112E02D05E68122E13D190684F00A1
:104710000326BE40B0434F00DE68BE403043906089
:10472000506801268E40B0431E79C6F300168E40B5
:1047300030435060D0684F000326BE40B0434F0066
:104740009E68BE403043D0605E68022E02D05E6834
:10475000122E13D1CF0802F1200656F827004E077B
:10476000F70E0F26BE40B0434F07FF0E1E69BE4036
:104770003043CF0802F1200646F8270010684F00AA
:104780000326BE40B0431E7906F003064F00BE402C
:10479000304310605E6806F08056B6F1805F7DD1D0
:1047A00000BF00260096404E366846F480463E4FD5
:1047B0003E603E46366806F48046009600BF00BF65
:1047C0003A4E8F0856F827008E07370F0F26BE4047
:1047D000B043374EB24202D1002624E05EE0354EAF
:1047E000B24201D101261EE0334EB24201D102266F
:1047F00019E0324EB24201D1032614E0304EB242EB
:1048000001D104260FE02F4EB24201D105260AE065
:104810002D4EB24201D1062605E02C4EB24201D106
:10482000072600E008268F073F0FBE4030431F4E8B
:104830008F0846F82700264E3068A0435E6806F4CD
:104840008036B6F5803F00D12043214E3060361DC2
:104850003068A0435E6806F40036B6F5003F00D12C
:1048600020431B4E361D3060361D3068A0435E6805
:1048700006F48016B6F5801F00D12043144E08368A
:104880003060361D3068A0435E6806F40016B6F549
:10489000001F00D120430E4E0C363060491C1029F9
:1048A000FFF420AFF8BD0000443802400838014052
:1048B000000002400004024000080240000C0240D8
:1048C000001002400014024000180240001C024088
:1048D000003C01400AB1816101E00B048361704733
:1048E0000148006870470000EC030020034800689E
:1048F000034909780844014908607047EC03002027
:10490000F403002010B50D48006840F400700B4916
:1049100008600846006840F4806008600846006847
:1049200040F480700860032000F0C8F8002000F018
:1049300007F800F04BF8002010BD0000003C0240DA
:1049400070B588B00446002500260022214632209A
:1049500000F076F8322000F063F800BF00200190EC
:104960001648006840F008001449086008460068CE
:1049700000F00800019000BF00BF02A903A800F0EA
:1049800073F900F099F945000D48B5FBF0F0461EAB
:104990000C480D49086040F2E7310B48C1604660A1
:1049A00000210161816000F045FC20B9064800F05B
:1049B0005CFC08B070BD0120FBE7000040380240FD
:1049C00040420F00000C0040FC09002008B500BF69
:1049D000002000901148006840F480400F490860B2
:1049E0000846006800F48040009000BF00BF00BF90
:1049F00000200090081F006840F08050091F0860E8
:104A00000846006800F08050009000BF00BF002200
:104A10000F21901E00F014F808BD00004438024039
:104A200001460846002809DB00F01F0301229A40D6
:104A300043099B0003F1E023C3F8002100BF704746
:104A40002DE9F05F80460D461646002704F0F6FD7E
:104A5000074639462A46334601F00700C0F1070AE7
:104A6000BAF1040F02D94FF0040A01E0C0F1070ABD
:104A7000D14600F1040ABAF1070F02D24FF0000A42
:104A800001E0A0F1030AD4464FF0010A0AFA09FA3C
:104A9000AAF1010A0AEA020A0AFA0CFA4FF0010B1B
:104AA0000BFA0CFBABF1010B0BEA030B4AEA0B040C
:104AB0002146404604F0CAFDBDE8F09F00BF00F06B
:104AC0000702064B19684FF6FF031940044B0B43CE
:104AD00043EA0221014B196000BF70470CED00E072
:104AE0000000FA0570B504460D460CB9012070BDF2
:104AF0005848006800F00F00A84209D255490D70CF
:104B00000846006800F00F00A84201D00120EEE73F
:104B1000207800F0020002281DD1207800F0040067
:104B2000042805D14C48006840F4E0504A49086028
:104B3000207800F00800082805D14748006840F4B4
:104B40006040454908604448006820F0F000A168D2
:104B5000084341490860207800F00100A8B360686C
:104B6000012807D13C4808380068C0F34040B8B974
:104B70000120BCE76068022802D06068032807D1E2
:104B8000354808380068C0F3406048B90120AEE7F6
:104B9000314808380068C0F3400008B90120A6E792
:104BA0002D48006820F00300616808432A49086026
:104BB000FFF796FE064609E0FFF792FE801B41F2E2
:104BC0008831884202D9032091E707E02248006833
:104BD00000F00C006168B0EB810FEDD11D4800685A
:104BE00000F00F00A84209D91A490D700846006864
:104BF00000F00F00A84201D0012078E7207800F0F3
:104C00000400042807D11448006820F4E050E1684B
:104C1000084311490860207800F00800082808D1EE
:104C20000D48006820F46040216940EAC1000A494B
:104C3000086000F061F808490968C1F30311074AE8
:104C4000515CC8400649086006480068FFF778FED6
:104C500000204CE7003C024008380240004B0108AD
:104C6000F8030020F00300200F2202600D4A1268B2
:104C700002F0030242600B4A126802F0F002826006
:104C8000084A126802F4E052C260064A126802F44E
:104C90006042D2080261044A126802F00F020A6000
:104CA0007047000008380240003C0240014800689C
:104CB00070470000F803002000B5FFF7F7FF044934
:104CC0000968C1F38221034A515CC84000BD00005D
:104CD00008380240104B010800B5FFF7E7FF044910
:104CE0000968C1F34231034A515CC84000BD00006D
:104CF00008380240104B01082DE9F0470024002538
:104D00000026A1462548006800F00C0020B10428C8
:104D100005D008283AD105E0DFF8849039E0DFF8C3
:104D2000849036E01D48001F006800F03F041B48D7
:104D3000001F006800F4800078B11A481749091F65
:104D40000968C1F38811A0FB0170014622460023C7
:104D50003846FBF71BFB05460EE011480F49091FBB
:104D60000968C1F38811A0FB0170014622460023A7
:104D70003846FBF70BFB05460848001F0068C0F3E8
:104D80000140401C4600B5FBF6F902E0DFF8109048
:104D900000BF00BF4846BDE8F08700000838024069
:104DA0000024F40040787D01F8B504460CB90120D8
:104DB000F8BD207800F00100002874D0F9480068A0
:104DC00000F00C0004280DD0F648006800F00C003C
:104DD000082813D1F348001F006800F48000B0F5E4
:104DE000800F0BD1EF4808380068C0F3404000281E
:104DF00059D06068002856D10120D9E700BF60680B
:104E0000B0F5803F08D1E7480838006840F48030AA
:104E1000E449083908601EE06068B0F5A02F0DD1A4
:104E2000E0480838006840F48020DE49083908600E
:104E30000846006840F4803008600CE0D948083823
:104E4000006820F48030D7490839086008460068B7
:104E500020F48020086000BF606890B1FFF740FD3B
:104E6000054606E0FFF73CFD401B642801D90320FE
:104E70009EE7CC4808380068C0F340400028F1D0D5
:104E800011E0FFF72DFD054606E0FFF729FD401B69
:104E9000642801D903208BE7C24808380068C0F3B2
:104EA00040400028F1D1207800F0020002285FD1B4
:104EB000BC48006800F00C0058B1BA48006800F027
:104EC0000C0008281CD1B748001F006800F48000BF
:104ED000B0B9B44808380068C0F3400020B1E068B9
:104EE000012801D0012063E7AE480838006820F0AF
:104EF000F800216940EAC100AA490839086037E092
:104F0000E06800B30120A8490860FFF7E9FC054606
:104F100006E0FFF7E5FC401B022801D9032047E724
:104F2000A04808380068C0F340000028F1D09D4830
:104F30000838006820F0F800216940EAC10099496A
:104F40000839086014E0002097490860FFF7C8FCA2
:104F5000054606E0FFF7C4FC401B022801D90320E8
:104F600026E7904808380068C0F340000028F1D1D7
:104F7000207800F0080008282CD16069A8B1012031
:104F80008A490860FFF7ACFC054606E0FFF7A8FC7D
:104F9000401B022801D903200AE782486C300068D0
:104FA000C0F340000028F1D014E000207F490860E1
:104FB000FFF796FC054606E0FFF792FC401B02282F
:104FC00001D90320F4E677486C300068C0F3400054
:104FD0000028F1D1207800F00400042870D10027C7
:104FE00070483830006800F0805090B900BF002051
:104FF00000906C483830006840F080506949383182
:1050000008600846006800F08050009000BF00BFB4
:1050100001276748006800F48070B0B964480068F0
:1050200040F4807062490860FFF75AFC054606E0CC
:10503000FFF756FC401B022801D90320B8E65C4864
:10504000006800F480700028F2D000BFA06801283A
:1050500008D154486830006840F001005149683177
:1050600008601DE0A06805280DD14E486830006832
:1050700040F004004B49683108600846006840F081
:10508000010008600CE047486830006820F001002B
:105090004449683108600846006820F00400086050
:1050A00000BFA068A8B1FFF71BFC054609E0FFF7A9
:1050B00017FC401B41F28831884202D9032077E671
:1050C00026E0384868300068C0F340000028EED081
:1050D00013E0FFF705FC054608E0FFF701FC401B65
:1050E00041F28831884201D9032061E62D486830B9
:1050F0000068C0F340000028EFD1012F07D12948F4
:105100003830006820F0805026493831086000BFF0
:10511000A069002845D02348006800F00C0008284A
:105120005DD0A069022845D100201F490866FFF71D
:10513000D7FB054606E0FFF7D3FB401B022801D949
:10514000032035E6174808380068C0F3406000289F
:10515000F1D1D4E907010843616A40EA81110122D3
:10516000A06AC2EB500041EA00412C20005D41EAF8
:1051700000600C49091F086001200B490866FFF711
:10518000AFFB054606E0FFF7ABFB401B022801D949
:1051900003200DE6034808380068C0F3406000288B
:1051A000F1D03FE00838024000004742800E4742FD
:1051B0000070004000201C490866FFF791FB05467F
:1051C00006E0FFF78DFB401B022801D90320EFE525
:1051D00016480068C0F340600028F2D122E0A069C0
:1051E000012800D1E4E511480830066806F4800182
:1051F000E069814214D106F03F01206A81420FD15B
:1052000047F6C0703040616A884209D106F44031E7
:10521000A06A814204D106F07061E06A814201D047
:105220000120C5E50020C3E50000474200380240E8
:105230007047704710B504460CB9012010BD94F8B2
:105240003D0028B9002084F83C00204600F00CF80E
:10525000022084F83D00211D206803F039F9012067
:1052600084F83D000020E9E7704701460868C068FF
:1052700040F001000B68D8600868806800F0070201
:10528000062A05D00868006840F001000B68186025
:1052900000207047704710B5044620680069C0F3CD
:1052A0004000D8B12068C068C0F34000B0B16FF0D2
:1052B000020021680861012020772068806900F0E1
:1052C000030018B12046FFF7E5FF05E0204600F097
:1052D000ADF8204600F04AF90020207720680069E8
:1052E000C0F38000D8B12068C068C0F38000B0B1BE
:1052F0006FF004002168086102202077206880692F
:1053000000F4407018B12046FFF7C4FF05E02046C6
:1053100000F08CF8204600F029F900202077206862
:105320000069C0F3C000D8B12068C068C0F3C000F5
:10533000B0B16FF008002168086104202077206870
:10534000C06900F0030018B12046FFF7A3FF05E095
:10535000204600F06BF8204600F008F90020207786
:1053600020680069C0F30010D8B12068C068C0F39D
:105370000010B0B16FF0100021680861082020779C
:105380002068C06900F4407018B12046FFF782FF22
:1053900005E0204600F04AF8204600F0E7F800203B
:1053A00020772068006900F0010058B12068C068CB
:1053B00000F0010030B16FF0010021680861204663
:1053C00000F002F920680069C0F3C01058B12068ED
:1053D000C068C0F3C01030B16FF080002168086170
:1053E0002046FFF725FF20680069C0F3801058B100
:1053F0002068C068C0F3801030B16FF040002168B1
:105400000861204600F0ECF820680069C0F3401005
:1054100058B12068C068C0F3401030B16FF0200070
:10542000216808612046FFF704FF10BD704770B582
:1054300004460D46164600BF94F83C00012801D1F1
:10544000022070BD012084F83C0000BF022084F8D7
:105450003D0036B1042E1BD0082E31D00C2E5ED16B
:1054600045E02946206803F0B1F82068806940F0E3
:105470000800216888612068806920F004002168A4
:10548000886120688069296908432168886147E04C
:105490002946206803F0D2F82068806940F4006053
:1054A000216888612068806920F4806021688861B3
:1054B00020688069296940EA0120216888612FE01D
:1054C0002946206803F0F8F82068C06940F0080019
:1054D0002168C8612068C06920F004002168C861A3
:1054E0002068C069296908432168C86118E0294615
:1054F000206803F01DF92068C06940F4006021684D
:10550000C8612068C06920F480602168C861206893
:10551000C069296940EA01202168C86100E000BF34
:1055200000BF012084F83D0000BF002084F83C004B
:1055300000BF00BF85E710B504460CB9012010BDBF
:1055400094F83D0028B9002084F83C00204600F083
:105550000CF8022084F83D00211D206802F0B8FFFD
:10556000012084F83D000020E9E770477047000003
:1055700070B504460E4601223146206803F014F847
:105580000F492068884203D00E492068884201D123
:10559000012000E0002028B12068406C40F4004069
:1055A000216848642068806800F00705062D05D052
:1055B0002068006840F0010021680860002070BD8C
:1055C000000001400004014010B504460349206872
:1055D000884201D1FFF78AF910BD0000000C00409D
:1055E000704770B50446002520684069C0F3C015B7
:1055F00094F8390021280ED16DB12068406920F05F
:10560000800021684861206B10B1206BFEF737F9EC
:10561000204603F0F0FC20684069C0F3801594F840
:105620003A0022280ED16DB12068406920F0400078
:1056300021684861606B10B1606BFEF720F920466D
:1056400003F0B9FC002070BD704700002DE9F04761
:105650000446206805682068C668206847694FF0DE
:105660000008C14605F00F08B8F1000F0AD105F097
:10567000200038B106F0200020B1204603F0C5FC20
:10568000BDE8F087B8F1000F72D007F0010018B93B
:1056900006F4907000286BD005F0010030B106F4DC
:1056A000807018B1E06B40F00100E06305F0040089
:1056B00030B107F0010018B1E06B40F00200E06388
:1056C00005F0020030B107F0010018B1E06B40F0C6
:1056D0000400E06305F0080048B106F0200010B9AE
:1056E00007F0010018B1E06B40F00800E063E06BE8
:1056F00070B305F0200028B106F0200010B120465C
:1057000003F083FC20684069C0F38019E06B00F06F
:10571000080010B9B9F1000F23D0204603F04BFC6C
:105720002068406900F04000402816D12068406998
:1057300020F0400021684861606B50B11748616BF0
:105740000865606BFEF7F0F810B1606B016D88477B
:105750000CE02046FFF778FF08E02046FFF774FFD3
:1057600004E02046FFF770FF0020E06388E7FFE7D2
:1057700005F0800030B106F0800018B1204603F03B
:105780008BFE7DE705F0400030B106F0400018B117
:10579000204603F020FC73E700BF71E70D8F00087F
:1057A00038B5044600BF00200090206800680090D3
:1057B00020684068009000BF00BF2046FFF711FF3F
:1057C00013492068884205D1012001F095FF01208E
:1057D00002F070FC0F492068884205D10E4800880D
:1057E000401C0D49088011E00C49206888420DD00A
:1057F0000B492068884209D00A492068884205D1AF
:10580000062001F079FF062002F054FC38BD0000AC
:105810000010014000440040CE030020004800403A
:10582000004C00400014014010B504460CB90120A2
:1058300010BDA06900B100E000BF94F8390028B99C
:10584000002084F83800204600F028F8242084F84E
:1058500039002068C06820F400502168C8602046E4
:1058600003F026FC2068006920F49040216808615C
:105870002068406920F02A00216848612068C068DB
:1058800040F400502168C8600020E063202084F8C4
:10589000390084F83A000020CAE7000010B586B04D
:1058A0000446142101A8FAF7BBFDFE49206888428E
:1058B0007ED100BF00200090FB48006840F400202B
:1058C000F94908600846006800F40020009000BF15
:1058D00000BF00BF00200090F3481038006840F07F
:1058E0000400F149103908600846006800F004001F
:1058F000009000BF00BF4FF4406001900220029072
:1059000001200390032004900820059001A9E74896
:10591000FEF7E0FEE648E7490860400548600021E0
:10592000E4488160C1604FF4806101610021416100
:1059300081614FF48071C1614FF4403101620021F7
:105940004162032181620021C1620163FEF720F9F7
:1059500008B1FBF7B3FD00BFD6486063846300BFA6
:10596000D3483030D44908604FF00060486040218F
:10597000D14881600021C1604FF480610161002144
:1059800041618161C1614FF40031016200214162D6
:10599000FEF7FEF808B1FBF791FD00BFC648206393
:1059A000846300BF032200213420FFF749F800E0A0
:1059B00003E03420FFF734F82CE2C0492068884225
:1059C0007FD100BF00200090B748001D006840F064
:1059D0001000B549091D08600846006800F0100075
:1059E000009000BF00BF00BF00200090AE481038FC
:1059F000006840F00100AC491039086008460068B2
:105A000000F00100009000BF00BF4FF4C0600190A3
:105A100002200290002003900320049007200590AC
:105A200001A9A748FEF756FEA648A74908604FF00F
:105A3000006048600021A4488160C1604FF480612B
:105A400001610021416181614FF48071C1614902AE
:105A5000016200214162FEF79BF808B1FBF72EFDC1
:105A600000BF99486063846300BF9648303097490F
:105A700008604FF000604860402194488160002138
:105A8000C1604FF480610161002141618161C161A8
:105A90004FF40031016200214162FEF779F808B14C
:105AA000FBF70CFD00BF89482063846300BF002220
:105AB00011462520FEF7C4FF2520FEF7B1FFA9E11E
:105AC000FFE78349206888427DD100BF0020009015
:105AD0007548006840F40030734908600846006863
