:020000040800F2
:1000000000000220F5040008A10B0008A30B000863
:10001000A50B0008A70B0008A90B000800000000B2
:10002000000000000000000000000000AB0B000812
:10003000AD0B000800000000AF0B0008B10B00087A
:100040004505000845050008450500084505000868
:100050004505000845050008450500084505000858
:100060004505000845050008450500084505000848
:100070004505000845050008450500084505000838
:100080004505000845050008450500084505000828
:10009000C10B000845050008D90B000845050008FC
:1000A0004505000845050008450500084505000808
:1000B00045050008450500084505000845050008F8
:1000C00045050008450500084505000845050008E8
:1000D00045050008450500084505000845050008D8
:1000E00045050008450500084505000845050008C8
:1000F00045050008450500084505000845050008B8
:1001000045050008450500084505000845050008A7
:100110004505000845050008450500084505000897
:1001200045050008E10B00084505000845050008E5
:100130004505000845050008450500084505000877
:10014000CD0B000845050008DD0B0008450500083B
:10015000450500084505000845050008ED0B0008A9
:100160004505000845050008450500084505000847
:100170004505000845050008450500080000000089
:080180004505000845050008D3
:1001880010B5054C237833B9044B13B10448AFF3C9
:1001980000800123237010BD0C0000200000000027
:1001A8003426000808B5034B1BB103490348AFF3D5
:1001B800008008BD00000000100000203426000860
:1001C80053B94AB9002908BF00281CBF4FF0FF31B6
:1001D8004FF0FF3000F088B9ADF1080C6DE904CE9E
:1001E80000F006F8DDF804E0DDE9022304B070470A
:1001F8002DE9F047089D0F4604468C46002B48D150
:100208008A42164661D9B2FA82F34BB1C3F1200291
:1002180001FA03FC20FA02F29E4042EA0C0C9C40D0
:100228004FEA164EB7B2BCFBFEF1220C0EFB11CC06
:1002380042EA0C4201FB07F0904209D9B21801F1D9
:10024800FF3C80F0EE80904240F2EB80023932446D
:10025800121AA4B2B2FBFEF00EFB102244EA0244CA
:1002680000FB07F7A74209D9341900F1FF3280F0E3
:10027800DA80A74240F2D7803444023840EA01408D
:10028800E41B00211DB1DC400023C5E90043BDE8A3
:10029800F0878B4206D90DB1C5E900010021084657
:1002A800BDE8F087B3FA83F1002948D1BB4202D3F5
:1002B800824200F20781841A67EB03020120944608
:1002C800002DE4D0C5E9004CE1E7002A00F0928057
:1002D800B2FA82F3002B40F0A8808A1A4FEA164E31
:1002E8001FFA86FC0121200CB2FBFEF70EFB172239
:1002F80040EA02420CFB07F0904207D9B21807F116
:10030800FF3802D2904200F2E2804746121AA4B2A5
:10031800B2FBFEF00EFB102244EA02440CFB00FC88
:10032800A44507D9341900F1FF3202D2A44500F2DE
:10033800CB801046A4EB0C0440EA0740A2E7C1F1C9
:1003480020068B4022FA06FC4CEA030C07FA01F45B
:1003580020FA06F3F7404FEA1C49234300FA01F854
:100368001FFA8CFEB7FBF9F01C0C09FB107744EA66
:10037800074400FB0EF7A74202FA01F20AD91CEB68
:10038800040400F1FF3A80F09B80A74240F2988075
:1003980002386444E41B9FB2B4FBF9F309FB13442D
:1003A80047EA044403FB0EFEA64509D91CEB0404E6
:1003B80003F1FF3780F08280A6457FD9023B644471
:1003C80043EA0040A4EB0E04A0FB02E7BC427346DC
:1003D800B94663D360D05DB1B8EB030264EB09049E
:1003E80004FA06F622FA01F31E43CC40C5E900647C
:1003F80000214CE76208480842EAC1710B0C43EA45
:1004080000438AB242EA0342B3FBF6F1E407B4467A
:100418003746B6461F23B0FBF6F0D21B41EA00412F
:1004280061E7614614E7104628E7C3F1200120FA86
:1004380001F29E4027FA01F19F403A434FEA164ED7
:100448001FFA86FCB1FBFEF70EFB1710110C41EAF0
:10045800004107FB0CF8884504FA03F43AD97118EF
:1004680007F1FF3001D288451FD8A1EB0801B1FB85
:10047800FEF808FB0CF70EFB181192B242EA014293
:10048800BA422FD2B21808F1FF31C6D2BA42C4D24A
:10049800A8F102013244C0E7F0459CD2BEEB02034A
:1004A80067EB0C070138B94695E7A6EB0808414405
:1004B800B81EB1FBFEF808FB0CF7DCE73B467FE70C
:1004C800504667E70846FBE63444023832E7023F05
:1004D80032441BE7A1EB08013846B1FBFEF808FBE4
:1004E8000CF7C8E7414698E7704700BFDFF834D0FB
:1004F80000F07EFB0C480D490D4A002302E0D45859
:10050800C4500433C4188C42F9D30A4A0A4C002355
:1005180001E013600432A242FBD302F063F800F05A
:100528008BFC704700000220000000200C00002017
:100538007C2600080C000020B8010020FEE700001F
:1005480070B58AB004460E4628220021684602F09B
:1005580041F800250323C4E901354FF400224FF484
:100568004013C4E904234FF00123A3614FF48073BF
:100578002660E560A383204600F0E6FCC8B90E4B70
:1005880004909E4214BF0E262E460123CDE9056035
:10059800CDE90000CDE902000793089369460E23D0
:1005A8002046099300F04CFDB0FA80F040090AB0EB
:1005B80070BD2846FBE700BF0064004070B588B0F6
:1005C80006461422002103A802F004F80025474B30
:1005D80000951A6B464842F002021A631A6B02F041
:1005E80002020092009A01951A6B42F010021A63F7
:1005F8001A6B02F010020192019A02951A6B42F0EE
:1006080040021A631B6B03F0400302932A4604213D
:10061800029B01F0CBFA36480122182101F0C6FAF4
:10062800344801224FF4007101F0C0FA2A463248DA
:10063800012101F0BBFA01241C232D4803A9CDE9AF
:100648000334CDE9055501F0D9F94FF40073294871
:10065800039303A901F0D2F902232748039403A9BD
:10066800069301F0CBF9F20704D524492448FFF793
:1006780067FF0446B30706D522492348FFF760FF02
:1006880000EA0403DCB2750715D52049204B0B603E
:100698004FF4E1200023C1E901030C220846C1E917
:1006A8000333C1E90523CB6101F0B0FD002814BF75
:1006B800002404F00104310715D51649164B0B60C8
:1006C8004FF4E1220023C1E9012308460822C1E9C9
:1006D8000333C1E90523CB6101F098FD002814BF5D
:1006E800002404F00104204608B070BD0038024020
:1006F800001002400018024000040240006400405C
:1007080044010020006800401C010020D4000020A3
:10071800001401408C00002000480040C20738B592
:1007280005461FD5114800F011FDC8B90F4848F219
:10073800024100F020FEB0FA80F46409AB070DD541
:100748000B4800F003FD78B9094848F2024100F06F
:1007580012FE002814BF002404F00104204638BD0E
:100768000024EBE70124E9E70024F7E7440100202F
:100778001C01002082B00D4B002100915A6C42F4FC
:1007880080425A645A6C02F480420092009A0191A5
:100798001A6C42F080521A641B6C03F08053019368
:1007A800019B032002B000F01BBF00BF00380240CD
:1007B8000F2801D8FFF702BF002070470F2801D883
:1007C800FFF7ACBF002070470A4638B1012807D1AF
:1007D8001021054882F0010201F0E8B90821F8E784
:1007E80002484FF40071F5E700100240001802407B
:1007F80028B1012805D11021044801F0DCB90821ED
:10080800FAE703484FF40071F7E700BF0010024011
:1008180000180240F0B589B00C460646174600217C
:10082800182202A801F0D6FE14B9002009B0F0BDC4
:100838002279082AF9D8731E012BF6D8164B174DC2
:100848006179012E08BF1D462368B9B104210491BE
:100858000393A3795B00CDE9053200F069FB0646F6
:10086800284600F0E9FC60B101ABE21D02A9284668
:1008780000F097FCB0FA80F04009D7E702930B46E6
:10088800E6E700F055FB801BB842CED2284600F0C0
:1008980092FE0528E4D1C8E7440100201C0100208D
:1008A80010B58AB00223069303210923CDE9081362
:1008B800354A036800249342059407942BD1334B9F
:1008C80000941A6C324842F000721A641A6C02F0F2
:1008D80000720092009A01941A6B42F008021A639F
:1008E8001B6B059103F00803019305A9019B01F017
:1008F80085F822460521142000F084FE142000F01B
:10090800B3FE16202246052100F07CFE162000F0DA
:10091800ABFE0AB010BD1F4A9342FAD11B4B02949A
:100928001A6C1D4842F000721A641A6C02F00072C8
:100938000292029A03941A6C42F080621A641A6C4A
:1009480002F080620392039A04941A6B42F0020246
:100958001A631B6B03F002030493049B05A94FF46D
:100968004053059301F04AF822460521402000F043
:1009780049FE402000F078FE42202246052100F082
:1009880041FE4220C3E700BF006400400038024037
:10099800000C0240006800400004024070B51422B8
:1009A8008AB0064600210DEB020001F013FE336801
:1009B800424A934224D1424B4248002100911A6C8A
:1009C80042F480221A641A6C02F480220092009A7F
:1009D80001911A6B42F002021A631B6B03F00203C7
:1009E8000193019B4FF4406E0223CDE905E30322F6
:1009F800072305A9CDE9082301F000F80AB070BD66
:100A0800314A9342FAD12E4B3048314C0025029599
:100A18005A6C42F020025A645A6C02F02002029288
:100A2800029A03951A6B42F004021A631A6B02F0D9
:100A380004020392039A04951A6B42F480021A6323
:100A48001B6B03F480030493049BC0220223CDE9AB
:100A5800052301210323CDE90713082305A90993D9
:100A680000F0CCFF1B48A5614FF02063C4E90003E8
:100A78004FF48063C4E904354FF4807C4FF40033AD
:100A88002046C4E90255C4E907C3656200F02AFE9E
:100A980008B100F0C9F800220621F4633920A663E2
:100AA80000F0B0FD392000F0DFFD002206214720CC
:100AB80000F0A8FD472000F0D7FD9FE70048004060
:100AC80000380240000402400014014000080240BF
:100AD8002C0000202864024030B51F4B05688DB0FB
:100AE80004469D4214BF022501250021204600F03E
:100AF80033FC08B90DB030BD1022002101A801F067
:100B080069FD0DF10B0305AA0021204600F0A8FBA2
:100B18000028EFD1079A111F4B424B418DF809303D
:100B2800089B981E434243418DF80A30DDE90531A0
:100B3800042A08BF0B460193099B8DF8083000F082
:100B4800F7F901A90246284600F02EF901A928461E
:100B580000F0EAF8C9E700BF0064004010B5074B91
:100B680004689C4214BF0224012400F037FD0146AA
:100B78002046BDE8104000F051B900BF00640040B5
:100B88000268034B9A4202BF024B01221A70704757
:100B980000140140280000207047FEE7FEE7FEE74A
:100BA800FEE770477047704708B500F0B5F9BDE833
:100BB800084000F07CBD0000014800F0F8BB00BF11
:100BC80044010020014800F0F2BB00BF1C010020D6
:100BD800FFF7F2BFFFF7F6BF014800F051BE00BFB4
:100BE8002C000020014801F0A5BB00BFD400002064
:100BF800034AD2F8883043F47003C2F8883070474B
:100C080000ED00E0054A1368C31AB3F5FA7F03D371
:100C180010600020FFF7ECBD704700BF6C0100209A
:100C280001460220FFF7D0BD08B572B601210220A7
:100C3800FFF7CAFDFEE7000030B595B0044600F0A6
:100C480051F9102200210AA801F0C4FC1422002145
:100C580003A801F0BFFC314B002101911A6C42F04E
:100C680080521A641B6C03F080530193019B2C4B38
:100C780002911A6842F480421A601B6803F48043A8
:100C88000293029B01214FF480330225CDE908131A
:100C98004FF480030820CDE90E534FF4A873CDE933
:100CA8001003072308A81295139300F08DFF08B1CD
:100CB800FFF7BAFF0F23CDE9033505904FF4A05293
:100CC8004FF48053052103A8CDE9062301F058F914
:100CD8000028EDD100F032F9B0F5805F81BF114AEC
:100CE800136843F4807313602046FFF761FD002802
:100CF800DED02046FFF762FD0028D9D00021084643
:100D0800FFF762FD00210120FFF75EFD00210220B0
:100D180015B0BDE83040FFF757BD00BF00380240AE
:100D280000700040003C0240704700001FB51A4A9E
:100D380000F5487300934E23CDE901230023039364
:100D4800164B8DF809001B788DF80A30044600F020
:100D5800EFF88DF80B0000F0EBF8000A8DF80C00A6
:100D680000F0E6F8000C8DF80D0000F0E1F8000E38
:100D78008DF80E00052220466946FFF74BFD013C21
:100D880038B9074A52F82430013342F8243004B005
:100D980010BD044AF6E700BF080000CA7001002031
:100DA8009C010020AC010020F0B449B30138C3B263
:100DB800012B25D813480C6840F8234012480C79B9
:100DC800C454124C8D1D002004EBC3040F79C6B225
:100DD800B7420ED80E4941F823200E4A0E49012089
:100DE800D05451F82320F0BC024441F82320FFF7E7
:100DF800FFBC0828EED015F8016F26540130E5E74E
:100E0800F0BC70478C0100208A0100207A01002084
:100E18009401002078010020A40100200138C3B209
:100E2800012B05D8034B43F820100120FFF7F8BE2B
:100E3800704700BF9C010020F8B50320FFF7FCFEB7
:100E480000F076F8124D134F134E286000F070F83A
:100E58002B68C31A002B04460BDB0120FFF766FF43
:100E68000220FFF763FF3B7801333B7004F1640312
:100E78002B6033684BB97068003818BF0120FFF742
:100E8800CFFE2046FFF7BEFEE0E70120F7E700BFF0
:100E980074010020700100209C01002038B50E4B21
:100EA8001A784FF47A73B3FBF2F30C4A05461068CC
:100EB800B0FBF3F000F0E6FB044658B90F2D09D853
:100EC800024629464FF0FF3000F09CFB044B2046B9
:100ED8001D6038BD0120FCE7040000200000002050
:100EE8000800002008B50B4B1A6842F400721A601B
:100EF8001A6842F480621A601A6842F480721A60B2
:100F0800032000F06DFB0F20FFF7C8FFFFF732FC4E
:100F1800002008BD003C0240034A044B11681B78BE
:100F28000B441360704700BFB40100200400002088
:100F3800014B1868704700BFB4010020014B1868C6
:100F4800000C7047002004E038B5044600286ED035
:100F580090F820300BB9FFF7A3FC2268136843F020
:100F680001031360FFF7E4FF054623685A68D107B9
:100F780051D51A6822F002021A60FFF7D9FF054618
:100F880023685A68920754D4227E012A1A680CBF33
:100F980042F0800222F080021A60627E012A1A68FA
:100FA8000CBF42F0400222F040021A60A27E012AE1
:100FB8001A680CBF42F0200222F020021A60E27E7A
:100FC800012A1A680CBF22F0100242F010021A60BF
:100FD800227F012A1A680CBF42F0080222F0080298
:100FE8001A60627F012A1A680CBF42F0040222F0DC
:100FF80004021A60D4E902210A4321690A4361699B
:101008000A43616801390A43DA61002001236062FA
:1010180084F820300CE0FFF78BFF401B0A28A4D986
:10102800636A43F400336362052384F820300120A7
:1010380038BDFFF77DFF401B0A28A1D9F0E7000063
:1010480030B590F82030013B012B77D83E4BD3F8D0
:10105800002242F00102C3F80022D3F8002222F451
:101068007C52C3F80022D3F80022486A42EA0022E0
:10107800C3F800224A69D3F81C5202F01F04012069
:10108800A04025EA0005C3F81C52CD69C443002DD1
:1010980035D1D3F80C522540C3F80C52CB688D8853
:1010A80045EA0345D30003F1804303F5C8430A88A2
:1010B800C3F840528D6842EA0542C3F844228A695F
:1010C800214B8ABBD3F804222240C3F804220A69C0
:1010D80072BBD3F814221440C3F814420B6A012BD4
:1010E800194B02BFD3F81C220243C3F81C22D3F8C1
:1010F800002222F00102C3F80022002030BD012D99
:10110800DDD1D3F80C520543C3F80C520B688D8817
:1011180045EA0345D30003F1804303F5C8438A89B0
:10112800C3F840528D68C6E7D3F804220243CCE7DF
:10113800D3F814220243C3F81422CFE7436A43F4D6
:10114800802343620120D9E70064004038B590F855
:101158002030012B04461FD10268022380F820307A
:10116800136823F001031360FFF7E2FE05462368C6
:10117800586810F0010001D1606238BDFFF7D8FE51
:10118800401B0A28F3D9636A43F4003363620523DA
:1011980084F820300120F0E7436A43F400234362D7
:1011A800F8E7F0B590F820500468013D012DA668D5
:1011B8003ED816F0E05F35D0C6F3016001258540C2
:1011C8001D60D1E9025700F1180325BB0D681B010A
:1011D80047EA4557E75004EB00130E69C3F88461EA
:1011E800097D012908BFD3F884114FEA001504BF0F
:1011F80041F48071C3F884112C445168C4F88C11EF
:101208001268C4F88821D3F8802142F00102C3F89B
:1012180080210020F0BD4E683D431B0145EAC6050C
:10122800E550D8E7436A43F4001343620120F1E72D
:10123800436A43F48023F8E790F82030013B012B00
:101248000CD8036898689A689B681201C0F380609C
:1012580048BF0130DB0002D50130704700207047DD
:10126800F0B590F82040013C012C71D8066841B9CE
:10127800F468A40707D1436A43F4001343620120CA
:10128800F0BD3469F5E706EB01150C01D5F8B0712E
:1012980007F004079760002F50D1D5F8B0717F0D83
:1012A8001760D5F8B07107F00207D760D5F8B471A8
:1012B8003F0756BFD5F8B471082707F00F07176125
:1012C800D5F8B471D5F8B4512644C7F307272D0CC7
:1012D80097615561D6F8B8211A7002682244D2F88D
:1012E800B821120A5A7002682244D2F8B821120CA6
:1012F8009A7002682244D2F8B821120EDA70026895
:101308002244D2F8BC211A7102682244D2F8BC21C6
:10131800120A5A7102682244D2F8BC21120C9A713E
:1013280002682244D2F8BC21120EDA71036851B95E
:10133800DA6842F02002DA600020A1E7D5F8B0713F
:10134800FF085760ADE71A6942F020021A61F3E717
:10135800436A43F4802391E790F82030013B012B46
:1013680007D8036819B9D86800F0030070471869EE
:10137800FAE70020704790F82030013B012B05D890
:10138800026853691943516100207047436A43F466
:101398008023436201207047704770477047704749
:1013A80070477047704770477047704770472DE91E
:1013B800F84F03685E69D3F80490D3F80880D3F82F
:1013C8000CB0D3F810A09F6916F00104054627D089
:1013D80018F0010F07D0012218F0020F9A6000F0F0
:1013E800A580FFF7D9FF002418F4807F0AD02B6866
:1013F8004FF4807218F4007F9A6000F0A6802846A7
:10140800FFF7CBFF18F4803F0AD02B684FF48032E7
:1014180018F4003F9A6000F0A8802846FFF7BEFF46
:10142800310707D51BF0100F1FBF2B68102244F49B
:101438000074DA60720708D51BF0080F05D02B6816
:101448000822DA602846FFF7ADFFB30706D52B68F8
:10145800DB68980702D02846FFF73EFB710607D5E0
:101468001AF0100F1FBF2B68102244F480641A6111
:10147800B20608D51AF0080F05D02B6808221A61A1
:101488002846FFF791FFF30606D52B681B699807D6
:1014980002D02846FFF787FFB10308D519F0100FCF
:1014A80005D02B6810225A602846FFF77EFFF2030A
:1014B80008D519F0080F05D02B6808225A6028466D
:1014C800FFF774FF330428D519F0040F2A6822D0D7
:1014D800F00544BF07F001031C43B10503D5BB0762
:1014E80048BF44F00204700503D5790748BF44F0AB
:1014F800040433050FD517F070030CD0402B54D0DB
:1015080043D8202B4BD0302B4CD0102B44D0936990
:1015180023F070039361042353602CB16B6A234357
:101528006B622846FFF71AFBBDE8F88F18F0040F26
:1015380005D118F0080F05D1FFF731FF53E74FF435
:10154800006451E74FF480544EE718F4806F02D0DE
:1015580044F4005456E718F4006F02D044F4804471
:1015680050E72846FFF71CFF4CE718F4802F02D0FD
:1015780044F4004454E718F4002F02D044F48034B3
:101588004EE72846FFF70DFF4AE7502B10D0602B97
:10159800BDD144F48074BAE744F00804B7E744F0D6
:1015A8001004B4E744F02004B1E744F04004AEE787
:1015B80044F08004ABE790F820200346D0B2013A0B
:1015C800012A0AD81B685A68920705D41B6813F0C9
:1015D800020F18BF0320704704207047406A704705
:1015E8000749CA6822F4E0620302120403F4E063C4
:1015F800120C134343F0BF6343F40033CB607047CE
:1016080000ED00E0164B30B5DC68C4F30224C4F1E9
:101618000703251D042B28BF0423062D4FF0FF3593
:101628008CBF033C002405FA03F321EA0303A54019
:1016380022EA0502A340002843EA0203ACBF00F1F6
:101648006040084A4FEA0313B8BF00F00F00DBB24E
:10165800AABF00F56140135480F8003330BD00BFC5
:1016680000ED00E014ED00E0002807DB044A410922
:10167800012300F01F00834042F82130704700BF6B
:1016880000E100E00138B0F1807F0BD24FF0E02399
:10169800054A5861F02182F823100020072298613A
:1016A8001A6170470120704700ED00E0704708B5E7
:1016B800FFF7FCFF08BD0000036810B5084C0246A0
:1016C800D9B210391820B1FBF0F0205CD06523F4B2
:1016D8007F7020F003005F2988BF0430906510BD3B
:1016E8006426000870B50446FFF722FC0546002C66
:1016F80060D0022384F835302268002384F834301F
:10170800136823F00103136022681368D8072ED4E6
:1017180013683248A1691840D4E901352B43E568BC
:101728002B4325692B4365692B43E5690B432B4301
:10173800256A2B430343606A042802BFD4E90B5689
:1017480035432B4313605369042823F0070343EA06
:10175800000335D1A06AE56A03438DB391B9012826
:1017680020D030F002012BD1E90129D51DE0FFF787
:10177800DFFB401B0528C7D920230320636584F8B5
:10178800350070BDB1F5005F16D1032818D801A146
:1017980051F820F0B317000871170008B3170008B4
:1017A800AD170008B5F1C07F0AD140236365012356
:1017B80084F835300120E4E70228F6D90328D3D08D
:1017C80053612046FFF778FFE26D3F239340836023
:1017D80000200123606584F83530D2E73F8010F09F
:1017E80070B50446866DFFF7A3FB94F83530022BDD
:1017F800054606D0802363650120002384F8343031
:1018080070BD23681A6822F016021A605A6922F01D
:1018180080025A61226C0AB9A26C1AB11A6822F0C5
:1018280008021A601A6822F001021A602368186810
:1018380010F0010007D1E26D3F239340B36001230C
:1018480084F83530D9E7FFF773FB401B0528EDD93D
:1018580020230320636584F83500CEE790F83530FF
:10186800022B03D0802343650120704702680523BB
:1018780080F83530136823F00103136000207047A7
:10188800F7B5002301935C4B856D1F68C36D2E6807
:1018980008229A40324204460CD001680868400782
:1018A80008D5086820F004000860AA60626D42F05C
:1018B8000102626501229A40324208D021684969D2
:1018C800090641BFAA60626D42F002026265042205
:1018D8009A40324208D021680968880741BFAA6047
:1018E800626D42F00402626510229A40324210D0C2
:1018F8002368196809070CD5AA601A68500337D5F8
:101908001B68190301D4236C00E0A36C0BB12046BB
:101918009847E16D20228A4032423AD023681868FD
:10192800C60636D5AA6094F83520052A1A6827D144
:1019380022F016021A605A6922F080025A61226C5B
:101948000AB9A26C1AB11A6822F008021A603F2379
:101958008B40AB60012384F83530002384F83430A1
:10196800236D002B45D0204603B0BDE8F040184752
:101978001A68D2055EBF1A6822F008021A60C2E728
:10198800500327D51B68190331D4636C0BB120466B
:101998009847636D6BB3636DDA0719D522684FF406
:1019A8001653B7FBF3F7052384F83530136823F093
:1019B80001031360019B0133BB42019302D81368F2
:1019C800DB07F7D4012384F83530002384F834305A
:1019D800E36CC6E71A6812F4807208D1196821F01E
:1019E80010011960012384F8353084F83420E36B42
:1019F800CCE703B0F0BD00BF000000202DE9F74F91
:101A0800DFF8A491664A00230D6801249C4004EA8B
:101A18000506AC4340F0AF804D68032705F003048A
:101A28004FEA430807FA08FC671E012F6FEA0C0CFF
:101A380034D8876807EA0C0ECF6807FA08F747EA30
:101A48000E078760476827EA060EC5F300179F4010
:101A580047EA0E074760C76807EA0C0E8F6807FA5F
:101A680008F747EA0E07022CC76019D14FEAD30AD4
:101A780000EB8A0A03F0070BDAF820704FEA8B0BA9
:101A88004FF00F0E0EFA0BFE27EA0E0E0F6907FA3B
:101A98000BF747EA0E07CAF8207001E0032CDAD1E9
:101AA800076804FA08F407EA0C073C4315F4403FBA
:101AB800046060D000240194D9F8444044F4804480
:101AC800C9F84440D9F8444023F0030707F1804798
:101AD80004F4804407F59C37019403F0030C019C3F
:101AE800D7F808E04FEA8C0C0F2404FA0CF42EEA1D
:101AF800040E2C4CA04245D004F58064A04243D08B
:101B080004F58064A04241D004F58064A0423FD02F
:101B180004F58064A0423DD004F58064A0423BD027
:101B280004F58064A04239D004F58064A04214BF53
:101B38000824072404FA0CF444EA0E04BC609468F0
:101B4800F74315F4801F0CBF3C4034439460D468BD
:101B580015F4001F0CBF3C403443D460546815F49E
:101B6800003F0CBF3C40344354601468ED0354BF3D
:101B78003C40344314600133102B7FF445AF03B06D
:101B8800BDE8F08F0024D5E70124D3E70224D1E78C
:101B98000324CFE70424CDE70524CBE70624C9E7CF
:101BA800003C014000000240003802400AB1816157
:101BB80070470904FBE7436901EA030221EA0301CC
:101BC80041EA0241816170472DE9F341044640B37F
:101BD8000368DE0710D423689D075BD423681907C0
:101BE80000F19D8023685A0700F1BD80A369002B8E
:101BF80040F0248100202CE08D4B9A6802F00C0202
:101C0800042A07D09A6802F00C02082A0BD15B68F4
:101C1800590208D5864B1B689A03DCD56368002BEC
:101C2800D9D1012015E06368814DB3F5803F13D108
:101C38002B6843F480332B60FFF77AF97C4E054616
:101C480033689B03C7D4FFF773F9401B6428F7D99F
:101C5800032002B0BDE8F081B3F5A02F04D12B68B2
:101C680043F480232B60E3E72A6822F480322A6059
:101C78002A6822F480222A60002BDDD1FFF758F968
:101C880006462B689F03A6D5FFF752F9801B6428E8
:101C9800F7D9DDE7664B9A6812F00C0F07D09A68FF
:101CA80002F00C02082A11D15B685D020ED4604A6A
:101CB8001368990702D5E368012BB2D1136821692B
:101CC80023F0F80343EAC103136087E7E268594B3E
:101CD800B2B101221A60FFF72BF9554D06462B6861
:101CE8009B0707D52B68226923F0F80343EAC20350
:101CF8002B6073E7FFF71CF9801B0228EFD9A7E7D1
:101D08001A60FFF715F94A4E054633689F077FF5B5
:101D180065AFFFF70DF9401B0228F6D998E762690D
:101D2800444B82B10122C3F8802EFFF701F9404EDF
:101D38000546736F9B073FF555AFFFF7F9F8401B52
:101D48000228F6D984E7C3F8802EFFF7F1F8384E59
:101D58000546736F9F077FF545AFFFF7E9F8401B0E
:101D68000228F6D974E7324B1A6C12F0805228D147
:101D780001921A6C42F080521A641B6C03F0805373
:101D88000193019B01272C4D2B68D8051BD5A3680F
:101D9800274D012B27D12B6F43F001032B67FFF74A
:101DA800C7F8234E054641F28838336F9A0739D56C
:101DB800002F3FF41BAF1E4A136C23F080531364AB
:101DC80014E70027DFE72B6843F480732B60FFF7E5
:101DD800AFF806462B68D905D9D4FFF7A9F8801BB8
:101DE8000228F7D934E7052B04D12B6F43F00403FD
:101DF8002B67D0E72A6F22F001022A672A6F22F0A8
:101E080004022A67002BCAD1FFF792F841F28838FA
:101E180006462B6F9B07CBD5FFF78AF8801B4045FA
:101E2800F7D915E7FFF784F8401B4045BDD90FE700
:101E3800003802400000474200700040374DAA6851
:101E480002F00C02082A3ED0022B354B4FF000025C
:101E58001A662BD1FFF76CF806462B6899011FD438
:101E6800D4E907321343626A43EA8213E26A43EA17
:101E78000263A26A5208013A43EA02436B60284BA4
:101E8800264D01221A66FFF753F804462B689A017B
:101E98003FF5B0AEFFF74CF8001B0228F6D9D7E69D
:101EA800FFF746F8801B0228D7D9D1E6FFF740F89C
:101EB80004462B689B017FF59DAEFFF739F8001BA0
:101EC8000228F6D9C4E6012B3FF4ABAE6B68E26991
:101ED80003F4800191427FF4A4AE216A03F03F022B
:101EE8008A427FF49EAE616A47F6C0721A40B2EB2E
:101EF800811F7FF496AEA26A520803F44031013A7A
:101F0800B1EB024F7FF48DAEE26A03F07063B3EB7E
:101F1800026F14BF012000209BE600BF003802407A
:101F280000004742134908B58B6803F00C03042BE3
:101F38001CD0082B1CD14A684B68496813F48003ED
:101F480014BF0D480D48C1F3881118BF002302F0D3
:101F58003F02A1FB0001FEF733F9064B5B68C3F3B0
:101F6800014301335B00B0FBF3F008BD0248FCE716
:101F78000248FAE70038024000127A000024F40010
:101F88002DE9F0410D46044610B90120BDE8F08165
:101F9800434B1A6802F007028A4228D321688F0748
:101FA8002DD4C80740D43E4B1A6802F00702AA4253
:101FB80065D8226851076BD4130707D5394A2169B8
:101FC800936823F4604343EAC1039360FFF7AAFFD1
:101FD800344B354A9B68C3F30313D35CD840334B67
:101FE8001860334B1868FEF759FF0020CEE7CAB2D5
:101FF8001A701B6803F007038B42C6D1CEE7294B42
:1020080011F0040F1EBF9A6842F4E0529A600E075E
:1020180042BF9A6842F460429A609A68A06822F0C7
:10202800F00202439A60BCE762681E4B012A1CD189
:102038001B6813F4003FA8D01A4EB36823F00303BB
:102048001343B360FEF774FF41F288380746B3685C
:10205800626803F00C03B3EB820FA4D0FEF768FFAD
:10206800C01B4045F3D9032090E7911E01291B6846
:1020780002D813F0007FDEE713F0020FDBE7EAB2C5
:102088001A701B6803F00703AB427FF47EAF90E73A
:102098000449E0688B6823F4E05303438B608BE7C3
:1020A800003C02400038024054260008000000208E
:1020B80008000020044B054A9B68C3F38223D35CC5
:1020C800034A1068D8407047003802404C26000880
:1020D80000000020044B054A9B68C3F34233D35CDD
:1020E800034A1068D8407047003802404C26000860
:1020F80000000020026802F10C0353E8003F23F4BB
:1021080090730C3242E8003102680029F2D102F1E2
:10211800140353E8003F23F0010302F1140C4CE8C8
:1021280000310029F3D1036B012B0BD102F10C0311
:1021380053E8003F23F0100302F10C0C4CE8003187
:102148000029F3D1202380F842300023036370472D
:102158000268C16838B5136923F440530B4313610F
:10216800054683680069D168034368690343E869E1
:1021780021F4164121F00C0103430B43D36053694A
:10218800A96923F440730B4353611F4B9A4203D050
:1021980003F580639A4224D1FFF79CFFEA6919216D
:1021A800B2F5004FD5E90043A0FB01011CD1DA18B4
:1021B8004FF0000545EB0503FEF702F86422B0FB7B
:1021C800F2F102FB1103DB003233B3FBF2F303F04D
:1021D80007025B0002EB011203F4F8731344A360D7
:1021E80038BDFFF767FFD9E79A009B0FFDF7E8FFB7
:1021F8006422B0FBF2F102FB11031B013233B3FB83
:10220800F2F303EB0113EAE70010014010B50446AE
:1022180048B390F8413003F0FF021BB980F8402022
:10222800FEF7BCFB2268242384F84130D36823F4EA
:102238000053D3602046FFF78BFF23681A6922F406
:1022480090421A615A6922F02A025A61DA6842F405
:102258000052DA6000202023606484F8413084F85A
:102268004230606310BD0120FCE77047704708B535
:10227800806B0023C385FEF783FC08BD704790F888
:102288004230222B07B542D181680268836AB1F5D2
:10229800805F3ED1016900293ED15268C2F308022D
:1022A80023F8022B8362C38D013B9BB2C385002BAD
:1022B8002DD10268D16821F02001D160D16821F4C4
:1022C8008071D160516921F001015161202280F8AB
:1022D80042204363026B012A026827D1036302F19B
:1022E8000C0353E8003F23F0100302F10C0C4CE8F8
:1022F80000310029F3D11368DB0605D50191136875
:10230800019353680193019B818DFFF7B7FF03B0D9
:1023180000BD39B9016929B95268D2B21A70836A05
:102328000133BFE7526802F07F02F7E7FFF79EFF2D
:10233800EDE7000003681A6873B51607D9685D6988
:10234800044608D1960668D58D0666D502B0BDE864
:102358007040FFF794BF05F0010001F49075054344
:102368005BD0D60705D5CD0542BF636C43F00103AA
:102378006364530704D518B1636C43F002036364C4
:10238800960704D518B1636C43F00403636415071A
:1023980007D501F0200303431EBF636C43F0080315
:1023A8006364636C002B32D0920604D58B0602D589
:1023B8002046FFF764FF26687369626C03F04003E8
:1023C80002F0080253EA0205204622D0FFF792FEE7
:1023D80073695E0618D5226802F1140353E8003FBA
:1023E80023F04003143242E800310029F3D1E06BB6
:1023F80050B1774B0365FFF731FA40B1E06B036DDD
:1024080002B0BDE8704018472046FEF7B9FB02B09D
:1024180070BDFEF7B5FB6564F9E7206B012840F055
:102428009B80D50640F19880C80640F1958000222F
:1024380001921A6801925A680192019A5969A28D0B
:10244800490656D5E06B0168496889B2002947D02A
:10245800914245D2C269E185B2F5807F36D003F159
:102468000C0252E8002F22F4807203F10C0040E8BD
:1024780000210029F3D103F1140252E8002F22F0C1
:10248800010203F1140040E800210029F3D103F10F
:10249800140252E8002F22F0400203F1140040E831
:1024A80000210029F3D1202284F84220216303F17E
:1024B8000C0252E8002F22F0100203F10C0040E851
:1024C80000210029F3D1E06BFFF78AF90223636347
:1024D800E38DA18DC91A89B22046FFF7CFFE96E792
:1024E800914294D1C369B3F5807F90D1022363638D
:1024F800F2E7E18DE08D80B289B2002887D0511AC9
:1025080089B2002983D003F10C0252E8002F22F48B
:10251800907203F10C0545E800200028F3D103F17F
:10252800140252E8002F22F0010203F1140545E8D5
:1025380000200028F3D1202284F84220206303F1F0
:102548000C0252E8002F22F0100203F10C0545E8B6
:1025580000200028F3D1C9E7160628D50D0626D590
:1025680094F84120212A7FF452AFA168226AB1F57C
:10257800805F17D12169A9B932F8021BC1F308019C
:1025880059602262E28C013A92B2E284002A7FF416
:102598003EAFDA6822F08002DA60DA6842F0400280
:1025A800DA6034E7511C216212785A60EAE7500673
:1025B8007FF52DAF4A067FF52AAFDA6822F0400290
:1025C800DA60202384F841302046FFF74EFE1EE7EC
:1025D8007722000802440346934200D1704703F86B
:1025E800011BF9E770B50D4B0D4D5B1B9C100026C8
:1025F800A64209D100F01AF80A4D0B4B5B1B9C1040
:102608000026A64205D170BD55F8043B984701360F
:10261800EEE755F8043B98470136F2E774260008C0
:10262800742600087426000878260008F8B500BF4C
:10263800F8BC08BC9E467047F8B500BFF8BC08BC9B
:042648009E467047F3
:10264C000000000001020304000000000000000074
:10265C0001020304060708090006101600061016EE
:08266C008CDBFF7F0100000080
:04267400AD010008AC
:0426780089010008CC
:0C267C000024F400010000001000000029
:04000005080004F5F6
:00000001FF
