:020000040800F2
:1000000000000220A1050008ED0B0008EF0B00081E
:10001000F10B0008F30B0008F50B000800000000CE
:10002000000000000000000000000000F70B0008C6
:10003000F90B000800000000FB0B0008FD0B000896
:10004000F1050008F1050008F1050008F1050008B8
:10005000F1050008F1050008F1050008F1050008A8
:10006000F1050008F1050008F1050008F105000898
:10007000F1050008F1050008F1050008F105000888
:10008000F1050008F1050008F1050008F105000878
:100090000D0C0008F1050008250C0008F10500080A
:1000A000F1050008F1050008F1050008F105000858
:1000B000F1050008F1050008F1050008F105000848
:1000C000F1050008F1050008F1050008F105000838
:1000D000F1050008F1050008F1050008F105000828
:1000E000F1050008F1050008F1050008F105000818
:1000F000F1050008F1050008F1050008F105000808
:10010000F1050008F1050008F1050008F1050008F7
:10011000F1050008F1050008F1050008F1050008E7
:10012000F10500082D0C0008F1050008F105000894
:10013000F1050008F1050008F1050008F1050008C7
:10014000190C0008F1050008290C0008F105000849
:10015000F1050008F1050008F1050008390C000858
:10016000F1050008F1050008F1050008F105000897
:10017000F1050008F1050008F10500080000000085
:08018000F1050008F10500087B
:1001900010B5054C237833B9044B13B10448AFF3C1
:1001A00000800123237010BD8000002000000000AB
:1001B000F068000808B5034B1BB103490348AFF3CF
:1001C000008008BD0000000084000020F0680008E6
:1001D00053B94AB9002908BF00281CBF4FF0FF31AE
:1001E0004FF0FF3000F088B9ADF1080C6DE904CE96
:1001F00000F006F8DDF804E0DDE9022304B0704702
:100200002DE9F047089D0F4604468C46002B48D147
:100210008A42164661D9B2FA82F34BB1C3F1200289
:1002200001FA03FC20FA02F29E4042EA0C0C9C40C8
:100230004FEA164EB7B2BCFBFEF1220C0EFB11CCFE
:1002400042EA0C4201FB07F0904209D9B21801F1D1
:10025000FF3C80F0EE80904240F2EB800239324465
:10026000121AA4B2B2FBFEF00EFB102244EA0244C2
:1002700000FB07F7A74209D9341900F1FF3280F0DB
:10028000DA80A74240F2D7803444023840EA014085
:10029000E41B00211DB1DC400023C5E90043BDE89B
:1002A000F0878B4206D90DB1C5E90001002108464F
:1002B000BDE8F087B3FA83F1002948D1BB4202D3ED
:1002C000824200F20781841A67EB03020120944600
:1002D000002DE4D0C5E9004CE1E7002A00F092804F
:1002E000B2FA82F3002B40F0A8808A1A4FEA164E29
:1002F0001FFA86FC0121200CB2FBFEF70EFB172231
:1003000040EA02420CFB07F0904207D9B21807F10D
:10031000FF3802D2904200F2E2804746121AA4B29D
:10032000B2FBFEF00EFB102244EA02440CFB00FC80
:10033000A44507D9341900F1FF3202D2A44500F2D6
:10034000CB801046A4EB0C0440EA0740A2E7C1F1C1
:1003500020068B4022FA06FC4CEA030C07FA01F453
:1003600020FA06F3F7404FEA1C49234300FA01F84C
:100370001FFA8CFEB7FBF9F01C0C09FB107744EA5E
:10038000074400FB0EF7A74202FA01F20AD91CEB60
:10039000040400F1FF3A80F09B80A74240F298806D
:1003A00002386444E41B9FB2B4FBF9F309FB134425
:1003B00047EA044403FB0EFEA64509D91CEB0404DE
:1003C00003F1FF3780F08280A6457FD9023B644469
:1003D00043EA0040A4EB0E04A0FB02E7BC427346D4
:1003E000B94663D360D05DB1B8EB030264EB090496
:1003F00004FA06F622FA01F31E43CC40C5E9006474
:1004000000214CE76208480842EAC1710B0C43EA3C
:1004100000438AB242EA0342B3FBF6F1E407B44672
:100420003746B6461F23B0FBF6F0D21B41EA004127
:1004300061E7614614E7104628E7C3F1200120FA7E
:1004400001F29E4027FA01F19F403A434FEA164ECF
:100450001FFA86FCB1FBFEF70EFB1710110C41EAE8
:10046000004107FB0CF8884504FA03F43AD97118E7
:1004700007F1FF3001D288451FD8A1EB0801B1FB7D
:10048000FEF808FB0CF70EFB181192B242EA01428B
:10049000BA422FD2B21808F1FF31C6D2BA42C4D242
:1004A000A8F102013244C0E7F0459CD2BEEB020342
:1004B00067EB0C070138B94695E7A6EB08084144FD
:1004C000B81EB1FBFEF808FB0CF7DCE73B467FE704
:1004D000504667E70846FBE63444023832E7023FFD
:1004E00032441BE7A1EB08013846B1FBFEF808FBDC
:1004F0000CF7C8E7414698E7704700BF00000000CE
:1005000001F0FF01102A2BDB10F0070F08D010F8C4
:10051000013B013A8B422DD010F0070F42B3F6D1C8
:10052000F0B441EA012141EA014122F007047FF0E1
:1005300000070023F0E80256083C85EA010586EA38
:10054000010685FA47F5A3FA87F586FA47F6A5FA74
:1005500087F68EB9EED1F0BC01F0FF0102F0070280
:1005600032B110F8013B013A83EA010313B1F8D12B
:100570000020704701387047002D06BF354603380C
:10058000073815F0010F07D1013015F4807F02BF45
:10059000013015F4C03F0130F0BC0138704700BF96
:1005A000DFF834D000F0A4FB0C480D490D4A0023BD
:1005B00002E0D458C4500433C4188C42F9D30A4A18
:1005C0000A4C002301E013600432A242FBD305F081
:1005D00041FB00F08FFE7047000002200000002069
:1005E00080000020BC6A00088000002024830020D6
:1005F000FEE7000070B58AB004460E4628220021AE
:10060000684605F0D3FA00250323C4E901354FF409
:1006100000224FF44013C4E904234FF00123A361E7
:100620004FF480732660E560A383204600F04EFF00
:10063000C8B90E4B04909E4214BF0E262E460123CD
:10064000CDE90560CDE90000CDE9020007930893EC
:1006500069460E232046099300F0B4FFB0FA80F0FB
:1006600040090AB070BD2846FBE700BF00640040A7
:1006700070B588B006461422002103A805F096FA4A
:100680000025474B00951A6B464842F002021A6358
:100690001A6B02F002020092009A01951A6B42F066
:1006A00010021A631A6B02F010020192019A02956D
:1006B0001A6B42F040021A631B6B03F04003029373
:1006C0002A460421029B01F0C1FC36480122182170
:1006D00001F0BCFC344801224FF4007101F0B6FC7B
:1006E0002A463248012101F0B1FC01241C232D4887
:1006F00003A9CDE90334CDE9055501F0CFFB4FF453
:1007000000732948039303A901F0C8FB022327487B
:10071000039403A9069301F0C1FBF20704D5244911
:100720002448FFF767FF0446B30706D5224923484C
:10073000FFF760FF00EA0403DCB2750715D5204916
:10074000204B0B604FF4E1200023C1E901030C2290
:100750000846C1E90333C1E90523CB6101F0ACFFD1
:10076000002814BF002404F00104310715D51649F0
:10077000164B0B604FF4E1220023C1E90123084628
:100780000822C1E90333C1E90523CB6101F094FFDD
:10079000002814BF002404F00104204608B070BDF6
:1007A00000380240001002400018024000040240DD
:1007B00000640040B8010020006800409001002063
:1007C00048010020001401400001002000480040C2
:1007D000C20738B505461FD5114800F079FFC8B9E2
:1007E0000F4848F2024101F029F8B0FA80F4640998
:1007F000AB070DD50B4800F06BFF78B9094848F2FC
:10080000024101F01BF8002814BF002404F0010489
:10081000204638BD0024EBE70124E9E70024F7E790
:10082000B80100209001002082B00D4B0021009102
:100830005A6C42F480425A645A6C02F4804200922C
:10084000009A01911A6C42F080521A641B6C03F0FA
:1008500080530193019B032002B001F011B900BF46
:10086000003802400F2801D8FFF702BF0020704770
:100870000F2801D8FFF7ACBF0020704708B5002251
:100880000421084801F0E2FB022000F005FE0548C3
:100890000122042101F0DAFBBDE80840322000F01B
:1008A000FBBD00BF001002400A4638B1012807D145
:1008B0001021054882F0010201F0C8BB0821F8E7C9
:1008C00002484FF40071F5E70010024000180240A2
:1008D00028B1012805D11021044801F0BCBB082132
:1008E000FAE703484FF40071F7E700BF0010024039
:1008F0000018024010B58AB0022306930321092391
:10090000CDE90813354A03680024934205940794FF
:100910002BD1334B00941A6C324842F000721A64A7
:100920001A6C02F000720092009A01941A6B42F065
:1009300008021A631B6B059103F00803019305A9D4
:10094000019B01F0ABFA22460521142001F0AAF820
:10095000142001F0D9F816202246052101F0A2F852
:10096000162001F0D1F80AB010BD1F4A9342FAD107
:100970001B4B02941A6C1D4842F000721A641A6CE8
:1009800002F000720292029A03941A6C42F08062A2
:100990001A641A6C02F080620392039A04941A6B30
:1009A00042F002021A631B6B03F002030493049BE0
:1009B00005A94FF44053059301F070FA2246052132
:1009C000402001F06FF8402001F09EF842202246BE
:1009D000052101F067F84220C3E700BF0064004032
:1009E00000380240000C0240006800400004024051
:1009F00070B514228AB0064600210DEB020005F006
:100A0000D5F83368424A934224D1424B42480021F0
:100A100000911A6C42F480221A641A6C02F480224B
:100A20000092009A01911A6B42F002021A631B6B4A
:100A300003F002030193019B4FF4406E0223CDE9C2
:100A400005E30322072305A9CDE9082301F026FACF
:100A50000AB070BD314A9342FAD12E4B3048314C26
:100A6000002502955A6C42F020025A645A6C02F03A
:100A700020020292029A03951A6B42F004021A6352
:100A80001A6B02F004020392039A04951A6B42F463
:100A900080021A631B6B03F480030493049BC0223F
:100AA0000223CDE9052301210323CDE90713082300
:100AB00005A9099301F0F2F91B48A5614FF02063E5
:100AC000C4E900034FF48063C4E904354FF4807C2B
:100AD0004FF400332046C4E90255C4E907C36562F8
:100AE00001F050F808B100F01FF900220621F4636C
:100AF0003920A66300F0D6FF392001F005F8002266
:100B00000621472000F0CEFF472000F0FDFF9FE7C1
:100B10000048004000380240000402400014014038
:100B200000080240A00000202864024030B51F4B9E
:100B300005688DB004469D4214BF022501250021A1
:100B4000204600F06CFE08B90DB030BD1022002127
:100B500001A805F02BF80DF10B0305AA0021204692
:100B600000F0E1FD0028EFD1079A111F4B424B41E5
:100B70008DF80930089B981E434243418DF80A3096
:100B8000DDE90531042A08BF0B460193099B8DF866
:100B9000083000F07BFC01A90246284600F044F929
:100BA00001A9284600F042F9C9E700BF00640040EF
:100BB00010B5074B04689C4214BF0224012400F0C6
:100BC0005DFF01462046BDE8104000F02EB900BF91
:100BD000006400400268034B9A4202BF024B0122AC
:100BE0001A707047001401409C0000207047FEE717
:100BF000FEE7FEE7FEE770477047704708B500F074
:100C000039FCBDE8084000F0A2BF0000014800F038
:100C100031BE00BFB8010020014800F02BBE00BF6C
:100C200090010020FFF7F2BFFFF7F6BF014801F087
:100C300077B800BFA0000020014801F0D1BD00BF7F
:100C4000480100200120704708B504F0FDFF16237D
:100C500003604FF0FF3008BD08B504F0F5FF162320
:100C60000360FEE770B50D4614460E46731B9C42AA
:100C700001DC204670BDAFF3008006F8010BF5E7FC
:100C800070B50D4614460E46731B9C4201DC20468F
:100C900070BD16F8010BAFF30080F5E74FF0FF30A1
:100CA00070474FF400534B6000207047012070479D
:100CB000002070470A4A0346106810B508B9094871
:100CC00010600949094C0344091B8B4206D904F002
:100CD000BBFF0C2303604FF0FF3010BD1360FCE737
:100CE000E001002028830020000002200004000012
:100CF000034AD2F8883043F47003C2F88830704752
:100D000000ED00E0054A1368C31AB3F5FA7F03D378
:100D100010600020FFF7DCBD704700BFE401002039
:100D200001460220FFF7C0BD08B572B601210220BE
:100D3000FFF7BAFDFEE7000030B595B0044600F0BD
:100D40007FFB102200210AA804F030FF14220021AA
:100D500003A804F02BFF314B002101911A6C42F0E3
:100D600080521A641B6C03F080530193019B2C4B3F
:100D700002911A6842F480421A601B6803F48043AF
:100D80000293029B01214FF480330225CDE9081321
:100D90004FF480030820CDE90E534FF4A873CDE93A
:100DA0001003072308A81295139301F05DF908B109
:100DB000FFF7BAFF0F23CDE9033505904FF4A0529A
:100DC0004FF48053052103A8CDE9062301F028FB49
:100DD0000028EDD100F074FBB0F5805F81BF114AAF
:100DE000136843F4807313602046FFF73BFD00282F
:100DF000DED02046FFF73CFD0028D9D00021084670
:100E0000FFF752FD00210120FFF74EFD00210220D7
:100E100015B0BDE83040FFF747BD00BF00380240C5
:100E200000700040003C024070477047704700204F
:100E30007047000070B58CB00D4630220021684626
:100E400004F0B4FE6E466B462C4600225CB90F4996
:100E50002B890F484D630522C1E9013602F04CF998
:100E600018B9204603E0042A03D16FF00B000CB040
:100E700070BD61681960618959600AB143F8043C2A
:100E8000246804B99C6001320C33DFE708020020BB
:100E90004002002008B50146044802F0C1FD044BA1
:100EA0001A78012A04BF00221A7008BD186A0008C7
:100EB000F002002000F0EABA08B5024802F0A0FAF9
:100EC000002008BD4002002008B513460A4601462E
:100ED000034802F0DBF9003818BF0120404208BD8A
:100EE0004002002008B513460A460146034802F0B6
:100EF000F2F9003818BF0120404208BD400200202E
:100F00002DE9F341DFF8388004460425002798F8DE
:100F1000003001971BB9094801A902F043F9019E6D
:100F20004EB1236921463046984710B1304602F051
:100F30004AFF013DEBD102B0BDE8F0814002002044
:100F4000F002002000F0A2BA30B58DB02C4C2D4834
:100F5000002501950995236B43F001032363236B5F
:100F600003F001030193019B0295236B43F00403FB
:100F70002363236B03F004030293029B0395236B0B
:100F800043F040032363236B03F040030393039B6D
:100F90008623079303230A930223089307A90B23AD
:100FA0000B9300F07BFF322307A91748079300F04B
:100FB00075FF4FF4D0431548079307A900F06EFF63
:100FC0000495236B43F000732363236B03F00073DA
:100FD0000493049B0595236B43F080632363236B89
:100FE00003F080630593059B0695236B43F0006334
:100FF0002363236B03F000630693069B0DB030BDA3
:101000000038024000000240000802400018024080
:1010100070B59AB064220446002101A804F0C6FD10
:101020001C4802F059FA94F82D305A070ED50128C1
:101030000ADC194802F02DF8204602F0FCFD20469B
:1010400002F022FE1AB070BD5B07FBD40128F9DD67
:10105000831E032BF6D8114A0F4832F81350104A5A
:1010600001A932F8136002F059F90B4801A9CDE942
:10107000065602F0B9F90028E4D1074801F0D2FF82
:101080000028DFD1204602F0C7FD204602F0E3FD34
:10109000D8E700BFE8010020400200200E6A0008E7
:1010A000066A000837B5044608B9FFF73DFE47F267
:1010B0007343E385284B6361284BA361284B294A7E
:1010C00018689B88ADF80430274B13604FF4000379
:1010D0009360264B1361264B0090D36010464FF46B
:1010E000BF63C2F804D0536101F0A0FE054658BBAF
:1010F000204A214B2148C4E90923062384F82C30D7
:1011000094F82D3043F00A0384F82D3002F035FCBA
:10111000342229461A4804F049FD194A19491A4847
:10112000212342F8043C4FF44003136102F092F98A
:1011300050B9154802F0A2F90546204645B102F023
:10114000A3FD204602F077FD6FF00B0003B030BD29
:10115000FFF75EFF2846F9E7E54B0008350E00086B
:10116000206900084002002000800240DC4000208E
:101170003C400020DC0502514D555701186A00081B
:101180000C02002004000020E801002013B50446F2
:101190000C4802F027FC034678B100F120020A490E
:1011A000226001614FF4BF61CDE90021002141229D
:1011B000084602F0CBFD02B010BD044A20600121B8
:1011C0001170F8E7186A0008950E0008F002002078
:1011D00030B5002542F8205CA2F1200422F8185C0A
:1011E00022F8163C026822B904600C6002681AB941
:1011F00030BD0A681460F8E711891944118112683A
:10120000F5E700002DE9F8438846BDF820901E461A
:101210001446002A55D01289531EB3F5007F08D317
:101220002B4A1368013313602046BDE8F84302F0EF
:10123000CABD28490023204602F031FF2389984285
:101240000146EDD1244A254F136801331360244A27
:10125000136803441360234B32681A60224B4FF427
:101260002072A3F800903880362002F0E7FD054692
:1012700048B9174A136801331360002DD4D02846AB
:1012800002F0A1FDD0E72289124902F039FF0028BF
:10129000EFD132464B462946404603F0B3F90646A5
:1012A000284602F090FD204602F08DFD5EB90F4AFF
:1012B0001368013313600E4A3B88116811FA83F3F7
:1012C0001360BDE8F883024A13680133F8E700BFF2
:1012D000C04300207C410020D0430020B6430020C2
:1012E000C8430020BC430020B8430020CC4300206A
:1012F000C44300202DE9F041002088B0FFF71CFD19
:10130000FFF7BCFA334A6FF07F43CDE9052303F5BD
:10131000D433C133079302F073F92F4B02932F4B51
:101320000193002300932E4807AB06AA05A902F0FB
:1013300003FC08B9FFF7F8FC29482A4C02F066FCC8
:101340002748FFF765FE002003F0AEF9206028B9BA
:10135000206800283BD1FFF7E7FC06E0224944F66D
:10136000216203F061F80028F2D1204920681C4E68
:101370001F4FDFF88080002203F068F9002500F09D
:1013800085F81748FFF7BCFD02F068FF00F07EF813
:10139000431B632B04460FD93046FFF739FE96F8FE
:1013A0002D30C3F380033B703978003918BF012119
:1013B0000120FFF779FA2546D8F80000003818BF59
:1013C0000120FFF7ADFC2046FFF79CFCD7E703F0B8
:1013D00043F9C0E7C0A8010A09580008A510000891
:1013E000804300207C4300209C6A0008051200080E
:1013F000B4430020C043002038B50E4B1A784FF498
:101400007A73B3FBF2F30C4A05461068B0FBF3F0B5
:1014100000F088FB044658B90F2D09D8024629462A
:101420004FF0FF3000F03EFB044B20461D6038BDFE
:101430000120FCE718000020000000201C00002014
:1014400008B50B4B1A6842F400721A601A6842F42D
:1014500080621A601A6842F480721A60032000F0F9
:101460000FFB0F20FFF7C8FFFFF7DEF9002008BDD4
:10147000003C0240034A044B11681B780B44136084
:10148000704700BFD443002018000020014B1868AB
:10149000704700BFD443002038B50446FFF7F6FF7D
:1014A000631C1CBF054B1B78054618BFE418FFF7EB
:1014B000EDFF431BA342FAD338BD00BF1800002044
:1014C000014B1868000C7047002004E038B5044652
:1014D00000286ED090F820300BB9FFF70BFA226885
:1014E000136843F001031360FFF7D0FF054623683C
:1014F0005A68D10751D51A6822F002021A60FFF724
:10150000C5FF054623685A68920754D4227E012AF3
:101510001A680CBF42F0800222F080021A60627EDC
:10152000012A1A680CBF42F0400222F040021A6001
:10153000A27E012A1A680CBF42F0200222F020028B
:101540001A60E27E012A1A680CBF22F0100242F0F3
:1015500010021A60227F012A1A680CBF42F00802AA
:1015600022F008021A60627F012A1A680CBF42F05A
:10157000040222F004021A60D4E902210A4321691C
:101580000A4361690A43616801390A43DA6100204C
:101590000123606284F820300CE0FFF777FF401BE6
:1015A0000A28A4D9636A43F400336362052384F8EC
:1015B0002030012038BDFFF769FF401B0A28A1D960
:1015C000F0E7000030B590F82030013B012B77D8D0
:1015D0003E4BD3F8002242F00102C3F80022D3F8B8
:1015E000002222F47C52C3F80022D3F80022486A79
:1015F00042EA0022C3F800224A69D3F81C5202F0E2
:101600001F040120A04025EA0005C3F81C52CD6943
:10161000C443002D35D1D3F80C522540C3F80C52E9
:10162000CB688D8845EA0345D30003F1804303F579
:10163000C8430A88C3F840528D6842EA0542C3F89D
:1016400044228A69214B8ABBD3F804222240C3F882
:1016500004220A6972BBD3F814221440C3F814425E
:101660000B6A012B194B02BFD3F81C220243C3F8AB
:101670001C22D3F8002222F00102C3F8002200202D
:1016800030BD012DDDD1D3F80C520543C3F80C5207
:101690000B688D8845EA0345D30003F1804303F5C9
:1016A000C8438A89C3F840528D68C6E7D3F804223C
:1016B0000243CCE7D3F814220243C3F81422CFE745
:1016C000436A43F4802343620120D9E70064004069
:1016D00038B590F82030012B04461FD10268022350
:1016E00080F82030136823F001031360FFF7CEFE6B
:1016F00005462368586810F0010001D1606238BDCA
:10170000FFF7C4FE401B0A28F3D9636A43F4003391
:101710006362052384F820300120F0E7436A43F434
:1017200000234362F8E7F0B590F82040013C012C1B
:1017300071D8066841B9F468A40707D1436A43F435
:10174000001343620120F0BD3469F5E706EB011593
:101750000C01D5F8B07107F004079760002F50D145
:10176000D5F8B0717F0D1760D5F8B07107F002079A
:10177000D760D5F8B4713F0756BFD5F8B4710827C4
:1017800007F00F071761D5F8B471D5F8B4512644A6
:10179000C7F307272D0C97615561D6F8B8211A7049
:1017A00002682244D2F8B821120A5A700268224410
:1017B000D2F8B821120C9A7002682244D2F8B821EB
:1017C000120EDA7002682244D2F8BC211A71026843
:1017D0002244D2F8BC21120A5A7102682244D2F87B
:1017E000BC21120C9A7102682244D2F8BC21120E5C
:1017F000DA71036851B9DA6842F02002DA60002039
:10180000A1E7D5F8B071FF085760ADE71A6942F05B
:1018100020021A61F3E7436A43F4802391E790F8CA
:101820002030013B012B07D8036819B9D86800F0B4
:10183000030070471869FAE70020704790F82030DD
:10184000013B012B05D802685369194351610020FF
:101850007047436A43F48023436201207047704716
:1018600070477047704770477047704770477047C0
:10187000704770472DE9F84F03685E69D3F804900C
:10188000D3F80880D3F80CB0D3F810A09F6916F0F5
:101890000104054627D018F0010F07D0012218F0E7
:1018A000020F9A6000F0A580FFF7D9FF002418F41A
:1018B000807F0AD02B684FF4807218F4007F9A6002
:1018C00000F0A6802846FFF7CBFF18F4803F0AD02F
:1018D0002B684FF4803218F4003F9A6000F0A88023
:1018E0002846FFF7BEFF310707D51BF0100F1FBFBB
:1018F0002B68102244F40074DA60720708D51BF0DC
:10190000080F05D02B680822DA602846FFF7ADFFE4
:10191000B30706D52B68DB68980702D02846FFF787
:1019200005F9710607D51AF0100F1FBF2B6810229A
:1019300044F480641A61B20608D51AF0080F05D085
:101940002B6808221A612846FFF791FFF30606D597
:101950002B681B69980702D02846FFF787FFB10361
:1019600008D519F0100F05D02B6810225A602846B0
:10197000FFF77EFFF20308D519F0080F05D02B689A
:1019800008225A602846FFF774FF330428D519F05F
:10199000040F2A6822D0F00544BF07F001031C435E
:1019A000B10503D5BB0748BF44F00204700503D559
:1019B000790748BF44F0040433050FD517F07003CE
:1019C0000CD0402B54D043D8202B4BD0302B4CD0B4
:1019D000102B44D0936923F0700393610423536068
:1019E0002CB16B6A23436B622846FFF7E1F8BDE830
:1019F000F88F18F0040F05D118F0080F05D1FFF784
:101A000031FF53E74FF4006451E74FF480544EE741
:101A100018F4806F02D044F4005456E718F4006FB5
:101A200002D044F4804450E72846FFF71CFF4CE7FF
:101A300018F4802F02D044F4004454E718F4002F27
:101A400002D044F480344EE72846FFF70DFF4AE702
:101A5000502B10D0602BBDD144F48074BAE744F011
:101A60000804B7E744F01004B4E744F02004B1E7F9
:101A700044F04004AEE744F08004ABE7406A7047AE
:101A80000749CA6822F4E0620302120403F4E06327
:101A9000120C134343F0BF6343F40033CB60704731
:101AA00000ED00E0164B30B5DC68C4F30224C4F14D
:101AB0000703251D042B28BF0423062D4FF0FF35F7
:101AC0008CBF033C002405FA03F321EA0303A5407D
:101AD00022EA0502A340002843EA0203ACBF00F15A
:101AE0006040084A4FEA0313B8BF00F00F00DBB2B2
:101AF000AABF00F56140135480F8003330BD00BF29
:101B000000ED00E014ED00E0002807DB044A410985
:101B1000012300F01F00834042F82130704700BFCE
:101B200000E100E00138B0F1807F0BD24FF0E023FC
:101B3000054A5861F02182F823100020072298619D
:101B40001A6170470120704700ED00E0704708B54A
:101B5000FFF7FCFF08BD0000036810B5084C024603
:101B6000D9B210391820B1FBF0F0205CD06523F415
:101B70007F7020F003005F2988BF0430906510BD9E
:101B8000246A000870B50446FFF780FC0546002C67
:101B900060D0022384F835302268002384F8343082
:101BA000136823F00103136022681368D8072ED44A
:101BB00013683248A1691840D4E901352B43E56820
:101BC0002B4325692B4365692B43E5690B432B4365
:101BD000256A2B430343606A042802BFD4E90B56ED
:101BE00035432B4313605369042823F0070343EA6A
:101BF000000335D1A06AE56A03438DB391B901288A
:101C000020D030F002012BD1E90129D51DE0FFF7EA
:101C10003DFC401B0528C7D920230320636584F8B9
:101C2000350070BDB1F5005F16D1032818D801A1A9
:101C300051F820F04B1C0008091C00084B1C000840
:101C4000451C0008B5F1C07F0AD14023636501231C
:101C500084F835300120E4E70228F6D90328D3D0F0
:101C600053612046FFF778FFE26D3F239340836086
:101C700000200123606584F83530D2E73F8010F002
:101C800070B50446866DFFF701FC94F83530022BE1
:101C9000054606D0802363650120002384F8343094
:101CA00070BD23681A6822F016021A605A6922F081
:101CB00080025A61226C0AB9A26C1AB11A6822F029
:101CC00008021A601A6822F001021A602368186874
:101CD00010F0010007D1E26D3F239340B360012370
:101CE00084F83530D9E7FFF7D1FB401B0528EDD943
:101CF00020230320636584F83500CEE790F8353063
:101D0000022B03D08023436501207047026805231E
:101D100080F83530136823F001031360002070470A
:101D2000F7B5002301935C4B856D1F68C36D2E686A
:101D300008229A40324204460CD0016808684007E5
:101D400008D5086820F004000860AA60626D42F0BF
:101D50000102626501229A40324208D02168496935
:101D6000090641BFAA60626D42F002026265042268
:101D70009A40324208D021680968880741BFAA60AA
:101D8000626D42F00402626510229A40324210D025
:101D90002368196809070CD5AA601A68500337D55B
:101DA0001B68190301D4236C00E0A36C0BB120461F
:101DB0009847E16D20228A4032423AD02368186861
:101DC000C60636D5AA6094F83520052A1A6827D1A8
:101DD00022F016021A605A6922F080025A61226CBF
:101DE0000AB9A26C1AB11A6822F008021A603F23DD
:101DF0008B40AB60012384F83530002384F8343005
:101E0000236D002B45D0204603B0BDE8F0401847B5
:101E10001A68D2055EBF1A6822F008021A60C2E78B
:101E2000500327D51B68190331D4636C0BB12046CE
:101E30009847636D6BB3636DDA0719D522684FF469
:101E40001653B7FBF3F7052384F83530136823F0F6
:101E500001031360019B0133BB42019302D8136855
:101E6000DB07F7D4012384F83530002384F83430BD
:101E7000E36CC6E71A6812F4807208D1196821F081
:101E800010011960012384F8353084F83420E36BA5
:101E9000CCE703B0F0BD00BF000000202DE9F74FF4
:101EA000DFF8A491664A00230D6801249C4004EAEF
:101EB0000506AC4340F0AF804D68032705F00304EE
:101EC0004FEA430807FA08FC671E012F6FEA0C0C63
:101ED00034D8876807EA0C0ECF6807FA08F747EA94
:101EE0000E078760476827EA060EC5F300179F4074
:101EF00047EA0E074760C76807EA0C0E8F6807FAC3
:101F000008F747EA0E07022CC76019D14FEAD30A37
:101F100000EB8A0A03F0070BDAF820704FEA8B0B0C
:101F20004FF00F0E0EFA0BFE27EA0E0E0F6907FA9E
:101F30000BF747EA0E07CAF8207001E0032CDAD14C
:101F4000076804FA08F407EA0C073C4315F4403F1D
:101F5000046060D000240194D9F8444044F48044E3
:101F6000C9F84440D9F8444023F0030707F18047FB
:101F700004F4804407F59C37019403F0030C019CA2
:101F8000D7F808E04FEA8C0C0F2404FA0CF42EEA80
:101F9000040E2C4CA04245D004F58064A04243D0EE
:101FA00004F58064A04241D004F58064A0423FD093
:101FB00004F58064A0423DD004F58064A0423BD08B
:101FC00004F58064A04239D004F58064A04214BFB7
:101FD0000824072404FA0CF444EA0E04BC60946854
:101FE000F74315F4801F0CBF3C4034439460D46821
:101FF00015F4001F0CBF3C403443D460546815F402
:10200000003F0CBF3C40344354601468ED0354BFA0
:102010003C40344314600133102B7FF445AF03B0D0
:10202000BDE8F08F0024D5E70124D3E70224D1E7EF
:102030000324CFE70424CDE70524CBE70624C9E732
:10204000003C014000000240003802400AB18161BA
:1020500070470904FBE7436901EA030221EA03012F
:1020600041EA0241816170472DE9F341044640B3E2
:102070000368DE0710D423689D075BD42368190723
:1020800000F19D8023685A0700F1BD80A369002BF1
:1020900040F0248100202CE08D4B9A6802F00C0265
:1020A000042A07D09A6802F00C02082A0BD15B6858
:1020B000590208D5864B1B689A03DCD56368002B50
:1020C000D9D1012015E06368814DB3F5803F13D16C
:1020D0002B6843F480332B60FFF7D8F97C4E05461C
:1020E00033689B03C7D4FFF7D1F9401B6428F7D9A5
:1020F000032002B0BDE8F081B3F5A02F04D12B6816
:1021000043F480232B60E3E72A6822F480322A60BC
:102110002A6822F480222A60002BDDD1FFF7B6F96D
:1021200006462B689F03A6D5FFF7B0F9801B6428ED
:10213000F7D9DDE7664B9A6812F00C0F07D09A6862
:1021400002F00C02082A11D15B685D020ED4604ACD
:102150001368990702D5E368012BB2D1136821698E
:1021600023F0F80343EAC103136087E7E268594BA1
:10217000B2B101221A60FFF789F9554D06462B6866
:102180009B0707D52B68226923F0F80343EAC203B3
:102190002B6073E7FFF77AF9801B0228EFD9A7E7D6
:1021A0001A60FFF773F94A4E054633689F077FF5BB
:1021B00065AFFFF76BF9401B0228F6D998E7626913
:1021C000444B82B10122C3F8802EFFF75FF9404EE5
:1021D0000546736F9B073FF555AFFFF757F9401B57
:1021E0000228F6D984E7C3F8802EFFF74FF9384E5E
:1021F0000546736F9F077FF545AFFFF747F9401B13
:102200000228F6D974E7324B1A6C12F0805228D1AA
:1022100001921A6C42F080521A641B6C03F08053D6
:102220000193019B01272C4D2B68D8051BD5A36872
:10223000274D012B27D12B6F43F001032B67FFF7AD
:1022400025F9234E054641F28838336F9A0739D570
:10225000002F3FF41BAF1E4A136C23F0805313640E
:1022600014E70027DFE72B6843F480732B60FFF748
:102270000DF906462B68D905D9D4FFF707F9801B5D
:102280000228F7D934E7052B04D12B6F43F0040360
:102290002B67D0E72A6F22F001022A672A6F22F00B
:1022A00004022A67002BCAD1FFF7F0F841F2883800
:1022B00006462B6F9B07CBD5FFF7E8F8801B404500
:1022C000F7D915E7FFF7E2F8401B4045BDD90FE706
:1022D000003802400000474200700040374DAA68B5
:1022E00002F00C02082A3ED0022B354B4FF00002C0
:1022F0001A662BD1FFF7CAF806462B6899011FD43E
:10230000D4E907321343626A43EA8213E26A43EA7A
:102310000263A26A5208013A43EA02436B60284B07
:10232000264D01221A66FFF7B1F804462B689A0180
:102330003FF5B0AEFFF7AAF8001B0228F6D9D7E6A2
:10234000FFF7A4F8801B0228D7D9D1E6FFF79EF843
:1023500004462B689B017FF59DAEFFF797F8001BA5
:102360000228F6D9C4E6012B3FF4ABAE6B68E269F4
:1023700003F4800191427FF4A4AE216A03F03F028E
:102380008A427FF49EAE616A47F6C0721A40B2EB91
:10239000811F7FF496AEA26A520803F44031013ADD
:1023A000B1EB024F7FF48DAEE26A03F07063B3EBE2
:1023B000026F14BF012000209BE600BF00380240DE
:1023C00000004742134908B58B6803F00C03042B47
:1023D0001CD0082B1CD14A684B68496813F4800351
:1023E00014BF0D480D48C1F3881118BF002302F037
:1023F0003F02A1FB0001FDF7EBFE064B5B68C3F358
:10240000014301335B00B0FBF3F008BD0248FCE779
:102410000248FAE70038024000127A000024F40073
:102420002DE9F0410D46044610B90120BDE8F081C8
:10243000434B1A6802F007028A4228D321688F07AB
:102440002DD4C80740D43E4B1A6802F00702AA42B6
:1024500065D8226851076BD4130707D5394A21691B
:10246000936823F4604343EAC1039360FFF7AAFF34
:10247000344B354A9B68C3F30313D35CD840334BCA
:102480001860334B1868FEF7B7FF0020CEE7CAB2DA
:102490001A701B6803F007038B42C6D1CEE7294BA5
:1024A00011F0040F1EBF9A6842F4E0529A600E07C2
:1024B00042BF9A6842F460429A609A68A06822F02B
:1024C000F00202439A60BCE762681E4B012A1CD1ED
:1024D0001B6813F4003FA8D01A4EB36823F003031F
:1024E0001343B360FEF7D2FF41F288380746B36862
:1024F000626803F00C03B3EB820FA4D0FEF7C6FFB3
:10250000C01B4045F3D9032090E7911E01291B68A9
:1025100002D813F0007FDEE713F0020FDBE7EAB228
:102520001A701B6803F00703AB427FF47EAF90E79D
:102530000449E0688B6823F4E05303438B608BE726
:10254000003C0240003802401069000800000020F2
:102550001C000020014B1868704700BF00000020DD
:10256000044B054A9B68C3F38223D35C034A10687B
:10257000D840704700380240086900080000002079
:10258000044B054A9B68C3F34233D35C034A10688B
:10259000D840704700380240086900080000002059
:1025A000026802F10C0353E8003F23F490730C32ED
:1025B00042E8003102680029F2D102F1140353E825
:1025C000003F23F0010302F1140C4CE80031002914
:1025D000F3D1036B012B0BD102F10C0353E8003F45
:1025E00023F0100302F10C0C4CE800310029F3D168
:1025F000202380F842300023036370470268C168DB
:1026000038B5136923F440530B43136105468368BF
:102610000069D168034368690343E86921F41641FE
:1026200021F00C0103430B43D3605369A96923F4E0
:1026300040730B4353611F4B9A4203D003F58063F1
:102640009A4224D1FFF79CFFEA691921B2F5004FA5
:10265000D5E90043A0FB01011CD1DA184FF00005B9
:1026600045EB0503FDF7B4FD6422B0FBF2F102FB7C
:102670001103DB003233B3FBF2F303F007025B001C
:1026800002EB011203F4F8731344A36038BDFFF7A3
:1026900067FFD9E79A009B0FFDF79AFD6422B0FB14
:1026A000F2F102FB11031B013233B3FBF2F303EB34
:1026B0000113EAE70010014010B5044648B390F852
:1026C000413003F0FF021BB980F84020FEF790F97B
:1026D0002268242384F84130D36823F40053D36064
:1026E0002046FFF78BFF23681A6922F490421A6193
:1026F0005A6922F02A025A61DA6842F40052DA601A
:1027000000202023606484F8413084F84230606304
:1027100010BD0120FCE77047704708B5806B0023AF
:10272000C385FEF757FA08BD704790F84230222B58
:1027300007B542D181680268836AB1F5805F3ED1F6
:10274000016900293ED15268C2F3080223F8022B26
:102750008362C38D013B9BB2C385002B2DD10268E0
:10276000D16821F02001D160D16821F48071D1605D
:10277000516921F001015161202280F84220436318
:10278000026B012A026827D1036302F10C0353E8AC
:10279000003F23F0100302F10C0C4CE8003100293B
:1027A000F3D11368DB0605D50191136801935368D3
:1027B0000193019B818DFFF7B7FF03B000BD39B9CD
:1027C000016929B95268D2B21A70836A0133BFE72E
:1027D000526802F07F02F7E7FFF79EFFEDE7000087
:1027E00003681A6873B51607D9685D69044608D18D
:1027F000960668D58D0666D502B0BDE87040FFF735
:1028000094BF05F0010001F4907505435BD0D60735
:1028100005D5CD0542BF636C43F0010363645307E4
:1028200004D518B1636C43F002036364960704D5C2
:1028300018B1636C43F004036364150707D501F016
:10284000200303431EBF636C43F008036364636C9F
:10285000002B32D0920604D58B0602D52046FFF716
:1028600064FF26687369626C03F0400302F008029B
:1028700053EA0205204622D0FFF792FE73695E06F6
:1028800018D5226802F1140353E8003F23F04003F7
:10289000143242E800310029F3D1E06B50B1774B9C
:1028A0000365FFF72BFA40B1E06B036D02B0BDE8A2
:1028B000704018472046FEF78DF902B070BDFEF754
:1028C00089F96564F9E7206B012840F09B80D50603
:1028D00040F19880C80640F19580002201921A6864
:1028E00001925A680192019A5969A28D490656D5FA
:1028F000E06B0168496889B2002947D0914245D20E
:10290000C269E185B2F5807F36D003F10C0252E84E
:10291000002F22F4807203F10C0040E8002100290E
:10292000F3D103F1140252E8002F22F0010203F167
:10293000140040E800210029F3D103F1140252E809
:10294000002F22F0400203F1140040E8002100298A
:10295000F3D1202284F84220216303F10C0252E8D3
:10296000002F22F0100203F10C0040E800210029A2
:10297000F3D1E06BFFF784F902236363E38DA18D4C
:10298000C91A89B22046FFF7CFFE96E7914294D14B
:10299000C369B3F5807F90D102236363F2E7E18DD1
:1029A000E08D80B289B2002887D0511A89B20029FF
:1029B00083D003F10C0252E8002F22F4907203F14D
:1029C0000C0545E800200028F3D103F1140252E879
:1029D000002F22F0010203F1140545E80020002831
:1029E000F3D1202284F84220206303F10C0252E844
:1029F000002F22F0100203F10C0545E8002000280A
:102A0000F3D1C9E7160628D50D0626D594F841203E
:102A1000212A7FF452AFA168226AB1F5805F17D1F5
:102A20002169A9B932F8021BC1F308015960226279
:102A3000E28C013A92B2E284002A7FF43EAFDA6877
:102A400022F08002DA60DA6842F04002DA6034E7AD
:102A5000511C216212785A60EAE750067FF52DAFCB
:102A60004A067FF52AAFDA6822F04002DA602023B6
:102A700084F841302046FFF74EFE1EE71B27000872
:102A80002DE9F043856A00EB85079146BB691C6818
:102A9000002C02DA0220BDE8F083FC6A002CF9D198
:102AA0008C68D1F800C026689E605E6862686FF32B
:102AB0000C0616431CF0010F5E6005D01E684A69C3
:102AC00026F4400616431E601CF0200F05D01E6839
:102AD000096926F04066314319601CF0040F18BFE5
:102AE0001968414E1CBF41F080011960196841F01E
:102AF000805119604FF000082946A46808F1010EC2
:102B00001CBB1A68B9F1000F6BD042F080421A600A
:102B10001A6842F000521A60BA69BFF35F8F1368F7
:102B200043F00043136000EB8103C26BDA62816201
:102B3000EFF31082012383F31088036C01334344C5
:102B4000036482F310880020A5E7D3F800C02CF0BE
:102B5000005CC3F800C0D3F800C0B9F1000F26D064
:102B60004CF0804CC3F800C001F1010CBCF1030F24
:102B700088BFA1F1030C00EB8C018B69D3F80080B6
:102B8000B8F1000F16DAB9690022724582D0BFF39E
:102B90005F8F0B6823F000430B606B1C032B88BF17
:102BA000EB1E00EB8301013289691D46EDE72CF035
:102BB000804CD7E7C96A0029E5D11968626821F01D
:102BC00080511960216899605968314011435960FA
:102BD000BFF35F8F196841F000411960F04661460C
:102BE0008BE722F0804292E700E0FFFF70B50D46D0
:102BF0000268AB681168044668690343A869034327
:102C0000686A0343A87B43EA4063E87F43EA0043E2
:102C1000287F43EA0033287943EA8023E87B43EAAC
:102C2000C01395F8280043EA00132A480840297C7D
:102C3000B1FA81F10343490943EAC153697CB1FA0E
:102C400081F1490943EA8153A97FB1FA81F1490928
:102C500043EA413395F82010B1FA81F1490943EA7A
:102C60004123136001201668FEF716FC2168A86C4A
:102C70000E608A692B6D22F0BE02120443EA004303
:102C8000120C134395F84C20B2FA82F2520943EA2F
:102C9000C21395F85520501E4242424143EAC203F6
:102CA00095F85620561E7242724143EA820395F807
:102CB000542002F1FF3CDCF1000242EB0C0243EA3B
:102CC00042038B6101208D69FEF7E6FB23689D615D
:102CD00070BD00BF0F8120FD70B54B6902680D46C5
:102CE000096A0B43697B43EA4163A97B43EA415389
:102CF000297F43EAC113A97F02F5805243EA811379
:102D000095F82410044643EA810390691A4901406A
:102D10000B43297BB1FA81F1490943EA8163697F59
:102D2000B1FA81F1490943EA01539361012096699F
:102D3000FEF7B2FB2268A969AB6802F580520B432B
:102D4000966195F8251043EAC11329690B43296858
:102D50000B43A96A43EA8103297943EA416343F4B7
:102D60000003136001201568FEF796FB236803F546
:102D700080531D6070BD00BF233FDEF813B50023F4
:102D80000193036803F5805304469A6942F4801264
:102D90009A619B6901930120FEF77EFB2368019AEB
:102DA00003F580539A6102B010BDF7B5866EC76E09
:102DB0000023019306F11203044650F8235037B163
:102DC0002B6A5BB901A8FEF7E1F9019B23B9E36E19
:102DD000BB421AD103B0F0BD2B62AB60A26D636938
:102DE0000AB943F0004343F480436B602B6843F01F
:102DF00000432B60731C032B88BFF31E03F11202E8
:102E0000013F54F822501E46D9E7BFF35F8F236875
:102E10002269F11C01F00301282003F5805300FB17
:102E200001229A60C4E91A67D4E70000F0B50446AD
:102E3000A7B0002800F0ED80D0F8843023B920231B
:102E4000C0F88430FEF780F800230193724BA1682C
:102E50005A6C42F480425A645B6C03F480430193E1
:102E6000019B6E4B5A6822F400025A605A680A436A
:102E70005A605B68236803F580531A6842F00102C8
:102E80001A60FEF703FB0646236803F580531D68AE
:102E900015F0010540F0B08001264FF4804240F269
:102EA00001174FF400630DA92046CDE912238DF8D8
:102EB0003860ADF85260ADF842600F958DF8505013
:102EC0008DF85450ADF8447016958DF85C501F95F0
:102ED0008DF880502195ADF888508DF88A50FFF715
:102EE00085FE4FF4803304934FF40053CDE906354B
:102EF0004FF48003089320464FF4807302A98DF8A5
:102F00000C608DF81660ADF82430ADF814708DF8B3
:102F100026500A95ADF82C700C950295FFF7DCFE53
:102F2000E66804F1140C33462A46284618605860B7
:102F30009860D8604CF8043F1F68194647F4801722
:102F400041F8287B032A14BFD960DE601F68013274
:102F500047F44007042A1F600B46E7D1226802F5B8
:102F600080570021A1623E61266904F1440C33467A
:102F70004FF0004EC3E908116069196040F48040C9
:102F800059609960D960C3F800E05860586820F033
:102F900000405860032D03F1280005F101054CF8AD
:102FA000043F14BFD860DE60042D0346E2D1002048
:102FB000C4E91700C4E91A006168A065184BFE60F7
:102FC0008D881D6409685964D36B43F40273D3631D
:102FD000D2F80C3143F4003343F06003C2F80C31F3
:102FE000D2F8103143F40313C2F810311023C4F89F
:102FF0008800C4F884300DE0FEF748FA801BB0F575
:10300000FA7F7FF641AF0423C4F88830E023C4F888
:103010008430012027B0F0BD003802400038014064
:103020000080024038B5D0F88430102B04462ED1F1
:103030002023C0F884300423C366FFF7B6FE23685C
:103040001A6842F008021A6001201D68FEF724FA8F
:1030500023681D601A6842F004021A6001201D688E
:10306000FEF71AFA236820461D60FFF787FE2368E3
:1030700003F5805300209A6942F400529A619A69DC
:1030800042F002029A614023C4F8843038BD012026
:10309000FCE738B5D0F88430402B04462AD12023F1
:1030A000C0F88430036803F580520120916921F44F
:1030B00000519161916921F0020191611A6822F039
:1030C00004021A601D68FEF7E7F9236820461D60B8
:1030D000FFF754FE23681A6822F008021A600120E4
:1030E0001D68FEF7D9F923681D601023C4F88430E9
:1030F000002038BD0120FCE7F8B50446154639B973
:10310000D0F8883043F00103C4F888300120F8BDBE
:10311000D0F88430402BF9D10022FFF7B1FC20B168
:10312000D4F8883043F00203EEE7BFF34F8FA26A72
:10313000931D54F82370531C032B88BFD31E2268A1
:10314000A362063302F5805254F823305360FEF731
:103150009DF906463B68002B01DB0020D7E723687A
:1031600003F580535A69920409D5D4F8882042F0B7
:103170000802C4F888205B69C4F88C30C6E76B1C71
:10318000E8D0FEF783F9801BA84201D8002DE1D1D9
:10319000D4F8883043F00403C4F888304FF040532B
:1031A0003B60B3E72DE9F04F044685B0894649B945
:1031B000D0F8883043F00103C0F88830012005B012
:1031C000BDE8F08FD0F88430402BF7D1D0F85C8088
:1031D00008F11203002750F82350C36E00F180015C
:1031E000C3F1040A3E467C30BB462B68002B02DB51
:1031F000564500D087B1E36E1E44E66616B1204600
:10320000FFF7D3FDC4F85C80002FD7D0E36FC9F877
:1032100000300020E067D2E72B68DB0541BFEB6997
:10322000A367AB6963672B689A0501D4E36F03B3A7
:103230002B6801909B052B682A6848BFC4E918BB1E
:10324000D20544BF2A682267AA682A62C3F30D43E5
:10325000CDE9021348BF0127FDF7BAFF226E039B99
:1032600001322266626EDDE901011A446266C5F828
:1032700020B008F10103032B88BFA8F1030303F179
:103280001202013654F822509846AEE770B5044653
:1032900000681D460369920103F01C0302F4F86202
:1032A000C9021A4389B2114341F001010161FEF7DD
:1032B000EDF80646FEF7EAF8801BB0F5803F08D22D
:1032C0002368186910F00100F4D15B699BB22B6090
:1032D00070BD0120FCE738B504460068056992011D
:1032E00005F01C0502F4F862C9022A4389B21143B1
:1032F00041F003019BB243610161FEF7C7F8054647
:10330000FEF7C4F8401BB0F5803F05D2236818696A
:1033100010F00100F4D138BD0120FCE7002961D094
:1033200003681A68C2F3001281F828201A6802F0B4
:1033300060024A621A68C2F3402282F0010281F8F8
:1033400020201A68C2F30042CA771A68C2F34032DA
:1033500082F001028A771A68C2F300320A771A688B
:1033600002F400628A611A6802F480424A611A68B3
:10337000C2F3805282F001024A741A68C2F3C0524A
:1033800082F001020A741A68C2F3C012CA731A6882
:1033900002F460228A601A68C2F380220A711A68F5
:1033A000C2F340628A739A69C2F3400281F85420E2
:1033B0009A69C2F3C01282F0010281F84C209A6926
:1033C00002F030020A659A69120C8A649A69C2F3A3
:1033D000800281F856209B69C3F3C00381F8553001
:1033E000002070470120704708B539B1D0F884300B
:1033F000102B03D1FFF7FAFB002008BD0120FCE7EA
:1034000038B5036805461C69FFF7A4F80D4B9842D0
:1034100024F01C0404D844F008042B681C6138BD57
:10342000094B984202D244F00C04F6E7074B98424D
:10343000F3D9074B984294BF44F0040444F01004BD
:10344000EBE700BFBF0E160200879303FFE0F50510
:103450007FD1F00830B570B1CC6864B18A6852B1E0
:103460000B6943B10D6849688560C0E90424C160F7
:103470008361002030BD4FF0FF30FBE773B5456836
:10348000002304460193A5B9836803B1984720231C
:1034900023600026636901AA122128469847002864
:1034A0000ADB019B03F01F03AB4207D12560012318
:1034B0006360002002B070BD6FF004060135202D5E
:1034C000E8D123681F2B04D8002EF0D06FF0040041
:1034D000F0E76FF00200EDE737B50025436901958D
:1034E000044601AA006801219847A84203DA6FF058
:1034F000040003B030BD6369206801AA0121984728
:103500000028F4DB019B5B072CD56369206801AAC6
:10351000294698470028EADB019BDD040ED403F41A
:103520000452B2F5045F01D10220E2E7980401D50C
:103530000320DEE7D90513D40520DAE763692068A4
:1035400001AA1F2198470028D1DB019BDA040BD583
:1035500003F01C03182BE7D0082BE9D0142BEBD178
:103560000420C6E70120C4E70620C2E740BA80B2C3
:10357000704730B510F001044FF0000306D09942B7
:103580001DDD10F8012B013962F31F2300220129F0
:1035900010DC02D1017861F3070313449AB202EB05
:1035A000134398B200EB134014B100BAC0F30F40BC
:1035B00080B230BD30F8025B02392A44E7E71A4690
:1035C000EBE7F8B500260546344635B916B124BAFE
:1035D000C4F30F44E04380B2F8BD6F896868394690
:1035E000FFF7C7FF0444A3B203EB1444FB0748BF33
:1035F00024BA2D6844BF86F00106C4F30F44E4E703
:1036000008B500F00BF800F0CBF900F067FA00F015
:1036100047FEBDE8084000F00BBE00000C4B0D4A11
:1036200023F0030313604FF420521A6000221A7132
:10363000094A03F52051116003F500524FF028218B
:10364000C2F80018012182F80418044A1360704778
:10365000FF430020F8430020F4430020F043002003
:103660002DE9F0410446002872D0830703D0BDE85D
:10367000F041FDF759BBDFF8E480D8F80030A0F145
:103680000805AB42F3D8334F396800F10C02914280
:10369000EDD310F8042C002AE9D030F8086CB6F508
:1036A000205FE4D830F8060CB0F5205FDFD8EA1AC6
:1036B00092B2824202D0185A9042D8D133449942F1
:1036C00002D05B889342D2D1234E002304F8043CFD
:1036D0003368AB4288BF3560A9420DD8FDF724FBA3
:1036E00014F8043C0BB1FDF71FFB34F8083CB3F5AC
:1036F000205F01D9FDF718FBD8F8003034F8081C1A
:103700005A18954211D0107978B9386882420CD095
:10371000306882425A5A08BF3560B2F5205F24F8FB
:10372000082C1EBFD218E91A518034F8062C9918BB
:103730008D420DD0087958B93068854208BF316094
:1037400034F8081C9952B1F5205F1CBF5B185A80F1
:10375000BDE8F081F4430020F0430020F84300204E
:103760002DE9F047CC1C24F00304A4B20B2C054631
:1037700004D9B4F5205F02D9002524E00C24A1422D
:10378000FAD8DFF8EC80D8F80030AB4203D8364BDB
:103790001B68AB4201D8FDF7C7FAD8F800A0AA45CC
:1037A00011D8314B1B68AB420DD935F8087CA5F117
:1037B0000806A6EB0A06B6B2A7F108039B1B9BB24C
:1037C000A34203D305D12846BDE8F087FDF7ACFA44
:1037D000D2E70AEB070999F8042002BBB7F5205F8E
:1037E00001D1FDF7A1FA2148D8F800203AF8077076
:1037F00006F108032344046899B24C4512FA83F396
:1038000008BF03600020187157525E8025F8081C1D
:10381000535AB3F5205FD6D01A445180D3E704F150
:10382000140292B29A42CED806F108031C44B7F5AE
:10383000205FA4B201D1FDF777FA0C49D8F8003027
:1038400008681A19904288BF0A600021117135F882
:10385000081C1953568025F8084C1A5BB2F5205FF6
:103860001CBF9B185C80AEE7F4430020F0430020AF
:10387000F84300202DE9F843002858D0C51C25F056
:103880000305ADB20B2D04D9B5F5205F02D9002098
:103890004DE00C25A842FAD8DFF8C090DFF8C080D0
:1038A000D9F80020D8F80060B61AB6B2C5F5205095
:1038B0006FF007078642EAD29419915B2379002BB7
:1038C00047D1BB1B0B44AB4243D305F114029342D7
:1038D0002FD305F108073744BFB2B7F5205F01D1F8
:1038E000FDF722FAD9F80030DA1900211171218888
:1038F000D9535680012227802271DA5BB2F5205F0E
:1039000001D013445F80D8F80030134AA34213D08B
:10391000136808352544AB4201D2FDF705FAA30729
:1039200003D0FDF701FAFDF7FFF904F10800BDE847
:10393000F88301232371E6E71168D9F800001E79A6
:103940000EB18B4202D1C8F80030E1E71B88034476
:10395000F5E70E46AEE700BFF4430020F843002031
:10396000F043002010B504682CB123680360A3075E
:1039700001D0FDF7D9F9204610BD4368816830B504
:103980000022033344880A6023F00303944200DCDE
:1039900030BD0D681D6005880B6001322B44F5E7D2
:1039A00008B50A48FFF7E9FF0948FFF7E6FF0948AD
:1039B000FFF7E3FF0848FFF7E0FF0848FFF7DDFFE8
:1039C000BDE808400648FFF7D8BF00BF806A00087E
:1039D000746A0008686A00085C6A0008506A000897
:1039E000446A000810B5044620B1BDE81040806864
:1039F000FFF7B8BFFDF798F9204610BD052808B5B8
:103A000007D8064B53F820309868BDE80840FFF708
:103A1000A9BFFDF789F9002008BD00BF2C6A000886
:103A200038B50C46054608B121B938BDBDE8384067
:103A3000FDF77AB98B0701D0FDF776F9AB681A6804
:103A400022601C60F1E70000052838B50C4603D958
:103A5000BDE83840FDF768B951B1064B53F8205026
:103A60008B0701D0FDF760F9AB681A6822601C6013
:103A700038BD00BF2C6A00086FF00B00704710B50E
:103A8000044608B9FDF750F994F82D3003F005020B
:103A9000052A09D162683AB11B0705D5211D2046C8
:103AA000BDE8104000F096BF10BD73B504460E4649
:103AB00015460AB9FDF738F9636832689A420BD0A7
:103AC0002B6001A92846019200F0F0FD3368636085
:103AD00001212046FFF7D3FF02B070BD7047000000
:103AE000F7B5144E002914BF0D463546002A14BF01
:103AF00017463746002B18BF1E462B680446B3B93D
:103B000001AA2946FFF7D1FF01233A68A1688A423A
:103B100018BFA2603268E1688A4218BFE26023B928
:103B200001AA29462046FFF7C0FF03B0F0BD0023DD
:103B3000EBE700BF9C6A00082DE9F843099E0446A4
:103B400028B9FDF7F1F800242046BDE8F883002EDF
:103B5000F7D02A4F47610025294FC560C0E90155BC
:103B6000858480F82D50C561089DDFF898C00562F6
:103B70003D7880F830500A9D0561002B08BF6346F0
:103B8000002A08BF6246002908BF6146FFF7A8FF68
:103B90002046B04706460028D5D1DFF86C8094F85F
:103BA0003030D8F80050FF2B08BF84F830604FF059
:103BB000000965B994F83030FE2B1CBF0133DDB22B
:103BC000D8F8003023603D70C8F80040BCE7A5423B
:103BD00001D1FDF7A9F809F10109B9F1FF0F01DDE4
:103BE000FDF7A2F894F8302095F83030934203D1D5
:103BF000013384F83030D2E72D68DAE7793A0008EB
:103C0000C78000209C6A0008CC800020014B18600F
:103C1000704700BFC880002008B9FDF785B890F84C
:103C20002D20D10706D442F0010280F82D20032177
:103C3000FFF725BF704708B9FDF776B890F82D203B
:103C4000D10707D522F00101130780F82D1001D507
:103C500000F028BE704710B5044618B9BDE8104002
:103C6000FDF762B890F82D305A070CD443F00403E6
:103C700080F82D300321FFF702FFE3691BB12046D6
:103C8000BDE81040184710BD08B9FDF74DB890F8D1
:103C90002D20510706D5C36922F0040280F82D209B
:103CA00003B1184770470000034658B1064A106830
:103CB00000B9704790F830200132D2B29A4201D058
:103CC0000068F5E7704700BFCC80002038B520B110
:103CD000B1F5803F04D3012038BDFDF725F8FAE7A0
:103CE000A9B1038913FA81F38CB29BB2A342F2D338
:103CF00090F90C50002D0CDA4268511A00F11002B4
:103D00009142E8D3428941601444448103810020F8
:103D1000E2E7002ADFD04268511AF3E722F04003BD
:103D2000012B70B506460D46144601D0FCF7FCFF8A
:103D30000420FFF763FE40B10023C0E9003643735F
:103D40000123058145810473C38170BD70B50330C3
:103D500020F00304BDF81400049D0E1986424FF0B4
:103D600000000BD805B125441A7302225A730122B0
:103D7000C3E9000519815981DA81184670BD002216
:103D8000FFF7A4BF10B520B1B1F5803F04D30120E7
:103D900010BDFCF7C9FFFAE759B143898AB29342D3
:103DA000F7D39B1A4468438103890C449B1A4460EF
:103DB00003810020ECE70B1E02DA5942FFF7E2BF55
:103DC0000122FFF783BF70B5044620B9FCF7ACFFB2
:103DD0002546284670BD0025A37B0BB9FCF7A4FF40
:103DE000A37B013BDBB2A373002BF2D1637B26687C
:103DF0009B070CD523690BB9FCF796FF2369204676
:103E000098470135EDB2002EE3D03446E4E7237B3A
:103E100003F00F03022B04D121460520FFF714FE07
:103E2000EFE7012B02D121460420F7E71BB920461A
:103E3000FFF716FCE5E7FCF777FFE2E7B2F5C17F95
:103E40002DE9F84307460D4606460FD008D822F064
:103E50004003012B07D1BDE8F8430020FFF75EBF08
:103E6000B2F5207F33D0FCF75FFF0DE00020DFF8D4
:103E7000A4800446074681460520FFF7BFFD38B9F8
:103E800014B12046FFF79FFF00242046BDE8F883C9
:103E9000F31C23F00303C3F500739BB20644AB424B
:103EA00006F1130628BF2B4626F00306076046607E
:103EB00005814381C0F80C803CB1C9F80000EB1AC1
:103EC0009DB20026002DD6D1DFE70446F7E7C31CDC
:103ED000CA1C22F0030223F0030313449BB203F134
:103EE0001000934280B2CFD38242CDD8FFF7C2FCFC
:103EF00004460028C9D0074400231337036027F085
:103F00000307034B476005814581C360BDE700BFE0
:103F1000800001008200010070B50D46044608B91A
:103F2000FCF702FF2389AB422BD9EE1A6389AB421F
:103F300014D3227B12071CD1AB421AD0637B9B07A0
:103F400017D46168091B2944204689B2FFF708FC91
:103F5000044670B9FCF7E8FE6481FFDEEB1A9DB2FF
:103F60002389334423812468002CDFD1FCF7DCFE55
:103F7000DCE720686581258108B1FFF724FF002375
:103F8000236070BD00235A1C08B998B270470068BE
:103F90001346F8E730B1837B0133DBB283730BB98F
:103FA000FCF7C2BE704738B50D46044600B139B9BA
:103FB000BDE83840FCF7B8BE29890B44238114467C
:103FC00022682389002AF7D162899A4205D0FCF73A
:103FD000ABFE23680BB1FCF7A7FE2A892389256075
:103FE0001344238138BD10B50C46FFF7DCFF204693
:103FF000BDE81040FFF7CEBF2DE9F0410C46054665
:1040000020B119B102890B899A4205D2FCF78CFEC6
:104010006FF00F00BDE8F08100263746B5F80A8042
:10402000638968686168A8EB07089B1B984528BFEF
:10403000984631443844424601F033FE6B89474488
:10404000BB42464401D2FCF76FFE6389B34201D202
:10405000FCF76AFE6389B3426B899CBF2468002623
:10406000BB4206D12D681DB9002CCFD12046D1E727
:10407000002754B1628923899A4206D1236823B16B
:10408000FCF752FE6FF00500C4E76A892B899A425B
:1040900002D12B68002BF3D1002CBFD1E6E72DE92C
:1040A000F0410F469046054628B9FCF73DFE002634
:1040B0003046BDE8F0810029F7D00026B8F1000FA6
:1040C00007D1F5E76C893BB1A34205D31B1B2D68D3
:1040D0009BB2002DF6D1EBE7E41AA4B2444569681F
:1040E00028BF444622461944B8192644A8EB0404C4
:1040F00001F0D7FDB6B22D681FFA84F80023DDE782
:104100002DE9F84388461546044628B9FCF70CFE0D
:104110006FF00F00BDE8F8830029F7D003899342C0
:104120001CD2FCF701FE4FF0FF30F3E70CB9FCF7AF
:10413000FBFD668960684E4528BF4E4608EB0701C7
:10414000324601F0AEFD2468A9EB06093744B9F107
:10415000000FEBD1AF4204D10020DBE791460027EE
:10416000F5E7FCF7E1FDF7E738B515460A4629897A
:10417000FFF764FE044628B12946FFF73DFF08B16A
:10418000FCF7D2FD204638BD70B5044603200E462C
:104190001546FFF733FC18B9BDE87040FCF7C4BD05
:1041A0000C4A4460002303601368C0E902650BB940
:1041B000106070BD5968611A002901DA0360F7E7E1
:1041C00019461B681BB15A68A21A002AF8DA036064
:1041D0000860EEE7D480002070B543680446984735
:1041E000FCF7B0FE074B26680749054618683044BF
:1041F000431B002B2246B8BF7019BDE87040FFF783
:10420000C3BF00BFD0800020D9410008B0F1804F6B
:1042100070B504460D46164601D3FCF785FDFCF744
:1042200091FE324629462044BDE87040FFF7ACBFFE
:1042300008B5084A08494FF47A70FFF7E7FF054BC5
:10424000054903F108024FF47A70BDE80840FFF712
:10425000DDBF00BF8C6A0008D94100082DE9F0419C
:10426000FCF770FE0C4EDFF834800446316889B1EB
:104270004B68E21A002A0DDBD1E902570A68326066
:104280000320C8F80030FFF7DFFB002DEED03846E2
:10429000A847EBE7BDE8F081D4800020D080002063
:1042A00008B501F02DFB034B6FEA80406FEA9040A8
:1042B000188008BD200000202DE9F04F884685B009
:1042C000054608B9FCF730FDB8F1000F01D1FCF745
:1042D0002BFD6B89072B05D8284605B0BDE8F04FAC
:1042E000FFF771BD4D4F6C6839687869DFF834A10C
:1042F00000F03DFF83462088FFF738F90290608880
:10430000FFF734F90026DAF80040B1463CB9002E38
:1043100044D1D8F804207B699A423FD0DCE7638A15
:10432000834248D1B8F1000F03D10390FCF7FCFCA5
:104330000398227A32B17B6893F830300133DBB2D4
:104340009A4238D12268BBF1000F2FD03AB1796977
:104350004B1C04D0D8F80830514019422BD1237C93
:104360005B070ED456B3BBF1000F0AD07B69013353
:1043700007D1D8F8041033688B4202D0914208BFAD
:104380002646A38A029A934215D1626812B13B690C
:104390009A4210D1B9F1000F12D1264608212846C1
:1043A000FFF7F0FCA8B1FCF7BFFC95E7002AD6D0D8
:1043B0007B699342D3D0A146E468A7E72646E0E7AD
:1043C000E368C9F80C30DAF80030E360CAF800405E
:1043D000E3E76EB1B469002C3FF47EAF029B00931B
:1043E000F0690F4B2A463146A04705B0BDE8F08F73
:1043F000BBF1000F7FF470AF7B6903F0F003E02B9B
:104400003FF46AAFB989083109B22846FFF7D3FCF7
:104410000321284600F032FD5EE700BFD8430020AC
:10442000E8430020D88000202C4B2DE9F0410029E2
:1044300014BF0F461F4628B9FCF776FC6FF00F003B
:10444000BDE8F081264E3468214699B9002A3FD153
:10445000DFF890C0BCF800304FF480424FF6FF7E8A
:1044600073451ABF01339BB24FF4404325463DB913
:104470001A460DE0814201D0C968E6E70121E5E76F
:10448000B5F81280984509D1013A92B2002AE7D1D5
:10449000ACF80030B2B96FF00700D1E7ED68E6E79D
:1044A00083420CD05D8A954209D11D68D7F800C0BF
:1044B0006545F0D0BCF1000FEDD0002DEBD0DB68EE
:1044C000002BEDD13B680360428219B10020B7E7B1
:1044D0002346F5E7C4603060F8E700BF9C6A000837
:1044E000D8800020200000202DE9F04F85B0DDE9C4
:1044F0000EBA0E4690469946074638B9FCF714FCAA
:104500006FF00F05284605B0BDE8F08F0029F5D003
:10451000002AF3D0BAF1000FF0D0BBF1000FEDD0BC
:10452000428A3AB132894FF6F7739A4209D94FF06D
:10453000FF35E7E70146FFF777FF05460028F1D092
:10454000E0E708213046FFF71AFC002835D04FF489
:10455000207208212220FFF771FC04460028E6D0D3
:10456000338913B13146FFF73EFD6389072B01D82C
:10457000FCF7DAFB788A6568FEF7F8FF2880484682
:10458000FEF7F4FF00236880AB71EB712089FEF722
:10459000EDFF1123A880CDF808B00193BB7A0093FA
:1045A000FB7A42465146204600F066FDB44205467D
:1045B000A8D02046FFF707FCA4E73446D5E773B53B
:1045C000069C28B9FCF7B0FB6FF00F0002B070BD7D
:1045D0000029F7D0002AF5D0002CF3D005681DB1D2
:1045E00005F0F006E02E05D1251DCDE90045FFF7C9
:1045F0007BFFEBE76668B54201D10546F5E76FF052
:104600000300E3E7F7B50E4615461F46044628B9F2
:10461000FCF78AFB6FF00F0003B0F0BD0029F7D064
:10462000002AF5D0007A50B1FFF73EFB58B1009058
:104630003B462A4631462046FFF7C1FFECE71046CD
:1046400000F03EFCF2E76FF00300E5E708B9FCF785
:104650006BBBC0E906127047014608B9FCF764BBA2
:10466000094A1368834204D1C36813600020FFF72E
:10467000EBB9002BFAD01A46DB68002BF6D08B4240
:10468000F9D1CB68D360F1E7D880002010B50020C5
:10469000FFF7B4F9044628B12022002101F086FA80
:1046A000FF23E372204610BDFFF7F0BF10B538B10D
:1046B00003682BB121B10B6813B1064B1B6803B91A
:1046C00010BD1C680268944204BF0A681A60DB6867
:1046D000F5E700BFD880002070B51826074C464388
:1046E0000546A05918B1FFF76EFB0023A35118230C
:1046F00003FB05440023237570BD00BFE08000204C
:104700002DE9F74F00234FF00A0C0191394900932E
:10471000054616469E469B466446E146E0460A2C00
:1047200091F814A018B219D1BAF1000F55D045B1C3
:104730002F684A68974204D1002E41D08F68B74253
:104740003ED0BAF1010F4F8A42D10A68002A3AD00E
:10475000009A974205D30097844602E0BAF1000F11
:10476000E5D101330A2B01F11801D8D1019B012BAE
:104770003DD10A2C0FD1B9F10A0F30D018231D4AB0
:1047800003FB09F3D3580BB1FCF7CEFAC8464046F9
:10479000FFF7A2FF4446174F182303FB04731B7D4A
:1047A0000BB1FCF7C1FA25B1182303FB04732A6887
:1047B0005A60182303FB047700237B82BE602046E7
:1047C00003B0BDE8F08F5F45CBD3BB468046C8E75A
:1047D0007745C6D3BE468146C3E70446C1E7B8F174
:1047E0000A0FD4D1BCF10A0F01D0E046CFE74FF059
:1047F000FF30E5E7E08000202DE9F347DDF82CA04D
:10480000884691461E46074608B9FCF78DFA4FF4D4
:1048100020721C210E20FFF711FB054600283DD019
:1048200043891B2B01D8FCF77FFABDF834006C6874
:10483000FEF79CFEE08097F82C30062B01D0FCF7A9
:1048400073FA3368A360B388A381DAF80030C4F840
:104850001230BAF80430E3820A9B1B68C4F80E30A9
:104860000C9B1B68A361012363700823A3700623BC
:10487000237104230026637140F606032670E67058
:104880004246009329464B46384601F00DF828462B
:10489000FFF799FA304602B0BDE8F0874FF0FF30DD
:1048A000F9E7000070B5084D064600242B7D2BB1BA
:1048B000AB68B34202D12046FFF70EFF01340A2C49
:1048C00005F11805F2D170BDE08000202DE9F04F10
:1048D000804687B00C4621B907B0BDE8F04FFCF721
:1048E00023BA46683388B3F5807F08D13379062B25
:1048F00005D17379042B02D17388082B05D040466B
:1049000007B0BDE8F04FFFF75EBA4D68D6F80E70FD
:10491000059706F1080915B94FF0020B04E0B369D9
:104920009D4253D10125AB4694F82C30062B01D083
:10493000FCF7FAF9AFB32146384600F018FC82467E
:1049400078BB07F0F007E02F2BD02246594605A888
:10495000FFF7D6FE431C24D01D4A18234343D11829
:10496000022008758C6003F10C07D9F80000D051C3
:1049700007EB020CB9F80400ACF80400D758A1F812
:1049800012A077B142F803A04FF40063009304F142
:1049900026024B463946204600F086FF3846FFF790
:1049A00012FAF388B3F5807FA9D1002DA7D0022297
:1049B000039205AACDE9019204F12603221D00927B
:1049C00019464A462046FFF717FF98E70025A3E758
:1049D000E08000201FB502460124CDE9021400F159
:1049E000260305490191043200921946034AFFF754
:1049F00003FF04B010BD00BFA06A0008A66A00084B
:104A000038B5134C0025227D6AB1638A01339BB20D
:104A1000B3F5967F638203D2012A0AD1042B0DD904
:104A20002846FFF759FE01350A2D04F11804EAD192
:104A300038BD032A07D104232375F4E7A068211D9C
:104A4000FFF7C8FFEFE7042AEDD10223F4E700BF28
:104A5000E08000202DE9F043DFF88C90182707FB59
:104A6000029385B01B7D012B05460E46144601D8E6
:104A7000FCF75AF907FB04F209EB020702F10C04F8
:104A80003B7D022B4C4405F126080CD17B8AB3F503
:104A90008E7F14D9043209EB02012846FFF79AFFF2
:104AA00008B903233B754FF4006300934246234645
:104AB0003146284600F0F8FE05B0BDE8F083B3F5B6
:104AC000877FF0D3012303930432064B01934A44BA
:104AD0002B1D029200932246434641462846FFF78B
:104AE0008BFEDDE7A06A0008E08000202DE9F3419D
:104AF0000F46064601463868144600F038FB002889
:104B00004DD13B6803F0F002E02A48D0002B46D09C
:104B1000324601213846FFF7F3FD421C054604D119
:104B20004FF0FF3002B0BDE8F081DFF8B480182309
:104B300003FB00831A7D002A34D101221A759E607E
:104B400039463046FFF746FF002CEBD018236B4365
:104B500008EB0302127D012A0DD9204A0C3315708F
:104B60004FF400620092434406F12602214630468B
:104B700000F09AFED6E7D5D12646728933899A424B
:104B800003D133680BB1FCF7CFF8337B5B060ED44F
:104B90003668002EF1D12046FFF7FCF910E06FF0E7
:104BA0000F00BFE7002CCBD04FF0FF30CEE72246FE
:104BB0004FF420710E20FFF7D7FA04460028AFD03B
:104BC000182606FB05F358F8030008B1FFF7FBF8B9
:104BD0006E43002048F80640A4E700BFDC800020B8
:104BE000E0800020F0B50E4685B01546044608B9B1
:104BF000FCF79AF80EB9FCF797F80DB9FCF794F8A2
:104C00002868214600F0B3FA002862D12B6803F02F
:104C1000F002E02A1CD10123ADF808305E238DF8A4
:104C20000A306B7803F07F038DF80B30AB788DF88A
:104C30000C30EB788DF80D3002AB4FF4006200922F
:104C4000314604F12602204600F02EFE05B0F0BDEC
:104C50006268A1685A400A4209D09BB24FF6A96225
:104C6000934204D0E368002B35D004F10C051B49B6
:104C70001B4B0A78182000FB0233187D012806D947
:104C80009868A04203D128685B6898420DD0144B05
:104C90000022187D01280FD99868A0420CD12F68F6
:104CA0005868874208D1D2B20A703146204605B012
:104CB000BDE8F040FFF7CEBE01320A2A03F1180327
:104CC000E7D132462946204605B0BDE8F040FFF75F
:104CD0000DBF044BB1E76FF00300B7E7DC800020A5
:104CE000E0800020A66A0008F0B5044687B00F46B1
:104CF000164624214FF420722220FFF79FF8054624
:104D000068B34389232B01D8FCF70EF860686C6800
:104D1000002323716371A371E371277066700346EA
:104D200004F1080200F11C0153F8046B42F8046B13
:104D30008B42F9D1C368059305A800F0C1F858B1BA
:104D400000210123A170E17005AACDE900130290B2
:104D5000FF23284600F0FAF92846FFF734F807B099
:104D6000F0BD00002DE9F043424FD7F8089099F8C4
:104D7000005005F00F05AD00132D85B004468846A0
:104D800016D94389032B13D943681B78082B0FD1FD
:104D9000786900F0F003E02B0AD0396800F0E7F9F9
:104DA00030B92389072B03D92046FEF70AFC28B126
:104DB000204605B0BDE8F043FFF705B805F10E0643
:104DC00031462046FEF7DBFF00284AD02389E91848
:104DD00089B28B42ECD84FF420720E20FFF72EF8E8
:104DE00006460028E4D0428905F108039A4203D21E
:104DF0003046FEF7E8FFDBE7494640682A4600F008
:104E000050FF29463046FEF7BDFF10B1FBF78CFF7F
:104E1000EEE721463046FFF7EFF80028E8D12046BC
:104E2000FEF7D1FF3446294620466668FEF7A7FF05
:104E300002460028BCD160687B69C3603B6903619E
:104E40000121FF233270B270F27003728272C2725B
:104E5000CDE90021CDF808800749204600F076F919
:104E6000A6E731462046FEF78DFF0028DBD0FBF792
:104E70005BFF9DE7D8430020EC4300200A46032156
:104E8000FFF732BF0A460B21FFF72EBF08B590F897
:104E90002D30014613F001000AD04B684BB1074A90
:104EA0005069834207D000F062F9003818BF012032
:104EB00008BD1846FCE70120FAE700BFD8430020F0
:104EC00030B5144B0246186878B9134B1B685BB1B8
:104ED00093F82D1001F00501052905D1596819B184
:104EE00012787F2A18BF184630BD90F82D10CD07D4
:104EF0000DD54C070BD543684BB1146885686340EA
:104F00002B42F1D08B0702D4C3689C42ECD00068DE
:104F1000DAE700BFCC800020C88000202DE9F843EC
:104F2000D0F8049099F800804FEA1813042B044637
:104F30000E4605D02046FEF746FF0020BDE8F88368
:104F4000B9F80200FEF712FB238908F00F0883422C
:104F50004FEA8808054603D901462046FEF7DCFFE4
:104F600063894345E6D32389AB42E3D3B8F1130FFA
:104F7000E0D9D9F810303E4D6B6103F0F003D9F859
:104F80000C202A61E02B41D196F82D30DB0748D563
:104F90007368002B45D037462869314600F0E7F8A2
:104FA0000028C7D12B6903F0F003E02BC2D0002FFB
:104FB000C0D0B9F8063023F0C0033BB1204600F062
:104FC000C1F904460028B8D0D0F80490C5F808907C
:104FD000C5E9007699F8003003F00F039B004146C5
:104FE0002046AB81FEF7CEFE99F80930012B24D084
:104FF000112B27D131462046FFF75EF90023C5E982
:105000000033C5E90433AB60AB8196E73046FFF768
:105010003DFF0028BFD12B7D7F2B02D0154B1F6891
:105020000FB90027B8E7B74201D13F68F8E7384623
:10503000FFF72CFF0028F8D0AEE731462046FFF7F7
:1050400091FEDBE76869394600F091F860B96B6959
:1050500003F0F003E02B07D041462046FEF7ABFEFD
:1050600002212046FFF70AFF2046FEF7ACFEC5E707
:10507000D8430020CC8000202DE9F3479846837B5D
:105080000C9F012B04468946164601D0FBF74CFEC7
:10509000002E49D014212046FEF771FE20B16FF09A
:1050A000010002B0BDE8F08763896568132B01D861
:1050B000FBF73AFE9DF82C3085F808806B72336858
:1050C0002B6145232B709DF828306B702089DFF809
:1050D00078A0FEF74BFA4FF00008688085F806804C
:1050E000BAF8000085F80780FEF740FABAF80030F9
:1050F000A8800133AAF80030B9F1000F11D1114B8B
:105100001B68EB6085F80A8085F80B80BB8C9BB12F
:1051100022899A4210D932463946204600F0A4FA34
:10512000BFE7D9F80030ECE76389132BB7D9636880
:105130001B69019301AEE9E77B6932462146384697
:105140009847AEE79C6A0008D0810020F0B4069C26
:105150009DF810509DF814601AB109B10F6807B995
:10516000211DCDE905640495F0BCFFF785BF431E02
:105170000333024612D891F82D3013F0020010D0FC
:105180004B6893420CD0896853400B4208D1CB4303
:1051900022EA0102D31A5842584170470120704751
:1051A0000020704738B50A4B1A68824204460D4603
:1051B00007D102681A6021460120BDE83840FEF799
:1051C00043BC09B9FBF7B0FD23682B60F3E700BFD0
:1051D000D481002081422DE9F04104460E4607D1DA
:1051E000FBF7A2FD3368A34204D0FBF79DFD01E06D
:1051F0000029F7D167687B689A8842BB1A686260A9
:1052000004F11C0104F1080252F8040B43F8040BEA
:105210008A42F9D101213846FFF734FE3846FEF7BD
:10522000B1FE05463846FEF7CEFD67688FB92046C9
:10523000114C3146FFF7B6FF2388AB4201D2FBF792
:1052400073FD23885B1B23802846BDE8F081002581
:10525000EBE77B683846D3F80080FEF793FE054401
:10526000B5F5803F01DBFBF75FFD3846FEF7ABFD90
:10527000ADB24746DAE700BFD28100202DE9F04108
:10528000DFF8708005460F460026D8F8003073B36B
:1052900000242146A4462046D5F80CE05A69724500
:1052A00009D1D5F810E09A69724504D1B3F80CE041
:1052B000AA88964508D00134B0B1C27F93F81FE0A8
:1052C00096459CBF614618461A689C4652B910B173
:1052D000FFF780FF0644BE4201DA012CD5DC3046E0
:1052E000BDE8F0811346D7E761461846ECE71C4657
:1052F000F1E700BFD481002010B5044608B9FBF7E0
:1053000013FD606908B1FEF75EFD21460220BDE88D
:105310001040FEF799BB000038B5094B186800240F
:1053200000B938BDC37F056823B1013BC37704468C
:105330002846F5E72146FFF74DFF2046F7E700BF77
:10534000D48100202DE9F74F45682B7803F00F0337
:10535000052B814640F09B80E888FEF707F98046E0
:105360006888FEF703F92B7803F00F03B0EB830F87
:105370004FEA8302C0F08B80831A9BB2AF4C01933B
:105380004846FEF7FFFD238803440A2B824675DC5E
:10539000AB4E3468002C7FD10120FEF72FFB044672
:1053A00058B951462846FFF769FF82456FDC012056
:1053B000FEF724FB0446002869D01C220021201D92
:1053C00000F0F4FB0F23E3773368236034602B464F
:1053D00004F1080205F1140153F8040B42F8040B20
:1053E0008B42F9D1B5F806B0C8F30C081BF0200BBE
:1053F0004FEAC8080AD1019B43449BB2984500F28A
:1054000021814FF6EB72934200F21C81D9F80450CF
:105410006888FEF7ABF82B7803F00F03B0EB830F2F
:105420004FEA8302C0F00E81801A87B2E888FEF747
:105430009DF8C0F30C03DB00F818D9F804601FFADC
:1054400080FC0025634535707570B570F570B380CC
:10545000F08000F2F780D4F804E001277246002AB9
:1054600042D1002D00F0CA80EA889A4201D9FBF7A8
:105470005BFCC5F80090EA88B38845E00146284601
:10548000FFF7FCFE18B1238853440A2B80DD484601
:10549000FEF799FC00279AE0EB6862699A4207D10F
:1054A0002B69A2699A4203D1A289AB889A4201D0A2
:1054B00024686FE7E888FEF759F8C0F30C0000286D
:1054C00090D1E089FEF752F8C0F30C00002889D093
:1054D0002B4604F1080205F1140153F8040B42F8BD
:1054E000040B8B42F9D17DE751688888834277D2DB
:1054F0003260002D6FD0EA889342C0F0A3808445CB
:1055000000F2A080C5F800909A4214BF002707F06F
:105510000107BBF1000F03D0A37F13F001037BD081
:105520008FB16368002B77D059688B88002B73D1BB
:105530003368002B68D1B14201D1FBF7F5FB33682A
:105540000BB1FBF7F1FB3D4E338853443380BBF185
:10555000000F07D1019B9844A37FA4F81C8043F05F
:105560000103A377002F95D06368A08B5F68143088
:105570003D6880B204F108033A4604F11C0153F877
:1055800004CB42F804CB8B42F9D1FDF7EFFF0023A7
:105590007880BB71FB71BB72FB726768002D3DD1D7
:1055A000274B1B68A34202D01D46002B43D1204647
:1055B0002946FFF7F7FD3846FEF7E4FC33888342BF
:1055C000044601D2FBF7B0FB33881B1B33803846FF
:1055D00003B0BDE8F08F844534D8C4F8049098E750
:1055E00030D0CA889A422DD82DB1EA88824214BFA1
:1055F000002707F001070A680D4630E7BEF1000FEB
:10560000EBD0FBF791FBE8E75A68F0889388984263
:1056100002D1136816468CE7002794E7D5F804807A
:1056200014212846FEF7AEFB29463846FEF7BBFCA0
:10563000D8F80050B2E72B68B4E700BFD281002051
:10564000D48100206368002B7FF421AF054B1B68D9
:10565000A34201D0FBF768FB00212046FFF7A2FD23
:1056600015E700BFD48100202DE9F04F8B8C8DB061
:1056700005460992B3F1140248BFA3F10D02C2F32B
:10568000CF030693436803931B7803F00F03052BA6
:1056900089464FEA830704D14389132B06D8FBF7C9
:1056A00043FB6FF005000DB0BDE8F08F039BD88879
:1056B000FDF75CFFC0F30C03059300F4005308935F
:1056C000069B2C89DB00143C9BB2A4B207930026F6
:1056D0000CB92046E7E7079BA34228BF23464FF4B7
:1056E000207214210E200493FEF7A8FB804610B907
:1056F0004FF0FF30D7E74389132B01D8FBF714FB9A
:10570000039BD8F804201946143153F8040B42F8CF
:10571000040B8B42F9D1049BD8F804B0002B5FD165
:10572000059BC3F30C00B9F82430133B3744A34264
:10573000BFB201DD089B0BB140F40050FDF716FF2E
:10574000049BABF8060003F1140080B2FDF70EFFD6
:105750000023099AABF802008BF80A308BF80B3063
:105760004146D9F81430484698474046FEF72BFB8F
:10577000049BE31A9CB2DDE9053213449BB2059306
:10578000A6E70220FEF73AF9034618B94046FEF7AD
:105790001AFBADE701966A680A903A4400923146D6
:1057A00041220020FEF7D2FA0A9B20B919460220B6
:1057B000FEF74AF9EAE7CDE90A032846FEF7EAFBD5
:1057C0000B9B104A0A995D61AAEB060A1A614046D2
:1057D0001FFA8AFAFEF7E7FBBAF1000F0ED19FE736
:1057E000DDF810A06B89DE1BBB42B6B201D2FBF71D
:1057F0009BFA564528BF5646002EC2D12D68002779
:10580000F0E700BFF952000843890E2B70B504463B
:105810000D461AD9C37B1BB991F830300133C373DD
:10582000606803788689D9070AD5012B11D143789E
:1058300033B983785E2B03D1637B43F0100363732A
:10584000082E10D0B6F5C16F1DD02046FEF7BBFA6A
:1058500017E01449062200F099F90028F0D1637B83
:1058600043F00803EBE795F82D301A07EDD50E212C
:105870002046FEF787FA0028E7D129462046FFF7A1
:105880004DFB002070BD95F82D301B07DDD50E2196
:105890002046FEF777FA0028D7D129462046FFF7A1
:1058A00015F8EEE7A66A00082DE9F0410446BDF8B8
:1058B00018000D4616461F46FDF758FE0E2180467D
:1058C0002846FEF75CFAB8B96968A1F80C803B6815
:1058D0000B60BB888B803368C1F80630B3884B817E
:1058E00094F82C30062B01D0FBF71EFAA369294649
:1058F0002046BDE8F04118476FF00100BDE8F08197
:10590000164B10B51C68226BB2B9182000F040FA93
:105910000246206320B9124B1248522100F0D0F900
:105920001149124BC0E90013114B83600B23838193
:1059300000210120C2E9040113690E4854690E498F
:10594000584301FB0400A3FB0131013340EB01008C
:10595000C2E9043020F0004010BD00BF300000203C
:10596000276900083E6900080E33CDAB34126DE69E
:10597000ECDE05002DF451582D7F954C002310B519
:105980000446C0E90033C0E9043383608181436683
:10599000C2818361194608225C3000F007F90D4B83
:1059A00063620D4BA3620D4BE3620D4B23630D4B02
:1059B00024629C4206D003F16802944202D0D033A4
:1059C0009C4205D104F15800BDE8104000F066B9D2
:1059D00010BD00BF055B0008275B00085F5B000887
:1059E000855B0008D8810020024A0349034800F083
:1059F0006BB800BF240000200160000834000020C4
:105A000041680C4B994210B5044601D000F0F8FAF9
:105A1000A168094B994202D0204600F0F1FAE168F2
:105A2000064B994204D02046BDE8104000F0E8BA89
:105A300010BD00BFD881002040820020A882002035
:105A40000C4B0D4A0D4810B504211A600022FFF7D7
:105A500095FF0A4B01221C46092103F16800FFF75C
:105A60008DFF04F1D0000222BDE810401221FFF7A3
:105A700085BF00BF10830020E9590008D8810020AD
:105A8000014800F00CB900BF19830020014800F064
:105A900007B900BF1983002010B50446FFF7F0FFD7
:105AA000236A1BB1BDE81040FFF7F0BF044B23622F
:105AB000044B1B68002BF5D1FFF7C2FFF2E700BFD4
:105AC000015A0008108300202DE9F8430746884654
:105AD00014460026D4E90195B9F1010905D52468D9
