:020000040800F2
:1000000000000220F5040008A10B0008A30B000863
:10001000A50B0008A70B0008A90B000800000000B2
:10002000000000000000000000000000AB0B000812
:10003000AD0B000800000000AF0B0008B10B00087A
:100040004505000845050008450500084505000868
:100050004505000845050008450500084505000858
:100060004505000845050008450500084505000848
:100070004505000845050008450500084505000838
:100080004505000845050008450500084505000828
:10009000C10B000845050008D90B000845050008FC
:1000A0004505000845050008450500084505000808
:1000B00045050008450500084505000845050008F8
:1000C00045050008450500084505000845050008E8
:1000D00045050008450500084505000845050008D8
:1000E00045050008450500084505000845050008C8
:1000F00045050008450500084505000845050008B8
:1001000045050008450500084505000845050008A7
:100110004505000845050008450500084505000897
:1001200045050008E10B00084505000845050008E5
:100130004505000845050008450500084505000877
:10014000CD0B000845050008DD0B0008450500083B
:10015000450500084505000845050008ED0B0008A9
:100160004505000845050008450500084505000847
:100170004505000845050008450500080000000089
:080180004505000845050008D3
:1001880010B5054C237833B9044B13B10448AFF3C9
:1001980000800123237010BD0C0000200000000027
:1001A800782C000808B5034B1BB103490348AFF38B
:1001B800008008BD0000000010000020782C000816
:1001C80053B94AB9002908BF00281CBF4FF0FF31B6
:1001D8004FF0FF3000F088B9ADF1080C6DE904CE9E
:1001E80000F006F8DDF804E0DDE9022304B070470A
:1001F8002DE9F047089D0F4604468C46002B48D150
:100208008A42164661D9B2FA82F34BB1C3F1200291
:1002180001FA03FC20FA02F29E4042EA0C0C9C40D0
:100228004FEA164EB7B2BCFBFEF1220C0EFB11CC06
:1002380042EA0C4201FB07F0904209D9B21801F1D9
:10024800FF3C80F0EE80904240F2EB80023932446D
:10025800121AA4B2B2FBFEF00EFB102244EA0244CA
:1002680000FB07F7A74209D9341900F1FF3280F0E3
:10027800DA80A74240F2D7803444023840EA01408D
:10028800E41B00211DB1DC400023C5E90043BDE8A3
:10029800F0878B4206D90DB1C5E900010021084657
:1002A800BDE8F087B3FA83F1002948D1BB4202D3F5
:1002B800824200F20781841A67EB03020120944608
:1002C800002DE4D0C5E9004CE1E7002A00F0928057
:1002D800B2FA82F3002B40F0A8808A1A4FEA164E31
:1002E8001FFA86FC0121200CB2FBFEF70EFB172239
:1002F80040EA02420CFB07F0904207D9B21807F116
:10030800FF3802D2904200F2E2804746121AA4B2A5
:10031800B2FBFEF00EFB102244EA02440CFB00FC88
:10032800A44507D9341900F1FF3202D2A44500F2DE
:10033800CB801046A4EB0C0440EA0740A2E7C1F1C9
:1003480020068B4022FA06FC4CEA030C07FA01F45B
:1003580020FA06F3F7404FEA1C49234300FA01F854
:100368001FFA8CFEB7FBF9F01C0C09FB107744EA66
:10037800074400FB0EF7A74202FA01F20AD91CEB68
:10038800040400F1FF3A80F09B80A74240F2988075
:1003980002386444E41B9FB2B4FBF9F309FB13442D
:1003A80047EA044403FB0EFEA64509D91CEB0404E6
:1003B80003F1FF3780F08280A6457FD9023B644471
:1003C80043EA0040A4EB0E04A0FB02E7BC427346DC
:1003D800B94663D360D05DB1B8EB030264EB09049E
:1003E80004FA06F622FA01F31E43CC40C5E900647C
:1003F80000214CE76208480842EAC1710B0C43EA45
:1004080000438AB242EA0342B3FBF6F1E407B4467A
:100418003746B6461F23B0FBF6F0D21B41EA00412F
:1004280061E7614614E7104628E7C3F1200120FA86
:1004380001F29E4027FA01F19F403A434FEA164ED7
:100448001FFA86FCB1FBFEF70EFB1710110C41EAF0
:10045800004107FB0CF8884504FA03F43AD97118EF
:1004680007F1FF3001D288451FD8A1EB0801B1FB85
:10047800FEF808FB0CF70EFB181192B242EA014293
:10048800BA422FD2B21808F1FF31C6D2BA42C4D24A
:10049800A8F102013244C0E7F0459CD2BEEB02034A
:1004A80067EB0C070138B94695E7A6EB0808414405
:1004B800B81EB1FBFEF808FB0CF7DCE73B467FE70C
:1004C800504667E70846FBE63444023832E7023F05
:1004D80032441BE7A1EB08013846B1FBFEF808FBE4
:1004E8000CF7C8E7414698E7704700BFDFF834D0FB
:1004F80000F07EFB0C480D490D4A002302E0D45859
:10050800C4500433C4188C42F9D30A4A0A4C002355
:1005180001E013600432A242FBD302F085FB00F035
:10052800F3FC704700000220000000200C000020AF
:10053800542D00080C000020CC010020FEE700002C
:1005480070B58AB004460E4628220021684602F09B
:1005580063FB00250323C4E901354FF400224FF45F
:100568004013C4E904234FF00123A3614FF48073BF
:100578002660E560A383204601F008F8C8B90E4B51
:1005880004909E4214BF0E262E460123CDE9056035
:10059800CDE90000CDE902000793089369460E23D0
:1005A8002046099301F06EF8B0FA80F040090AB0CD
:1005B80070BD2846FBE700BF0064004070B588B0F6
:1005C80006461422002103A802F026FB0025474B0B
:1005D80000951A6B464842F002021A631A6B02F041
:1005E80002020092009A01951A6B42F010021A63F7
:1005F8001A6B02F010020192019A02951A6B42F0EE
:1006080040021A631B6B03F0400302932A4604213D
:10061800029B01F0EDFD36480122182101F0E8FDAA
:10062800344801224FF4007101F0E2FD2A463248B5
:10063800012101F0DDFD01241C232D4803A9CDE98A
:100648000334CDE9055501F0FBFC4FF4007329484C
:10065800039303A901F0F4FC02232748039403A998
:10066800069301F0EDFCF20704D524492448FFF76E
:1006780067FF0446B30706D522492348FFF760FF02
:1006880000EA0403DCB2750715D52049204B0B603E
:100698004FF4E1200023C1E901030C220846C1E917
:1006A8000333C1E90523CB6102F0D2F8002814BF57
:1006B800002404F00104310715D51649164B0B60C8
:1006C8004FF4E1220023C1E9012308460822C1E9C9
:1006D8000333C1E90523CB6102F0BAF8002814BF3F
:1006E800002404F00104204608B070BD0038024020
:1006F800001002400018024000040240006400405C
:1007080044010020006800401C010020D4000020A3
:10071800001401408C00002000480040C20738B592
:1007280005461FD5114801F033F8C8B90F4848F2FB
:10073800024101F042F9B0FA80F46409AB070DD523
:100748000B4801F025F878B9094848F2024101F050
:1007580034F9002814BF002404F00104204638BDF1
:100768000024EBE70124E9E70024F7E7440100202F
:100778001C01002082B00D4B002100915A6C42F4FC
:1007880080425A645A6C02F480420092009A0191A5
:100798001A6C42F080521A641B6C03F08053019368
:1007A800019B032002B001F03DBA00BF00380240AF
:1007B8000F2801D8FFF702BF002070470F2801D883
:1007C800FFF7ACBF002070470A4638B1012807D1AF
:1007D8001021054882F0010201F00ABD0821F8E75E
:1007E80002484FF40071F5E700100240001802407B
:1007F80028B1012805D11021044801F0FEBC0821C8
:10080800FAE703484FF40071F7E700BF0010024011
:1008180000180240F0B589B00C460646174600217C
:10082800182202A802F0F8F914B9002009B0F0BDA6
:100838002279082AF9D8731E012BF6D8164B174DC2
:100848006179012E08BF1D462368B9B104210491BE
:100858000393A3795B00CDE9053200F08BFE0646D1
:10086800284601F00BF860B101ABE21D02A9284649
:1008780000F0B9FFB0FA80F04009D7E702930B46C1
:10088800E6E700F077FE801BB842CED2284601F09A
:10089800B4F90528E4D1C8E7440100201C01002070
:1008A80010B58AB00223069303210923CDE9081362
:1008B800354A036800249342059407942BD1334B9F
:1008C80000941A6C324842F000721A641A6C02F0F2
:1008D80000720092009A01941A6B42F008021A639F
:1008E8001B6B059103F00803019305A9019B01F017
:1008F800A7FB22460521142001F0A6F9142001F0D7
:10090800D5F916202246052101F09EF9162001F09E
:10091800CDF90AB010BD1F4A9342FAD11B4B02947D
:100928001A6C1D4842F000721A641A6C02F00072C8
:100938000292029A03941A6C42F080621A641A6C4A
:1009480002F080620392039A04941A6B42F0020246
:100958001A631B6B03F002030493049B05A94FF46D
:100968004053059301F06CFB22460521402001F01D
:100978006BF9402001F09AF942202246052101F046
:1009880063F94220C3E700BF00640040003802401A
:10099800000C0240006800400004024070B51422B8
:1009A8008AB0064600210DEB020002F035F93368E3
:1009B800424A934224D1424B4248002100911A6C8A
:1009C80042F480221A641A6C02F480220092009A7F
:1009D80001911A6B42F002021A631B6B03F00203C7
:1009E8000193019B4FF4406E0223CDE905E30322F6
:1009F800072305A9CDE9082301F022FB0AB070BD41
:100A0800314A9342FAD12E4B3048314C0025029599
:100A18005A6C42F020025A645A6C02F02002029288
:100A2800029A03951A6B42F004021A631A6B02F0D9
:100A380004020392039A04951A6B42F480021A6323
:100A48001B6B03F480030493049BC0220223CDE9AB
:100A5800052301210323CDE90713082305A90993D9
:100A680001F0EEFA1B48A5614FF02063C4E90003CA
:100A78004FF48063C4E904354FF4807C4FF40033AD
:100A88002046C4E90255C4E907C3656201F04CF980
:100A980008B100F0C9F800220621F4633920A663E2
:100AA80001F0D2F8392001F001F90022062147208F
:100AB80001F0CAF8472001F0F9F89FE70048004024
:100AC80000380240000402400014014000080240BF
:100AD8002C0000202864024030B51F4B05688DB0FB
:100AE80004469D4214BF022501250021204600F03E
:100AF80055FF08B90DB030BD1022002101A802F041
:100B08008BF80DF10B0305AA0021204600F0CAFE60
:100B18000028EFD1079A111F4B424B418DF809303D
:100B2800089B981E434243418DF80A30DDE90531A0
:100B3800042A08BF0B460193099B8DF8083000F082
:100B480019FD01A90246284600F038F901A92846EE
:100B580000F0EAF8C9E700BF0064004010B5074B91
:100B680004689C4214BF0224012401F059F801468C
:100B78002046BDE8104000F0B9B900BF006400404D
:100B88000268034B9A4202BF024B01221A70704757
:100B980000140140280000207047FEE7FEE7FEE74A
:100BA800FEE770477047704708B500F0D7FCBDE80E
:100BB800084001F09EB80000014800F01ABF00BFCD
:100BC80044010020014800F014BF00BF1C010020B0
:100BD800FFF7F2BFFFF7F6BF014801F073B900BF96
:100BE8002C000020014801F0C7BE00BFD40000203F
:100BF800034AD2F8883043F47003C2F8883070474B
:100C080000ED00E0054A1368C31AB3F5FA7F03D371
:100C180010600020FFF7ECBD704700BF6C0100209A
:100C280001460220FFF7D0BD08B572B601210220A7
:100C3800FFF7CAFDFEE7000030B595B0044600F0A6
:100C480073FC102200210AA801F0E6FF14220021FB
:100C580003A801F0E1FF314B002101911A6C42F029
:100C680080521A641B6C03F080530193019B2C4B38
:100C780002911A6842F480421A601B6803F48043A8
:100C88000293029B01214FF480330225CDE908131A
:100C98004FF480030820CDE90E534FF4A873CDE933
:100CA8001003072308A81295139301F0AFFA08B1AF
:100CB800FFF7BAFF0F23CDE9033505904FF4A05293
:100CC8004FF48053052103A8CDE9062301F07AFCEF
:100CD8000028EDD100F054FCB0F5805F81BF114AC7
:100CE800136843F4807313602046FFF761FD002802
:100CF800DED02046FFF762FD0028D9D00021084643
:100D0800FFF762FD00210120FFF75EFD00210220B0
:100D180015B0BDE83040FFF757BD00BF00380240AE
:100D280000700040003C02407047000010B50146CA
:100D380003220120FFF76EFD044630B9054B012060
:100D48001870FFF76DFF204610BD034A1368013382
:100D58001360F8E781010020C40100201FB5024696
:100D68006B46FD210F2000F099FA10B16846FFF795
:100D7800DDFF05B000BD10B586B002AC0346009497
:100D880047F20502FD210F2000F0ACFA10B1204611
:100D9800FFF7CCFF06B010BD1FB59FED070A6B46E5
:100DA80047F20602FD210F2000F078FA10B16846DC
:100DB800FFF7BCFF05B000BD0000000070B50128BA
:100DC8008CB005460C4616462ED10A4607ABFD21C7
:100DD800002000F097FA002828D09DF81C300F2B2F
:100DE80024D1304B089A1A602F4B099A1A602F4B5E
:100DF8000A9A1A602E4B0B9A1A602E4B9DF81D20EA
:100E08001A702D4B9DF81E201A702C4B1E602C4B0F
:100E18001D702C4B1D702C4A1368013313602B4B2B
:100E280001201E60FFF7E4FC0CB070BD03AA214648
:100E3800FD2000F0F5FA10B39DF80D300F2B1ED1F0
:100E4800234BBDF810401C80224B059A1A609DF870
:100E58000E10214A069B13600120204A49B11070E8
:100E680047F219029442D6D10E4A1360154B1870F6
:100E7800D1E71B4B11701870FFF7D2FECBE76A461B
:100E88002146FD2000F004FB0028CDD09DF800305D
:100E98000F2BC9D1134B019A1A60134B029A1A608F
:100EA800B9E700BF9C0100209401002090010020B8
:100EB8008C0100208601002085010020B801002057
:100EC8008301002082010020C0010020BC01002015
:100ED800A8010020A4010020A00100208401002016
:100EE80081010020B0010020AC010020012805D1BB
:100EF800034A1160034A1070FFF792BE704700BFA3
:100F0800B4010020810100202DE9F0432DED028B72
:100F1800012085B0FFF790FE002000F099F9044603
:100F280008B9FFF781FED4ED007AA94BA2681A60D0
:100F3800B6EE008AF4EEC87AF1EE10FA01D5FFF7A2
:100F480073FEA44DDFF8CC82A34FDFF8CC920023C8
:100F58002B7000F00FFBD8F80030C31AC72B0446DB
:100F680017D82B783A789D4EDBB26ABB092B35D15E
:100F78009B4BD3ED007A9B4B93ED007A3368E31AD1
:100F8800002BC0F2E88001203870FFF749FE0A23E1
:100F980070E099F800209449C8F80000531C03F049
:100FA800030331F8122089F80030FD216B460F2029
:100FB80000F068F910B901233B70D2E76846FFF7E3
:100FC800B5FE0028CDD1F6E70A2B06D00B2B05D0AD
:100FD8000C2B03D00A232B7034600A233268A21A20
:100FE800002A03DA2046FFF70DFEB2E70B2BF9D8EB
:100FF80001A252F823F000BF311000088310000846
:10100800A7100008B5100008C1100008E510000876
:10101800131100082911000841110008ED0F0008FC
:10102800B1110008BF110008704B1B68002BD9D004
:101038006F4B1B78002BD5D0B4F57A7FD2D3694B90
:10104800D3ED007A664B77EE887AC3ED007A93ED9C
:10105800007ADFED687AB4EEE77AF1EE10FA92D40E
:1010680093ED007ADFED647AB4EEE77AF1EE10FAE8
:1010780089DC01232B703460B4E76B460122FD2123
:101088000F2000F0F5F80028ACD06846FFF74EFEB8
:101098000028A7D002232B7004F132031CE00320A0
:1010A800FFF769FE00289DD00323F4E7FFF774FEDD
:1010B800002897D00423EEE76A46FD210F2000F0B0
:1010C800D1F800288ED06846FFF730FE002889D076
:1010D80005232B7004F1C803336083E7474B1B7863
:1010E800002B3FF450AF464B1B78022B7FF44BAFDD
:1010F800444B1B78002B7FF446AF434B1B68E31A25
:10110800FA2B3FF640AF0623B4E7B6EE000A47F2E3
:101118002400FFF723FE00283FF464AF0723BAE753
:101128002F4B47F2160093ED000AFFF717FE002831
:101138003FF458AF0823AEE70120FFF71CFE002854
:101148003FF450AF314B00221A6009232B7004F58D
:101158009C530833C0E7294B1B78002B3FF413AF8F
:10116800284B1B7803F0FF01002B7FF40CAF264BB4
:101178001B68E31AFA2B3FF606AF77EEC77A9FEDA6
:10118800247A224AF0EEE77AF4EEC77AF1EE10FA02
:1011980008D813680BB9146024E7E31AC72B7FF645
:1011A80021AFF4E611601DE70320FFF7E4FDFFF728
:1011B800F3FD0B236FE76B460022FD210F2000F0A3
:1011C80057F810B16846FFF7B1FD0C2352E700BF8E
:1011D8008801002080010020810100207401002086
:1011E800980100209C010020A82C0008C0010020C4
:1011F80082010020B81E49C1B81E49418301002060
:101208008601002085010020B8010020700100201F
:10121800CDCC4C3D7C01002078010020006870474F
:1012280030B593B14CB2002C0FDD120242EA0060D7
:10123800002401434FF48472C3F80640C3F80A40FF
:10124800DC8119609A80012030BD0020FCE7000095
:1012580006289DBF024B142202FB00300020704775
:10126800B02C000813460A4601460320FFF7D8BFF2
:1012780038B515460A4601460420FFF7D1FF00B1EC
:10128800DD7138BD38B514460A4601461120FFF70E
:10129800C7FF10B1DC71240A1C7238BDDFED107A6B
:1012A800B0EEC07AB4EE677AF1EE10FA38B51546AA
:1012B8001C4601D9002038BD0A4601461220FFF716
:1012C800AFFF0028F6D010EE102ADD712D0ADA7271
:1012D8001D72130A2373130C120E6373A273EAE7C9
:1012E800FFFF7F7F38B514461D460A46049B01461A
:1012F8001220FFF795FF18B1DC71240A1C72DD7209
:1013080038BD0000062870B50646144602D90025E7
:10131800284670BD002AFAD0002BF8D05579002D48
:10132800F5D0526802F0FF12082AF0D12268D0B234
:101338008842ECD13449C2F3046221FA02F2D2079E
:10134800E5D514220021184601F066FC2268120A2D
:1013580051B200290270DADDC2F30521C2F38132ED
:1013680081704270B4F807209FED287A9FED286AB3
:10137800284952BA92B207EE902AF8EE677A1422F8
:1013880067EE877A02FB061187EE867ADFED227A0E
:10139800D1ED006A77EE677A36EEA67AC0ED017A6B
:1013A800B4F8092052BA92B207EE902AF8EE677A9A
:1013B80067EE877A87EE867A77EE667AD1ED016AEC
:1013C800C0ED027AB4F80B2052BA92B207EE902A16
:1013D80036EEA67AF8EE677A67EE877A87EE867A2F
:1013E80077EE667A9FED0D7AC0ED037AB4F80D209A
:1013F80052BA92B207EE902AF8EE677A67EE877AC9
:10140800C0ED047A84E700BF04000001B81EC9419A
:1014180000FF7F47B02C0008B81E4941CDCCCC3D19
:10142800F8B515460C4611B900263046F8BD002A15
:10143800FAD04E79002EF7D04B6803F0FF13082B33
:10144800F2D10F68FBB28342EED1C7F30467112FC4
:10145800EAD110220021284601F0DEFB23682F7014
:101468001B0A5AB2002A6B70DEDDC3F30723B3FAF6
:1014780083F35B09AB70B4F80730AB800B342046BC
:10148800FFF7CCFEA8602046FFF7C8FEE860CCE76F
:1014980038B511B90024204638BD002AFAD04C7955
:1014A800002CF7D04B6803F0FF13082BF2D10B6820
:1014B80003F0F855B5F1A85FECD1DDB28542E9D16A
:1014C8001B0A13705BB2002BE4DDC81DFFF7A6FEF4
:1014D800506001F10B00FFF7A1FE9060DBE7000010
:1014E80038B50E4B1A784FF47A73B3FBF2F30C4A03
:1014F80005461068B0FBF3F000F0E6FB044658B967
:101508000F2D09D8024629464FF0FF3000F09CFB0A
:10151800044B20461D6038BD0120FCE70400002074
:10152800000000200800002008B50B4B1A6842F4A0
:1015380000721A601A6842F480621A601A6842F4EB
:1015480080721A60032000F06DFB0F20FFF7C8FFC0
:10155800FFF710F9002008BD003C0240034A044B85
:1015680011681B780B441360704700BFC801002046
:1015780004000020014B1868704700BFC801002014
:10158800014B1868000C7047002004E038B5044689
:1015980000286ED090F820300BB9FFF781F9226847
:1015A800136843F001031360FFF7E4FF054623685F
:1015B8005A68D10751D51A6822F002021A60FFF75B
:1015C800D9FF054623685A68920754D4227E012A17
:1015D8001A680CBF42F0800222F080021A60627E14
:1015E800012A1A680CBF42F0400222F040021A6039
:1015F800A27E012A1A680CBF42F0200222F02002C3
:101608001A60E27E012A1A680CBF22F0100242F02A
:1016180010021A60227F012A1A680CBF42F00802E1
:1016280022F008021A60627F012A1A680CBF42F091
:10163800040222F004021A60D4E902210A43216953
:101648000A4361690A43616801390A43DA61002083
:101658000123606284F820300CE0FFF78BFF401B09
:101668000A28A4D9636A43F400336362052384F823
:101678002030012038BDFFF77DFF401B0A28A1D983
:10168800F0E7000030B590F82030013B012B77D807
:101698003E4BD3F8002242F00102C3F80022D3F8EF
:1016A800002222F47C52C3F80022D3F80022486AB0
:1016B80042EA0022C3F800224A69D3F81C5202F019
:1016C8001F040120A04025EA0005C3F81C52CD697B
:1016D800C443002D35D1D3F80C522540C3F80C5221
:1016E800CB688D8845EA0345D30003F1804303F5B1
:1016F800C8430A88C3F840528D6842EA0542C3F8D5
:1017080044228A69214B8ABBD3F804222240C3F8B9
:1017180004220A6972BBD3F814221440C3F8144295
:101728000B6A012B194B02BFD3F81C220243C3F8E2
:101738001C22D3F8002222F00102C3F80022002064
:1017480030BD012DDDD1D3F80C520543C3F80C523E
:101758000B688D8845EA0345D30003F1804303F500
:10176800C8438A89C3F840528D68C6E7D3F8042273
:101778000243CCE7D3F814220243C3F81422CFE77C
:10178800436A43F4802343620120D9E700640040A0
:1017980038B590F82030012B04461FD10268022387
:1017A80080F82030136823F001031360FFF7E2FE8E
:1017B80005462368586810F0010001D1606238BD01
:1017C800FFF7D8FE401B0A28F3D9636A43F40033B5
:1017D8006362052384F820300120F0E7436A43F46C
:1017E80000234362F8E7F0B590F820500468013D03
:1017F800012DA6683ED816F0E05F35D0C6F301602B
:10180800012585401D60D1E9025700F1180325BB69
:101818000D681B0147EA4557E75004EB00130E69B2
:10182800C3F88461097D012908BFD3F884114FEA00
:10183800001504BF41F48071C3F884112C44516829
:10184800C4F88C111268C4F88821D3F8802142F0BA
:101858000102C3F880210020F0BD4E683D431B0102
:1018680045EAC605E550D8E7436A43F400134362E6
:101878000120F1E7436A43F48023F8E790F8203029
:10188800013B012B0CD8036898689A689B68120181
:10189800C0F3806048BF0130DB0002D501307047DB
:1018A80000207047F0B590F82040013C012C71D819
:1018B800066841B9F468A40707D1436A43F40013E2
:1018C80043620120F0BD3469F5E706EB01150C0110
:1018D800D5F8B07107F004079760002F50D1D5F8FC
:1018E800B0717F0D1760D5F8B07107F00207D760A7
:1018F800D5F8B4713F0756BFD5F8B471082707F07B
:101908000F071761D5F8B471D5F8B4512644C7F359
:1019180007272D0C97615561D6F8B8211A7002680F
:101928002244D2F8B821120A5A7002682244D2F826
:10193800B821120C9A7002682244D2F8B821120E0B
:10194800DA7002682244D2F8BC211A710268224473
:10195800D2F8BC21120A5A7102682244D2F8BC217A
:10196800120C9A7102682244D2F8BC21120EDA7164
:10197800036851B9DA6842F02002DA600020A1E772
:10198800D5F8B071FF085760ADE71A6942F0200238
:101998001A61F3E7436A43F4802391E790F8203013
:1019A800013B012B07D8036819B9D86800F0030078
:1019B80070471869FAE70020704790F82030013B1B
:1019C800012B05D8026853691943516100207047FB
:1019D800436A43F48023436201207047704770478D
:1019E8007047704770477047704770477047704737
:1019F80070472DE9F84F03685E69D3F80490D3F86F
:101A08000880D3F80CB0D3F810A09F6916F0010431
:101A1800054627D018F0010F07D0012218F0020F51
:101A28009A6000F0A580FFF7D9FF002418F4807FA2
:101A38000AD02B684FF4807218F4007F9A6000F087
:101A4800A6802846FFF7CBFF18F4803F0AD02B6802
:101A58004FF4803218F4003F9A6000F0A8802846BE
:101A6800FFF7BEFF310707D51BF0100F1FBF2B680C
:101A7800102244F40074DA60720708D51BF0080FCE
:101A880005D02B680822DA602846FFF7ADFFB307B8
:101A980006D52B68DB68980702D02846FFF71CF8A4
:101AA800710607D51AF0100F1FBF2B68102244F4D7
:101AB80080641A61B20608D51AF0080F05D02B68A1
:101AC80008221A612846FFF791FFF30606D52B680E
:101AD8001B69980702D02846FFF787FFB10308D58E
:101AE80019F0100F05D02B6810225A602846FFF70E
:101AF8007EFFF20308D519F0080F05D02B680822DD
:101B08005A602846FFF774FF330428D519F0040FEC
:101B18002A6822D0F00544BF07F001031C43B10531
:101B280003D5BB0748BF44F00204700503D5790705
:101B380048BF44F0040433050FD517F070030CD0E8
:101B4800402B54D043D8202B4BD0302B4CD0102BCB
:101B580044D0936923F070039361042353602CB13C
:101B68006B6A23436B622846FEF7F8FFBDE8F88FDF
:101B780018F0040F05D118F0080F05D1FFF731FF51
:101B880053E74FF4006451E74FF480544EE718F4DC
:101B9800806F02D044F4005456E718F4006F02D066
:101BA80044F4804450E72846FFF71CFF4CE718F43C
:101BB800802F02D044F4004454E718F4002F02D0D8
:101BC80044F480344EE72846FFF70DFF4AE7502BD0
:101BD80010D0602BBDD144F48074BAE744F00804F7
:101BE800B7E744F01004B4E744F02004B1E744F048
:101BF8004004AEE744F08004ABE790F820200346A9
:101C0800D0B2013A012A0AD81B685A68920705D44B
:101C18001B6813F0020F18BF032070470420704799
:101C2800406A70470749CA6822F4E0620302120456
:101C380003F4E063120C134343F0BF6343F400332F
:101C4800CB60704700ED00E0164B30B5DC68C4F39C
:101C58000224C4F10703251D042B28BF0423062DE5
:101C68004FF0FF358CBF033C002405FA03F321EA4B
:101C78000303A54022EA0502A340002843EA020321
:101C8800ACBF00F16040084A4FEA0313B8BF00F048
:101C98000F00DBB2AABF00F56140135480F800338F
:101CA80030BD00BF00ED00E014ED00E0002807DBC8
:101CB800044A4109012300F01F00834042F8213003
:101CC800704700BF00E100E00138B0F1807F0BD21F
:101CD8004FF0E023054A5861F02182F823100020D4
:101CE800072298611A6170470120704700ED00E0F3
:101CF800704708B5FFF7FCFF08BD0000036810B582
:101D0800084C0246D9B210391820B1FBF0F0205C1B
:101D1800D06523F47F7020F003005F2988BF04306A
:101D2800906510BD3C2D000870B50446FFF722FCF5
:101D38000546002C60D0022384F835302268002341
:101D480084F83430136823F00103136022681368A1
:101D5800D8072ED413683248A1691840D4E9013550
:101D68002B43E5682B4325692B4365692B43E569BC
:101D78000B432B43256A2B430343606A042802BFA5
:101D8800D4E90B5635432B4313605369042823F0D9
:101D9800070343EA000335D1A06AE56A03438DB31C
:101DA80091B9012820D030F002012BD1E90129D5C1
:101DB8001DE0FFF7DFFB401B0528C7D920230320C0
:101DC800636584F8350070BDB1F5005F16D103284E
:101DD80018D801A151F820F0F71D0008B51D00081A
:101DE800F71D0008F11D0008B5F1C07F0AD1402396
:101DF8006365012384F835300120E4E70228F6D929
:101E08000328D3D053612046FFF778FFE26D3F23C4
:101E18009340836000200123606584F83530D2E761
:101E28003F8010F070B50446866DFFF7A3FB94F869
:101E38003530022B054606D0802363650120002338
:101E480084F8343070BD23681A6822F016021A60CC
:101E58005A6922F080025A61226C0AB9A26C1AB13E
:101E68001A6822F008021A601A6822F001021A6041
:101E78002368186810F0010007D1E26D3F239340F2
:101E8800B360012384F83530D9E7FFF773FB401BB3
:101E98000528EDD920230320636584F83500CEE7B3
:101EA80090F83530022B03D080234365012070471A
:101EB8000268052380F83530136823F001031360A6
:101EC80000207047F7B5002301935C4B856D1F68B0
:101ED800C36D2E6808229A40324204460CD001682D
:101EE8000868400708D5086820F004000860AA6060
:101EF800626D42F00102626501229A40324208D0C6
:101F080021684969090641BFAA60626D42F0020270
:101F1800626504229A40324208D02168096888071D
:101F280041BFAA60626D42F00402626510229A40C5
:101F3800324210D02368196809070CD5AA601A68BC
:101F4800500337D51B68190301D4236C00E0A36C38
:101F58000BB120469847E16D20228A4032423AD0A0
:101F680023681868C60636D5AA6094F83520052A6D
:101F78001A6827D122F016021A605A6922F08002E4
:101F88005A61226C0AB9A26C1AB11A6822F00802C6
:101F98001A603F238B40AB60012384F8353000235F
:101FA80084F83430236D002B45D0204603B0BDE8BB
:101FB800F04018471A68D2055EBF1A6822F0080276
:101FC8001A60C2E7500327D51B68190331D4636C24
:101FD8000BB120469847636D6BB3636DDA0719D56B
:101FE80022684FF41653B7FBF3F7052384F835300E
:101FF800136823F001031360019B0133BB42019373
:1020080002D81368DB07F7D4012384F8353000239E
:1020180084F83430E36CC6E71A6812F4807208D189
:10202800196821F010011960012384F8353084F80B
:102038003420E36BCCE703B0F0BD00BF0000002004
:102048002DE9F74FDFF8A491664A00230D680124B3
:102058009C4004EA0506AC4340F0AF804D68032776
:1020680005F003044FEA430807FA08FC671E012F2E
:102078006FEA0C0C34D8876807EA0C0ECF6807FAA9
:1020880008F747EA0E078760476827EA060EC5F390
:1020980000179F4047EA0E074760C76807EA0C0E1B
:1020A8008F6807FA08F747EA0E07022CC76019D1AC
:1020B8004FEAD30A00EB8A0A03F0070BDAF820701C
:1020C8004FEA8B0B4FF00F0E0EFA0BFE27EA0E0E9F
:1020D8000F6907FA0BF747EA0E07CAF8207001E004
:1020E800032CDAD1076804FA08F407EA0C073C4322
:1020F80015F4403F046060D000240194D9F84440AE
:1021080044F48044C9F84440D9F8444023F0030714
:1021180007F1804704F4804407F59C37019403F0E5
:10212800030C019CD7F808E04FEA8C0C0F2404FA42
:102138000CF42EEA040E2C4CA04245D004F5806421
:10214800A04243D004F58064A04241D004F58064E5
:10215800A0423FD004F58064A0423DD004F58064DD
:10216800A0423BD004F58064A04239D004F58064D5
:10217800A04214BF0824072404FA0CF444EA0E040D
:10218800BC609468F74315F4801F0CBF3C4034438F
:102198009460D46815F4001F0CBF3C403443D460ED
:1021A800546815F4003F0CBF3C4034435460146835
:1021B800ED0354BF3C40344314600133102B7FF4CB
:1021C80045AF03B0BDE8F08F0024D5E70124D3E77D
:1021D8000224D1E70324CFE70424CDE70524CBE785
:1021E8000624C9E7003C01400000024000380240D4
:1021F8000AB1816170470904FBE7436901EA0302F8
:1022080021EA030141EA0241816170472DE9F34166
:10221800044640B30368DE0710D423689D075BD4E7
:102228002368190700F19D8023685A0700F1BD80D3
:10223800A369002B40F0248100202CE08D4B9A6884
:1022480002F00C02042A07D09A6802F00C02082A4D
:102258000BD15B68590208D5864B1B689A03DCD5FD
:102268006368002BD9D1012015E06368814DB3F56F
:10227800803F13D12B6843F480332B60FFF77AF942
:102288007C4E054633689B03C7D4FFF773F9401BA0
:102298006428F7D9032002B0BDE8F081B3F5A02F78
:1022A80004D12B6843F480232B60E3E72A6822F4E7
:1022B80080322A602A6822F480222A60002BDDD12D
:1022C800FFF758F906462B689F03A6D5FFF752F982
:1022D800801B6428F7D9DDE7664B9A6812F00C0F6B
:1022E80007D09A6802F00C02082A11D15B685D02D7
:1022F8000ED4604A1368990702D5E368012BB2D15E
:102308001368216923F0F80343EAC103136087E7E0
:10231800E268594BB2B101221A60FFF72BF9554D0B
:1023280006462B689B0707D52B68226923F0F8031C
:1023380043EAC2032B6073E7FFF71CF9801B0228EE
:10234800EFD9A7E71A60FFF715F94A4E0546336833
:102358009F077FF565AFFFF70DF9401B0228F6D9F7
:1023680098E76269444B82B10122C3F8802EFFF7D7
:1023780001F9404E0546736F9B073FF555AFFFF7D0
:10238800F9F8401B0228F6D984E7C3F8802EFFF736
:10239800F1F8384E0546736F9F077FF545AFFFF795
:1023A800E9F8401B0228F6D974E7324B1A6C12F090
:1023B800805228D101921A6C42F080521A641B6C28
:1023C80003F080530193019B01272C4D2B68D805FE
:1023D8001BD5A368274D012B27D12B6F43F0010391
:1023E8002B67FFF7C7F8234E054641F28838336F4D
:1023F8009A0739D5002F3FF41BAF1E4A136C23F000
:102408008053136414E70027DFE72B6843F48073D5
:102418002B60FFF7AFF806462B68D905D9D4FFF72C
:10242800A9F8801B0228F7D934E7052B04D12B6FB4
:1024380043F004032B67D0E72A6F22F001022A67D2
:102448002A6F22F004022A67002BCAD1FFF792F8FC
:1024580041F2883806462B6F9B07CBD5FFF78AF8E1
:10246800801B4045F7D915E7FFF784F8401B404526
:10247800BDD90FE700380240000047420070004015
:10248800374DAA6802F00C02082A3ED0022B354BC1
:102498004FF000021A662BD1FFF76CF806462B683E
:1024A80099011FD4D4E907321343626A43EA8213BD
:1024B800E26A43EA0263A26A5208013A43EA024323
:1024C8006B60284B264D01221A66FFF753F8044625
:1024D8002B689A013FF5B0AEFFF74CF8001B0228B5
:1024E800F6D9D7E6FFF746F8801B0228D7D9D1E6F8
:1024F800FFF740F804462B689B017FF59DAEFFF778
:1025080039F8001B0228F6D9C4E6012B3FF4ABAE1C
:102518006B68E26903F4800191427FF4A4AE216AFA
:1025280003F03F028A427FF49EAE616A47F6C072AA
:102538001A40B2EB811F7FF496AEA26A520803F4E8
:102548004031013AB1EB024F7FF48DAEE26A03F0FD
:102558007063B3EB026F14BF012000209BE600BF3D
:102568000038024000004742134908B58B6803F061
:102578000C03042B1CD0082B1CD14A684B684968F3
:1025880013F4800314BF0D480D48C1F3881118BF18
:10259800002302F03F02A1FB0001FDF711FE064BEC
:1025A8005B68C3F3014301335B00B0FBF3F008BD84
:1025B8000248FCE70248FAE70038024000127A00B5
:1025C8000024F4002DE9F0410D46044610B901201D
:1025D800BDE8F081434B1A6802F007028A4228D30B
:1025E80021688F072DD4C80740D43E4B1A6802F0E3
:1025F8000702AA4265D8226851076BD4130707D58A
:10260800394A2169936823F4604343EAC10393601C
:10261800FFF7AAFF344B354A9B68C3F30313D35C17
:10262800D840334B1860334B1868FEF759FF002029
:10263800CEE7CAB21A701B6803F007038B42C6D1F3
:10264800CEE7294B11F0040F1EBF9A6842F4E052FE
:102658009A600E0742BF9A6842F460429A609A688C
:10266800A06822F0F00202439A60BCE762681E4B41
:10267800012A1CD11B6813F4003FA8D01A4EB36876
:1026880023F003031343B360FEF774FF41F2883865
:102698000746B368626803F00C03B3EB820FA4D05B
:1026A800FEF768FFC01B4045F3D9032090E7911E51
:1026B80001291B6802D813F0007FDEE713F0020F30
:1026C800DBE7EAB21A701B6803F00703AB427FF43A
:1026D8007EAF90E70449E0688B6823F4E053034336
:1026E8008B608BE7003C024000380240982C0008C1
:1026F8000000002008000020044B054A9B68C3F333
:102708008223D35C034A1068D840704700380240DF
:10271800902C000800000020044B054A9B68C3F376
:102728004233D35C034A1068D840704700380240EF
:10273800902C000800000020026802F10C0353E806
:10274800003F23F490730C3242E8003102680029FC
:10275800F2D102F1140353E8003F23F0010302F120
:10276800140C4CE800310029F3D1036B012B0BD179
:1027780002F10C0353E8003F23F0100302F10C0CA4
:102788004CE800310029F3D1202380F8423000239F
:10279800036370470268C16838B5136923F440536E
:1027A8000B431361054683680069D1680343686970
:1027B8000343E86921F4164121F00C0103430B435C
:1027C800D3605369A96923F440730B4353611F4BCA
:1027D8009A4203D003F580639A4224D1FFF79CFF05
:1027E800EA691921B2F5004FD5E90043A0FB0101C0
:1027F8001CD1DA184FF0000545EB0503FDF7E0FCA6
:102808006422B0FBF2F102FB1103DB003233B3FBAD
:10281800F2F303F007025B0002EB011203F4F87312
:102828001344A36038BDFFF767FFD9E79A009B0FF1
:10283800FDF7C6FC6422B0FBF2F102FB11031B0199
:102848003233B3FBF2F303EB0113EAE70010014064
:1028580010B5044648B390F8413003F0FF021BB9A5
:1028680080F84020FEF79AF82268242384F8413043
:10287800D36823F40053D3602046FFF78BFF236807
:102888001A6922F490421A615A6922F02A025A619E
:10289800DA6842F40052DA6000202023606484F889
:1028A800413084F84230606310BD0120FCE7704776
:1028B800704708B5806B0023C385FEF761F908BD32
:1028C800704790F84230222B07B542D181680268E0
:1028D800836AB1F5805F3ED1016900293ED1526813
:1028E800C2F3080223F8022B8362C38D013B9BB21B
:1028F800C385002B2DD10268D16821F02001D16059
:10290800D16821F48071D160516921F001015161D0
:10291800202280F842204363026B012A026827D1F3
:10292800036302F10C0353E8003F23F0100302F1A4
:102938000C0C4CE800310029F3D11368DB0605D5EF
:1029480001911368019353680193019B818DFFF7EF
:10295800B7FF03B000BD39B9016929B95268D2B2CD
:102968001A70836A0133BFE7526802F07F02F7E703
:10297800FFF79EFFEDE7000003681A6873B51607B6
:10298800D9685D69044608D1960668D58D0666D56E
:1029980002B0BDE87040FFF794BF05F0010001F4F4
:1029A800907505435BD0D60705D5CD0542BF636C4E
:1029B80043F001036364530704D518B1636C43F013
:1029C80002036364960704D518B1636C43F00403EB
:1029D8006364150707D501F0200303431EBF636C2A
:1029E80043F008036364636C002B32D0920604D56D
:1029F8008B0602D52046FFF764FF26687369626C70
:102A080003F0400302F0080253EA0205204622D0F0
:102A1800FFF792FE73695E0618D5226802F1140367
:102A280053E8003F23F04003143242E80031002904
:102A3800F3D1E06B50B1774B0365FFF731FA40B142
:102A4800E06B036D02B0BDE8704018472046FEF702
:102A580097F802B070BDFEF793F86564F9E7206B4C
:102A6800012840F09B80D50640F19880C80640F1C7
:102A78009580002201921A6801925A680192019A7F
:102A88005969A28D490656D5E06B0168496889B233
:102A9800002947D0914245D2C269E185B2F5807FCD
:102AA80036D003F10C0252E8002F22F4807203F1B1
:102AB8000C0040E800210029F3D103F1140252E888
:102AC800002F22F0010203F1140040E80021002940
:102AD800F3D103F1140252E8002F22F0400203F16F
:102AE800140040E800210029F3D1202284F8422074
:102AF800216303F10C0252E8002F22F0100203F1C7
:102B08000C0040E800210029F3D1E06BFFF78AF9B7
:102B180002236363E38DA18DC91A89B22046FFF7AA
:102B2800CFFE96E7914294D1C369B3F5807F90D1E7
:102B380002236363F2E7E18DE08D80B289B2002859
:102B480087D0511A89B2002983D003F10C0252E8C8
:102B5800002F22F4907203F10C0545E800200028AC
:102B6800F3D103F1140252E8002F22F0010203F11D
:102B7800140545E800200028F3D1202284F84220DB
:102B8800206303F10C0252E8002F22F0100203F137
:102B98000C0545E800200028F3D1C9E7160628D51A
:102BA8000D0626D594F84120212A7FF452AFA1685A
:102BB800226AB1F5805F17D12169A9B932F8021BE1
:102BC800C1F3080159602262E28C013A92B2E284B0
:102BD800002A7FF43EAFDA6822F08002DA60DA6811
:102BE80042F04002DA6034E7511C216212785A60E0
:102BF800EAE750067FF52DAF4A067FF52AAFDA6877
:102C080022F04002DA60202384F841302046FFF7A2
:102C18004EFE1EE7BB28000802440346934200D13B
:102C2800704703F8011BF9E770B50D4B0D4D5B1BA1
:102C38009C100026A64209D100F01AF80A4D0B4B49
:102C48005B1B9C100026A64205D170BD55F8043BBD
:102C580098470136EEE755F8043B98470136F2E706
:102C68004C2D00084C2D00084C2D0008502D000854
:102C7800F8B500BFF8BC08BC9E467047F8B500BF61
:082C8800F8BC08BC9E46704731
:102C9000000000000102030400000000000000002A
:102CA000010203040607080919701B701A701C70D2
:102CB0000000044200006041000080410000FA432F
:102CC0000000A04000003042000088410000B841F0
:102CD0000000FA430000A04000003042000088419C
:102CE000000080410000FA430000A0400000A04125
:102CF0000000704200002C4200409C450000C84289
:102D0000000070410000F0420000B44200409C45C9
:102D10000000C842000048420000B04000003041BE
:102D20000000FA430000A0400000484200001042AA
:102D30000000644200409C450000C8420006101696
:042D40000006101663
:082D4400B4D4FF7F0100000080
:042D4C00AD010008CD
:042D500089010008ED
:0C2D54000024F40001000000100000004A
:04000005080004F5F6
:00000001FF
